
GyroTest.elf:     file format elf32-avr

Sections:
Idx Name          Size      VMA       LMA       File off  Algn
  0 .data         00000094  00800100  00000fb4  00001048  2**0
                  CONTENTS, ALLOC, LOAD, DATA
  1 .text         00000fb4  00000000  00000000  00000094  2**1
                  CONTENTS, ALLOC, LOAD, READONLY, CODE
  2 .bss          00000016  00800194  00800194  000010dc  2**0
                  ALLOC
  3 .comment      00000030  00000000  00000000  000010dc  2**0
                  CONTENTS, READONLY
  4 .debug_aranges 000000c8  00000000  00000000  0000110c  2**0
                  CONTENTS, READONLY, DEBUGGING
  5 .debug_info   0000068e  00000000  00000000  000011d4  2**0
                  CONTENTS, READONLY, DEBUGGING
  6 .debug_abbrev 00000155  00000000  00000000  00001862  2**0
                  CONTENTS, READONLY, DEBUGGING
  7 .debug_line   0000041f  00000000  00000000  000019b7  2**0
                  CONTENTS, READONLY, DEBUGGING
  8 .debug_frame  0000031c  00000000  00000000  00001dd8  2**2
                  CONTENTS, READONLY, DEBUGGING
  9 .debug_str    00000316  00000000  00000000  000020f4  2**0
                  CONTENTS, READONLY, DEBUGGING
 10 .debug_loc    0000068a  00000000  00000000  0000240a  2**0
                  CONTENTS, READONLY, DEBUGGING
 11 .debug_ranges 000000b8  00000000  00000000  00002a94  2**0
                  CONTENTS, READONLY, DEBUGGING

Disassembly of section .text:

00000000 <__vectors>:
   0:	13 c0       	rjmp	.+38     	; 0x28 <__ctors_end>
   2:	2d c0       	rjmp	.+90     	; 0x5e <__bad_interrupt>
   4:	2c c0       	rjmp	.+88     	; 0x5e <__bad_interrupt>
   6:	2b c0       	rjmp	.+86     	; 0x5e <__bad_interrupt>
   8:	2a c0       	rjmp	.+84     	; 0x5e <__bad_interrupt>
   a:	29 c0       	rjmp	.+82     	; 0x5e <__bad_interrupt>
   c:	28 c0       	rjmp	.+80     	; 0x5e <__bad_interrupt>
   e:	27 c0       	rjmp	.+78     	; 0x5e <__bad_interrupt>
  10:	26 c0       	rjmp	.+76     	; 0x5e <__bad_interrupt>
  12:	25 c0       	rjmp	.+74     	; 0x5e <__bad_interrupt>
  14:	50 c7       	rjmp	.+3744   	; 0xeb6 <__vector_10>
  16:	23 c0       	rjmp	.+70     	; 0x5e <__bad_interrupt>
  18:	22 c0       	rjmp	.+68     	; 0x5e <__bad_interrupt>
  1a:	21 c0       	rjmp	.+66     	; 0x5e <__bad_interrupt>
  1c:	20 c0       	rjmp	.+64     	; 0x5e <__bad_interrupt>
  1e:	1f c0       	rjmp	.+62     	; 0x5e <__bad_interrupt>
  20:	1e c0       	rjmp	.+60     	; 0x5e <__bad_interrupt>
  22:	1d c0       	rjmp	.+58     	; 0x5e <__bad_interrupt>
  24:	1c c0       	rjmp	.+56     	; 0x5e <__bad_interrupt>
  26:	1b c0       	rjmp	.+54     	; 0x5e <__bad_interrupt>

00000028 <__ctors_end>:
  28:	11 24       	eor	r1, r1
  2a:	1f be       	out	0x3f, r1	; 63
  2c:	cf ef       	ldi	r28, 0xFF	; 255
  2e:	d2 e0       	ldi	r29, 0x02	; 2
  30:	de bf       	out	0x3e, r29	; 62
  32:	cd bf       	out	0x3d, r28	; 61

00000034 <__do_copy_data>:
  34:	11 e0       	ldi	r17, 0x01	; 1
  36:	a0 e0       	ldi	r26, 0x00	; 0
  38:	b1 e0       	ldi	r27, 0x01	; 1
  3a:	e4 eb       	ldi	r30, 0xB4	; 180
  3c:	ff e0       	ldi	r31, 0x0F	; 15
  3e:	02 c0       	rjmp	.+4      	; 0x44 <__SREG__+0x5>
  40:	05 90       	lpm	r0, Z+
  42:	0d 92       	st	X+, r0
  44:	a4 39       	cpi	r26, 0x94	; 148
  46:	b1 07       	cpc	r27, r17
  48:	d9 f7       	brne	.-10     	; 0x40 <__SREG__+0x1>

0000004a <__do_clear_bss>:
  4a:	21 e0       	ldi	r18, 0x01	; 1
  4c:	a4 e9       	ldi	r26, 0x94	; 148
  4e:	b1 e0       	ldi	r27, 0x01	; 1
  50:	01 c0       	rjmp	.+2      	; 0x54 <.do_clear_bss_start>

00000052 <.do_clear_bss_loop>:
  52:	1d 92       	st	X+, r1

00000054 <.do_clear_bss_start>:
  54:	aa 3a       	cpi	r26, 0xAA	; 170
  56:	b2 07       	cpc	r27, r18
  58:	e1 f7       	brne	.-8      	; 0x52 <.do_clear_bss_loop>
  5a:	b0 d2       	rcall	.+1376   	; 0x5bc <main>
  5c:	a9 c7       	rjmp	.+3922   	; 0xfb0 <_exit>

0000005e <__bad_interrupt>:
  5e:	58 c7       	rjmp	.+3760   	; 0xf10 <__vector_default>

00000060 <startSPI>:
//#define HELMETC
#include <avr/io.h>
#include "HelmetSPILib.h"


void startSPI(void){
  60:	cf 93       	push	r28
  62:	df 93       	push	r29
  64:	cd b7       	in	r28, 0x3d	; 61
  66:	de b7       	in	r29, 0x3e	; 62
	sPIDevice = 0;
  68:	10 92 a9 01 	sts	0x01A9, r1
  6c:	10 92 a8 01 	sts	0x01A8, r1
	DDRA |= (1<<ACCELSELECTPIN)|(1<<GYROSELECTPIN)|(1<<MEMSELECTPIN)|(1<<4)|(1<<5); //(1<<RADIOSELECTPIN)|
  70:	81 e2       	ldi	r24, 0x21	; 33
  72:	90 e0       	ldi	r25, 0x00	; 0
  74:	21 e2       	ldi	r18, 0x21	; 33
  76:	30 e0       	ldi	r19, 0x00	; 0
  78:	f9 01       	movw	r30, r18
  7a:	20 81       	ld	r18, Z
  7c:	28 6f       	ori	r18, 0xF8	; 248
  7e:	fc 01       	movw	r30, r24
  80:	20 83       	st	Z, r18
	DDRA &= ~(1<<2);
  82:	81 e2       	ldi	r24, 0x21	; 33
  84:	90 e0       	ldi	r25, 0x00	; 0
  86:	21 e2       	ldi	r18, 0x21	; 33
  88:	30 e0       	ldi	r19, 0x00	; 0
  8a:	f9 01       	movw	r30, r18
  8c:	20 81       	ld	r18, Z
  8e:	2b 7f       	andi	r18, 0xFB	; 251
  90:	fc 01       	movw	r30, r24
  92:	20 83       	st	Z, r18
	PORTA |= (1<<MEMSELECTPIN)|(1<<ACCELSELECTPIN)|(1<<GYROSELECTPIN);
  94:	82 e2       	ldi	r24, 0x22	; 34
  96:	90 e0       	ldi	r25, 0x00	; 0
  98:	22 e2       	ldi	r18, 0x22	; 34
  9a:	30 e0       	ldi	r19, 0x00	; 0
  9c:	f9 01       	movw	r30, r18
  9e:	20 81       	ld	r18, Z
  a0:	28 6c       	ori	r18, 0xC8	; 200
  a2:	fc 01       	movw	r30, r24
  a4:	20 83       	st	Z, r18
	//SPSR |= (1<<SPI2X);						//Double speed SPI
	SPCR = (1<<SPE)|(1<<MSTR)|(1<<SPR0)|(1<<SPR1);	//Clock Divide is 8 - SPI speed of 1 MHz
  a6:	8c e4       	ldi	r24, 0x4C	; 76
  a8:	90 e0       	ldi	r25, 0x00	; 0
  aa:	23 e5       	ldi	r18, 0x53	; 83
  ac:	fc 01       	movw	r30, r24
  ae:	20 83       	st	Z, r18
}
  b0:	df 91       	pop	r29
  b2:	cf 91       	pop	r28
  b4:	08 95       	ret

000000b6 <deviceSelect>:

void deviceSelect(int device){
  b6:	cf 93       	push	r28
  b8:	df 93       	push	r29
  ba:	00 d0       	rcall	.+0      	; 0xbc <deviceSelect+0x6>
  bc:	cd b7       	in	r28, 0x3d	; 61
  be:	de b7       	in	r29, 0x3e	; 62
  c0:	9a 83       	std	Y+2, r25	; 0x02
  c2:	89 83       	std	Y+1, r24	; 0x01
	switch(device){
  c4:	89 81       	ldd	r24, Y+1	; 0x01
  c6:	9a 81       	ldd	r25, Y+2	; 0x02
  c8:	81 30       	cpi	r24, 0x01	; 1
  ca:	91 05       	cpc	r25, r1
  cc:	29 f1       	breq	.+74     	; 0x118 <deviceSelect+0x62>
  ce:	82 30       	cpi	r24, 0x02	; 2
  d0:	91 05       	cpc	r25, r1
  d2:	1c f4       	brge	.+6      	; 0xda <deviceSelect+0x24>
  d4:	00 97       	sbiw	r24, 0x00	; 0
  d6:	49 f0       	breq	.+18     	; 0xea <deviceSelect+0x34>
  d8:	6a c0       	rjmp	.+212    	; 0x1ae <deviceSelect+0xf8>
  da:	82 30       	cpi	r24, 0x02	; 2
  dc:	91 05       	cpc	r25, r1
  de:	a9 f1       	breq	.+106    	; 0x14a <deviceSelect+0x94>
  e0:	83 30       	cpi	r24, 0x03	; 3
  e2:	91 05       	cpc	r25, r1
  e4:	09 f4       	brne	.+2      	; 0xe8 <deviceSelect+0x32>
  e6:	4a c0       	rjmp	.+148    	; 0x17c <deviceSelect+0xc6>
  e8:	62 c0       	rjmp	.+196    	; 0x1ae <deviceSelect+0xf8>
		case RADIO:
		SPCR &= ~((1<<CPOL)|(1<<CPHA));
  ea:	8c e4       	ldi	r24, 0x4C	; 76
  ec:	90 e0       	ldi	r25, 0x00	; 0
  ee:	2c e4       	ldi	r18, 0x4C	; 76
  f0:	30 e0       	ldi	r19, 0x00	; 0
  f2:	f9 01       	movw	r30, r18
  f4:	20 81       	ld	r18, Z
  f6:	23 7f       	andi	r18, 0xF3	; 243
  f8:	fc 01       	movw	r30, r24
  fa:	20 83       	st	Z, r18
		PORTA &= ~(1<<RADIOSELECTPIN);
  fc:	82 e2       	ldi	r24, 0x22	; 34
  fe:	90 e0       	ldi	r25, 0x00	; 0
 100:	22 e2       	ldi	r18, 0x22	; 34
 102:	30 e0       	ldi	r19, 0x00	; 0
 104:	f9 01       	movw	r30, r18
 106:	20 81       	ld	r18, Z
 108:	2f 7b       	andi	r18, 0xBF	; 191
 10a:	fc 01       	movw	r30, r24
 10c:	20 83       	st	Z, r18
		sPIDevice = RADIO;
 10e:	10 92 a9 01 	sts	0x01A9, r1
 112:	10 92 a8 01 	sts	0x01A8, r1
		break;
 116:	4b c0       	rjmp	.+150    	; 0x1ae <deviceSelect+0xf8>
		case GYRO:
		SPCR |= ((1<<CPOL)|(1<<CPHA));
 118:	8c e4       	ldi	r24, 0x4C	; 76
 11a:	90 e0       	ldi	r25, 0x00	; 0
 11c:	2c e4       	ldi	r18, 0x4C	; 76
 11e:	30 e0       	ldi	r19, 0x00	; 0
 120:	f9 01       	movw	r30, r18
 122:	20 81       	ld	r18, Z
 124:	2c 60       	ori	r18, 0x0C	; 12
 126:	fc 01       	movw	r30, r24
 128:	20 83       	st	Z, r18
		PORTA &= ~(1<<GYROSELECTPIN);
 12a:	82 e2       	ldi	r24, 0x22	; 34
 12c:	90 e0       	ldi	r25, 0x00	; 0
 12e:	22 e2       	ldi	r18, 0x22	; 34
 130:	30 e0       	ldi	r19, 0x00	; 0
 132:	f9 01       	movw	r30, r18
 134:	20 81       	ld	r18, Z
 136:	2f 7b       	andi	r18, 0xBF	; 191
 138:	fc 01       	movw	r30, r24
 13a:	20 83       	st	Z, r18
		sPIDevice = GYRO;
 13c:	81 e0       	ldi	r24, 0x01	; 1
 13e:	90 e0       	ldi	r25, 0x00	; 0
 140:	90 93 a9 01 	sts	0x01A9, r25
 144:	80 93 a8 01 	sts	0x01A8, r24
		break;
 148:	32 c0       	rjmp	.+100    	; 0x1ae <deviceSelect+0xf8>
		case ACCEL:
		SPCR |= ((1<<CPOL)|(1<<CPHA));
 14a:	8c e4       	ldi	r24, 0x4C	; 76
 14c:	90 e0       	ldi	r25, 0x00	; 0
 14e:	2c e4       	ldi	r18, 0x4C	; 76
 150:	30 e0       	ldi	r19, 0x00	; 0
 152:	f9 01       	movw	r30, r18
 154:	20 81       	ld	r18, Z
 156:	2c 60       	ori	r18, 0x0C	; 12
 158:	fc 01       	movw	r30, r24
 15a:	20 83       	st	Z, r18
		PORTA &= ~(1<<ACCELSELECTPIN);
 15c:	82 e2       	ldi	r24, 0x22	; 34
 15e:	90 e0       	ldi	r25, 0x00	; 0
 160:	22 e2       	ldi	r18, 0x22	; 34
 162:	30 e0       	ldi	r19, 0x00	; 0
 164:	f9 01       	movw	r30, r18
 166:	20 81       	ld	r18, Z
 168:	2f 77       	andi	r18, 0x7F	; 127
 16a:	fc 01       	movw	r30, r24
 16c:	20 83       	st	Z, r18
		sPIDevice = ACCEL;
 16e:	82 e0       	ldi	r24, 0x02	; 2
 170:	90 e0       	ldi	r25, 0x00	; 0
 172:	90 93 a9 01 	sts	0x01A9, r25
 176:	80 93 a8 01 	sts	0x01A8, r24
		break;
 17a:	19 c0       	rjmp	.+50     	; 0x1ae <deviceSelect+0xf8>
		case MEM:
		SPCR |= ((1<<CPOL)|(1<<CPHA));
 17c:	8c e4       	ldi	r24, 0x4C	; 76
 17e:	90 e0       	ldi	r25, 0x00	; 0
 180:	2c e4       	ldi	r18, 0x4C	; 76
 182:	30 e0       	ldi	r19, 0x00	; 0
 184:	f9 01       	movw	r30, r18
 186:	20 81       	ld	r18, Z
 188:	2c 60       	ori	r18, 0x0C	; 12
 18a:	fc 01       	movw	r30, r24
 18c:	20 83       	st	Z, r18
		PORTA &= ~(1<<MEMSELECTPIN);
 18e:	82 e2       	ldi	r24, 0x22	; 34
 190:	90 e0       	ldi	r25, 0x00	; 0
 192:	22 e2       	ldi	r18, 0x22	; 34
 194:	30 e0       	ldi	r19, 0x00	; 0
 196:	f9 01       	movw	r30, r18
 198:	20 81       	ld	r18, Z
 19a:	27 7f       	andi	r18, 0xF7	; 247
 19c:	fc 01       	movw	r30, r24
 19e:	20 83       	st	Z, r18
		sPIDevice = MEM;
 1a0:	83 e0       	ldi	r24, 0x03	; 3
 1a2:	90 e0       	ldi	r25, 0x00	; 0
 1a4:	90 93 a9 01 	sts	0x01A9, r25
 1a8:	80 93 a8 01 	sts	0x01A8, r24
		break;
 1ac:	00 00       	nop
	}
}
 1ae:	0f 90       	pop	r0
 1b0:	0f 90       	pop	r0
 1b2:	df 91       	pop	r29
 1b4:	cf 91       	pop	r28
 1b6:	08 95       	ret

000001b8 <sPITradeByte>:

char sPITradeByte(char byte){
 1b8:	cf 93       	push	r28
 1ba:	df 93       	push	r29
 1bc:	00 d0       	rcall	.+0      	; 0x1be <sPITradeByte+0x6>
 1be:	cd b7       	in	r28, 0x3d	; 61
 1c0:	de b7       	in	r29, 0x3e	; 62
 1c2:	8a 83       	std	Y+2, r24	; 0x02
	SPDR = byte;
 1c4:	8e e4       	ldi	r24, 0x4E	; 78
 1c6:	90 e0       	ldi	r25, 0x00	; 0
 1c8:	2a 81       	ldd	r18, Y+2	; 0x02
 1ca:	fc 01       	movw	r30, r24
 1cc:	20 83       	st	Z, r18
	while(!(SPSR & (1<<SPIF) )){}
 1ce:	00 00       	nop
 1d0:	8d e4       	ldi	r24, 0x4D	; 77
 1d2:	90 e0       	ldi	r25, 0x00	; 0
 1d4:	fc 01       	movw	r30, r24
 1d6:	80 81       	ld	r24, Z
 1d8:	88 23       	and	r24, r24
 1da:	d4 f7       	brge	.-12     	; 0x1d0 <sPITradeByte+0x18>
	char received = SPDR;
 1dc:	8e e4       	ldi	r24, 0x4E	; 78
 1de:	90 e0       	ldi	r25, 0x00	; 0
 1e0:	fc 01       	movw	r30, r24
 1e2:	80 81       	ld	r24, Z
 1e4:	89 83       	std	Y+1, r24	; 0x01
	return received;
 1e6:	89 81       	ldd	r24, Y+1	; 0x01
}
 1e8:	0f 90       	pop	r0
 1ea:	0f 90       	pop	r0
 1ec:	df 91       	pop	r29
 1ee:	cf 91       	pop	r28
 1f0:	08 95       	ret

000001f2 <deselect>:

void deselect(void){
 1f2:	cf 93       	push	r28
 1f4:	df 93       	push	r29
 1f6:	cd b7       	in	r28, 0x3d	; 61
 1f8:	de b7       	in	r29, 0x3e	; 62
	switch(sPIDevice){
 1fa:	80 91 a8 01 	lds	r24, 0x01A8
 1fe:	90 91 a9 01 	lds	r25, 0x01A9
 202:	81 30       	cpi	r24, 0x01	; 1
 204:	91 05       	cpc	r25, r1
 206:	b9 f0       	breq	.+46     	; 0x236 <deselect+0x44>
 208:	82 30       	cpi	r24, 0x02	; 2
 20a:	91 05       	cpc	r25, r1
 20c:	1c f4       	brge	.+6      	; 0x214 <deselect+0x22>
 20e:	00 97       	sbiw	r24, 0x00	; 0
 210:	41 f0       	breq	.+16     	; 0x222 <deselect+0x30>
 212:	2f c0       	rjmp	.+94     	; 0x272 <deselect+0x80>
 214:	82 30       	cpi	r24, 0x02	; 2
 216:	91 05       	cpc	r25, r1
 218:	c1 f0       	breq	.+48     	; 0x24a <deselect+0x58>
 21a:	83 30       	cpi	r24, 0x03	; 3
 21c:	91 05       	cpc	r25, r1
 21e:	f9 f0       	breq	.+62     	; 0x25e <deselect+0x6c>
 220:	28 c0       	rjmp	.+80     	; 0x272 <deselect+0x80>
		case RADIO:
		PORTA |= (1<<RADIOSELECTPIN);
 222:	82 e2       	ldi	r24, 0x22	; 34
 224:	90 e0       	ldi	r25, 0x00	; 0
 226:	22 e2       	ldi	r18, 0x22	; 34
 228:	30 e0       	ldi	r19, 0x00	; 0
 22a:	f9 01       	movw	r30, r18
 22c:	20 81       	ld	r18, Z
 22e:	20 64       	ori	r18, 0x40	; 64
 230:	fc 01       	movw	r30, r24
 232:	20 83       	st	Z, r18
		break;
 234:	1e c0       	rjmp	.+60     	; 0x272 <deselect+0x80>
		case GYRO:
		PORTA |= (1<<GYROSELECTPIN);
 236:	82 e2       	ldi	r24, 0x22	; 34
 238:	90 e0       	ldi	r25, 0x00	; 0
 23a:	22 e2       	ldi	r18, 0x22	; 34
 23c:	30 e0       	ldi	r19, 0x00	; 0
 23e:	f9 01       	movw	r30, r18
 240:	20 81       	ld	r18, Z
 242:	20 64       	ori	r18, 0x40	; 64
 244:	fc 01       	movw	r30, r24
 246:	20 83       	st	Z, r18
		break;
 248:	14 c0       	rjmp	.+40     	; 0x272 <deselect+0x80>
		case ACCEL:
		PORTA |= (1<<ACCELSELECTPIN);
 24a:	82 e2       	ldi	r24, 0x22	; 34
 24c:	90 e0       	ldi	r25, 0x00	; 0
 24e:	22 e2       	ldi	r18, 0x22	; 34
 250:	30 e0       	ldi	r19, 0x00	; 0
 252:	f9 01       	movw	r30, r18
 254:	20 81       	ld	r18, Z
 256:	20 68       	ori	r18, 0x80	; 128
 258:	fc 01       	movw	r30, r24
 25a:	20 83       	st	Z, r18
		break;
 25c:	0a c0       	rjmp	.+20     	; 0x272 <deselect+0x80>
		case MEM:
		PORTA |= (1<<MEMSELECTPIN);
 25e:	82 e2       	ldi	r24, 0x22	; 34
 260:	90 e0       	ldi	r25, 0x00	; 0
 262:	22 e2       	ldi	r18, 0x22	; 34
 264:	30 e0       	ldi	r19, 0x00	; 0
 266:	f9 01       	movw	r30, r18
 268:	20 81       	ld	r18, Z
 26a:	28 60       	ori	r18, 0x08	; 8
 26c:	fc 01       	movw	r30, r24
 26e:	20 83       	st	Z, r18
		break;
 270:	00 00       	nop
	}
}
 272:	df 91       	pop	r29
 274:	cf 91       	pop	r28
 276:	08 95       	ret

00000278 <gyroGetData>:
#define increment	 		0x40
#define noIncrement			0x00


//Fills a supplied array with gyro data, starting at the given index number
void gyroGetData(char output[], int index){
 278:	0f 93       	push	r16
 27a:	1f 93       	push	r17
 27c:	cf 93       	push	r28
 27e:	df 93       	push	r29
 280:	00 d0       	rcall	.+0      	; 0x282 <gyroGetData+0xa>
 282:	00 d0       	rcall	.+0      	; 0x284 <gyroGetData+0xc>
 284:	1f 92       	push	r1
 286:	cd b7       	in	r28, 0x3d	; 61
 288:	de b7       	in	r29, 0x3e	; 62
 28a:	9b 83       	std	Y+3, r25	; 0x03
 28c:	8a 83       	std	Y+2, r24	; 0x02
 28e:	7d 83       	std	Y+5, r23	; 0x05
 290:	6c 83       	std	Y+4, r22	; 0x04
	deviceSelect(GYRO);
 292:	81 e0       	ldi	r24, 0x01	; 1
 294:	90 e0       	ldi	r25, 0x00	; 0
 296:	0f df       	rcall	.-482    	; 0xb6 <deviceSelect>
	char toSend = GYRO_OUT_X_L | increment | gyroRead;
 298:	88 ee       	ldi	r24, 0xE8	; 232
 29a:	89 83       	std	Y+1, r24	; 0x01
	sPITradeByte(toSend);							//Address of Xlow register, w/autoincrement
 29c:	89 81       	ldd	r24, Y+1	; 0x01
 29e:	8c df       	rcall	.-232    	; 0x1b8 <sPITradeByte>
	output[0+index] = sPITradeByte(0);				//get first byte of data
 2a0:	8c 81       	ldd	r24, Y+4	; 0x04
 2a2:	9d 81       	ldd	r25, Y+5	; 0x05
 2a4:	2a 81       	ldd	r18, Y+2	; 0x02
 2a6:	3b 81       	ldd	r19, Y+3	; 0x03
 2a8:	89 01       	movw	r16, r18
 2aa:	08 0f       	add	r16, r24
 2ac:	19 1f       	adc	r17, r25
 2ae:	80 e0       	ldi	r24, 0x00	; 0
 2b0:	83 df       	rcall	.-250    	; 0x1b8 <sPITradeByte>
 2b2:	f8 01       	movw	r30, r16
 2b4:	80 83       	st	Z, r24
	output[1+index] = sPITradeByte(0);				//etc...
 2b6:	8c 81       	ldd	r24, Y+4	; 0x04
 2b8:	9d 81       	ldd	r25, Y+5	; 0x05
 2ba:	01 96       	adiw	r24, 0x01	; 1
 2bc:	2a 81       	ldd	r18, Y+2	; 0x02
 2be:	3b 81       	ldd	r19, Y+3	; 0x03
 2c0:	89 01       	movw	r16, r18
 2c2:	08 0f       	add	r16, r24
 2c4:	19 1f       	adc	r17, r25
 2c6:	80 e0       	ldi	r24, 0x00	; 0
 2c8:	77 df       	rcall	.-274    	; 0x1b8 <sPITradeByte>
 2ca:	f8 01       	movw	r30, r16
 2cc:	80 83       	st	Z, r24
	output[2+index] = sPITradeByte(0);
 2ce:	8c 81       	ldd	r24, Y+4	; 0x04
 2d0:	9d 81       	ldd	r25, Y+5	; 0x05
 2d2:	02 96       	adiw	r24, 0x02	; 2
 2d4:	2a 81       	ldd	r18, Y+2	; 0x02
 2d6:	3b 81       	ldd	r19, Y+3	; 0x03
 2d8:	89 01       	movw	r16, r18
 2da:	08 0f       	add	r16, r24
 2dc:	19 1f       	adc	r17, r25
 2de:	80 e0       	ldi	r24, 0x00	; 0
 2e0:	6b df       	rcall	.-298    	; 0x1b8 <sPITradeByte>
 2e2:	f8 01       	movw	r30, r16
 2e4:	80 83       	st	Z, r24
	output[3+index] = sPITradeByte(0);
 2e6:	8c 81       	ldd	r24, Y+4	; 0x04
 2e8:	9d 81       	ldd	r25, Y+5	; 0x05
 2ea:	03 96       	adiw	r24, 0x03	; 3
 2ec:	2a 81       	ldd	r18, Y+2	; 0x02
 2ee:	3b 81       	ldd	r19, Y+3	; 0x03
 2f0:	89 01       	movw	r16, r18
 2f2:	08 0f       	add	r16, r24
 2f4:	19 1f       	adc	r17, r25
 2f6:	80 e0       	ldi	r24, 0x00	; 0
 2f8:	5f df       	rcall	.-322    	; 0x1b8 <sPITradeByte>
 2fa:	f8 01       	movw	r30, r16
 2fc:	80 83       	st	Z, r24
	output[4+index] = sPITradeByte(0);
 2fe:	8c 81       	ldd	r24, Y+4	; 0x04
 300:	9d 81       	ldd	r25, Y+5	; 0x05
 302:	04 96       	adiw	r24, 0x04	; 4
 304:	2a 81       	ldd	r18, Y+2	; 0x02
 306:	3b 81       	ldd	r19, Y+3	; 0x03
 308:	89 01       	movw	r16, r18
 30a:	08 0f       	add	r16, r24
 30c:	19 1f       	adc	r17, r25
 30e:	80 e0       	ldi	r24, 0x00	; 0
 310:	53 df       	rcall	.-346    	; 0x1b8 <sPITradeByte>
 312:	f8 01       	movw	r30, r16
 314:	80 83       	st	Z, r24
	output[5+index] = sPITradeByte(0);
 316:	8c 81       	ldd	r24, Y+4	; 0x04
 318:	9d 81       	ldd	r25, Y+5	; 0x05
 31a:	05 96       	adiw	r24, 0x05	; 5
 31c:	2a 81       	ldd	r18, Y+2	; 0x02
 31e:	3b 81       	ldd	r19, Y+3	; 0x03
 320:	89 01       	movw	r16, r18
 322:	08 0f       	add	r16, r24
 324:	19 1f       	adc	r17, r25
 326:	80 e0       	ldi	r24, 0x00	; 0
 328:	47 df       	rcall	.-370    	; 0x1b8 <sPITradeByte>
 32a:	f8 01       	movw	r30, r16
 32c:	80 83       	st	Z, r24
	deselect();
 32e:	61 df       	rcall	.-318    	; 0x1f2 <deselect>
	}
 330:	0f 90       	pop	r0
 332:	0f 90       	pop	r0
 334:	0f 90       	pop	r0
 336:	0f 90       	pop	r0
 338:	0f 90       	pop	r0
 33a:	df 91       	pop	r29
 33c:	cf 91       	pop	r28
 33e:	1f 91       	pop	r17
 340:	0f 91       	pop	r16
 342:	08 95       	ret

00000344 <gyroWriteReg>:
	gyroTemp = sPITradeByte(0);
	deselect();
	return gyroTemp;
	}

void gyroWriteReg(char address, char data){
 344:	cf 93       	push	r28
 346:	df 93       	push	r29
 348:	00 d0       	rcall	.+0      	; 0x34a <gyroWriteReg+0x6>
 34a:	cd b7       	in	r28, 0x3d	; 61
 34c:	de b7       	in	r29, 0x3e	; 62
 34e:	89 83       	std	Y+1, r24	; 0x01
 350:	6a 83       	std	Y+2, r22	; 0x02
	address |= gyroWrite;
	deviceSelect(GYRO);
 352:	81 e0       	ldi	r24, 0x01	; 1
 354:	90 e0       	ldi	r25, 0x00	; 0
 356:	af de       	rcall	.-674    	; 0xb6 <deviceSelect>
	sPITradeByte(address);
 358:	89 81       	ldd	r24, Y+1	; 0x01
 35a:	2e df       	rcall	.-420    	; 0x1b8 <sPITradeByte>
	sPITradeByte(data);
 35c:	8a 81       	ldd	r24, Y+2	; 0x02
 35e:	2c df       	rcall	.-424    	; 0x1b8 <sPITradeByte>
	deselect();
 360:	48 df       	rcall	.-368    	; 0x1f2 <deselect>
}
 362:	0f 90       	pop	r0
 364:	0f 90       	pop	r0
 366:	df 91       	pop	r29
 368:	cf 91       	pop	r28
 36a:	08 95       	ret

0000036c <gyroInitialize>:

void gyroInitialize(void){
 36c:	cf 93       	push	r28
 36e:	df 93       	push	r29
 370:	cd b7       	in	r28, 0x3d	; 61
 372:	de b7       	in	r29, 0x3e	; 62
 374:	60 97       	sbiw	r28, 0x10	; 16
 376:	0f b6       	in	r0, 0x3f	; 63
 378:	f8 94       	cli
 37a:	de bf       	out	0x3e, r29	; 62
 37c:	0f be       	out	0x3f, r0	; 63
 37e:	cd bf       	out	0x3d, r28	; 61
	DDRB &= ~(1<<gyroDataReadyPin);	//Connected to INT2 of Gyro, configured as input
 380:	84 e2       	ldi	r24, 0x24	; 36
 382:	90 e0       	ldi	r25, 0x00	; 0
 384:	24 e2       	ldi	r18, 0x24	; 36
 386:	30 e0       	ldi	r19, 0x00	; 0
 388:	f9 01       	movw	r30, r18
 38a:	20 81       	ld	r18, Z
 38c:	2d 7f       	andi	r18, 0xFD	; 253
 38e:	fc 01       	movw	r30, r24
 390:	20 83       	st	Z, r18
	char gyroParams [] [2] = {
 392:	8e e0       	ldi	r24, 0x0E	; 14
 394:	e0 e0       	ldi	r30, 0x00	; 0
 396:	f1 e0       	ldi	r31, 0x01	; 1
 398:	de 01       	movw	r26, r28
 39a:	13 96       	adiw	r26, 0x03	; 3
 39c:	01 90       	ld	r0, Z+
 39e:	0d 92       	st	X+, r0
 3a0:	8a 95       	dec	r24
 3a2:	e1 f7       	brne	.-8      	; 0x39c <gyroInitialize+0x30>
		{ GYRO_CTRL_REG5, (1<<GYRO_FIFO_EN) },
		{ GYRO_FIFO_CTRL_REG, (1<<GYRO_FM1)|(1<<GYRO_WTM0) }, //Stream Mode, FIFO not empty interrupt threshold
		{ 255,0}
	};

	for(int i=0; gyroParams[i][0] != 255; i++){
 3a4:	1a 82       	std	Y+2, r1	; 0x02
 3a6:	19 82       	std	Y+1, r1	; 0x01
 3a8:	1f c0       	rjmp	.+62     	; 0x3e8 <gyroInitialize+0x7c>
		gyroWriteReg(gyroParams[i][0], gyroParams[i][1]);
 3aa:	89 81       	ldd	r24, Y+1	; 0x01
 3ac:	9a 81       	ldd	r25, Y+2	; 0x02
 3ae:	88 0f       	add	r24, r24
 3b0:	99 1f       	adc	r25, r25
 3b2:	9e 01       	movw	r18, r28
 3b4:	2f 5f       	subi	r18, 0xFF	; 255
 3b6:	3f 4f       	sbci	r19, 0xFF	; 255
 3b8:	82 0f       	add	r24, r18
 3ba:	93 1f       	adc	r25, r19
 3bc:	03 96       	adiw	r24, 0x03	; 3
 3be:	fc 01       	movw	r30, r24
 3c0:	40 81       	ld	r20, Z
 3c2:	89 81       	ldd	r24, Y+1	; 0x01
 3c4:	9a 81       	ldd	r25, Y+2	; 0x02
 3c6:	88 0f       	add	r24, r24
 3c8:	99 1f       	adc	r25, r25
 3ca:	9e 01       	movw	r18, r28
 3cc:	2f 5f       	subi	r18, 0xFF	; 255
 3ce:	3f 4f       	sbci	r19, 0xFF	; 255
 3d0:	82 0f       	add	r24, r18
 3d2:	93 1f       	adc	r25, r19
 3d4:	02 96       	adiw	r24, 0x02	; 2
 3d6:	fc 01       	movw	r30, r24
 3d8:	80 81       	ld	r24, Z
 3da:	64 2f       	mov	r22, r20
 3dc:	b3 df       	rcall	.-154    	; 0x344 <gyroWriteReg>
		{ GYRO_CTRL_REG5, (1<<GYRO_FIFO_EN) },
		{ GYRO_FIFO_CTRL_REG, (1<<GYRO_FM1)|(1<<GYRO_WTM0) }, //Stream Mode, FIFO not empty interrupt threshold
		{ 255,0}
	};

	for(int i=0; gyroParams[i][0] != 255; i++){
 3de:	89 81       	ldd	r24, Y+1	; 0x01
 3e0:	9a 81       	ldd	r25, Y+2	; 0x02
 3e2:	01 96       	adiw	r24, 0x01	; 1
 3e4:	9a 83       	std	Y+2, r25	; 0x02
 3e6:	89 83       	std	Y+1, r24	; 0x01
 3e8:	89 81       	ldd	r24, Y+1	; 0x01
 3ea:	9a 81       	ldd	r25, Y+2	; 0x02
 3ec:	88 0f       	add	r24, r24
 3ee:	99 1f       	adc	r25, r25
 3f0:	9e 01       	movw	r18, r28
 3f2:	2f 5f       	subi	r18, 0xFF	; 255
 3f4:	3f 4f       	sbci	r19, 0xFF	; 255
 3f6:	82 0f       	add	r24, r18
 3f8:	93 1f       	adc	r25, r19
 3fa:	02 96       	adiw	r24, 0x02	; 2
 3fc:	fc 01       	movw	r30, r24
 3fe:	80 81       	ld	r24, Z
 400:	8f 3f       	cpi	r24, 0xFF	; 255
 402:	99 f6       	brne	.-90     	; 0x3aa <gyroInitialize+0x3e>
		gyroWriteReg(gyroParams[i][0], gyroParams[i][1]);
	}

}
 404:	60 96       	adiw	r28, 0x10	; 16
 406:	0f b6       	in	r0, 0x3f	; 63
 408:	f8 94       	cli
 40a:	de bf       	out	0x3e, r29	; 62
 40c:	0f be       	out	0x3f, r0	; 63
 40e:	cd bf       	out	0x3d, r28	; 61
 410:	df 91       	pop	r29
 412:	cf 91       	pop	r28
 414:	08 95       	ret

00000416 <gyroReadReg>:

char gyroReadReg(char address){
 416:	cf 93       	push	r28
 418:	df 93       	push	r29
 41a:	00 d0       	rcall	.+0      	; 0x41c <gyroReadReg+0x6>
 41c:	cd b7       	in	r28, 0x3d	; 61
 41e:	de b7       	in	r29, 0x3e	; 62
 420:	8a 83       	std	Y+2, r24	; 0x02
	address |= gyroRead;
 422:	8a 81       	ldd	r24, Y+2	; 0x02
 424:	80 68       	ori	r24, 0x80	; 128
 426:	8a 83       	std	Y+2, r24	; 0x02
	deviceSelect(GYRO);
 428:	81 e0       	ldi	r24, 0x01	; 1
 42a:	90 e0       	ldi	r25, 0x00	; 0
 42c:	44 de       	rcall	.-888    	; 0xb6 <deviceSelect>
	sPITradeByte(address);
 42e:	8a 81       	ldd	r24, Y+2	; 0x02
 430:	c3 de       	rcall	.-634    	; 0x1b8 <sPITradeByte>
	char contents = sPITradeByte(0x00);
 432:	80 e0       	ldi	r24, 0x00	; 0
 434:	c1 de       	rcall	.-638    	; 0x1b8 <sPITradeByte>
 436:	89 83       	std	Y+1, r24	; 0x01
	deselect();
 438:	dc de       	rcall	.-584    	; 0x1f2 <deselect>
	return contents;
 43a:	89 81       	ldd	r24, Y+1	; 0x01
}
 43c:	0f 90       	pop	r0
 43e:	0f 90       	pop	r0
 440:	df 91       	pop	r29
 442:	cf 91       	pop	r28
 444:	08 95       	ret

00000446 <gyroDataReady>:
	gyroState &= 0xF0;
	gyroState |= 0x0F;
	gyroWriteReg(GYRO_CTRL_REG1, gyroState);
}

char gyroDataReady(void){
 446:	cf 93       	push	r28
 448:	df 93       	push	r29
 44a:	cd b7       	in	r28, 0x3d	; 61
 44c:	de b7       	in	r29, 0x3e	; 62
	if(PINB&(1<<gyroDataReadyPin)){
 44e:	83 e2       	ldi	r24, 0x23	; 35
 450:	90 e0       	ldi	r25, 0x00	; 0
 452:	fc 01       	movw	r30, r24
 454:	80 81       	ld	r24, Z
 456:	88 2f       	mov	r24, r24
 458:	90 e0       	ldi	r25, 0x00	; 0
 45a:	82 70       	andi	r24, 0x02	; 2
 45c:	99 27       	eor	r25, r25
 45e:	00 97       	sbiw	r24, 0x00	; 0
 460:	11 f0       	breq	.+4      	; 0x466 <gyroDataReady+0x20>
		return 1;
 462:	81 e0       	ldi	r24, 0x01	; 1
 464:	01 c0       	rjmp	.+2      	; 0x468 <gyroDataReady+0x22>
	}
	else{return 0;}
 466:	80 e0       	ldi	r24, 0x00	; 0
 468:	df 91       	pop	r29
 46a:	cf 91       	pop	r28
 46c:	08 95       	ret

0000046e <uARTStart>:
void uARTStart(void);
void writeUart(char toSend);
void uartString(char toSend[], char bytes);
void uartReverse(char toSend[], char bytes);

void uARTStart(void){
 46e:	cf 93       	push	r28
 470:	df 93       	push	r29
 472:	cd b7       	in	r28, 0x3d	; 61
 474:	de b7       	in	r29, 0x3e	; 62
DDRA |= (1<<1);
 476:	81 e2       	ldi	r24, 0x21	; 33
 478:	90 e0       	ldi	r25, 0x00	; 0
 47a:	21 e2       	ldi	r18, 0x21	; 33
 47c:	30 e0       	ldi	r19, 0x00	; 0
 47e:	f9 01       	movw	r30, r18
 480:	20 81       	ld	r18, Z
 482:	22 60       	ori	r18, 0x02	; 2
 484:	fc 01       	movw	r30, r24
 486:	20 83       	st	Z, r18
LINCR = 0x00;
 488:	88 ec       	ldi	r24, 0xC8	; 200
 48a:	90 e0       	ldi	r25, 0x00	; 0
 48c:	fc 01       	movw	r30, r24
 48e:	10 82       	st	Z, r1
LINBTR = (1<<LDISR)|(1<<LBT5)|(1<<LBT1)|(1<<LBT0);
 490:	8c ec       	ldi	r24, 0xCC	; 204
 492:	90 e0       	ldi	r25, 0x00	; 0
 494:	23 ea       	ldi	r18, 0xA3	; 163
 496:	fc 01       	movw	r30, r24
 498:	20 83       	st	Z, r18
LINBRRH = 0x00;
 49a:	8e ec       	ldi	r24, 0xCE	; 206
 49c:	90 e0       	ldi	r25, 0x00	; 0
 49e:	fc 01       	movw	r30, r24
 4a0:	10 82       	st	Z, r1
LINBRRL = (1<<LDIV0);		//35 samples/bit, (1+1) clk cycles per sample, 8 MHz clock, 115200 b/s
 4a2:	8d ec       	ldi	r24, 0xCD	; 205
 4a4:	90 e0       	ldi	r25, 0x00	; 0
 4a6:	21 e0       	ldi	r18, 0x01	; 1
 4a8:	fc 01       	movw	r30, r24
 4aa:	20 83       	st	Z, r18
LINENIR = (1<<LENTXOK);
 4ac:	8a ec       	ldi	r24, 0xCA	; 202
 4ae:	90 e0       	ldi	r25, 0x00	; 0
 4b0:	22 e0       	ldi	r18, 0x02	; 2
 4b2:	fc 01       	movw	r30, r24
 4b4:	20 83       	st	Z, r18
LINCR = (1<<LENA)|(1<<LCMD2)|(1<<LCMD0);
 4b6:	88 ec       	ldi	r24, 0xC8	; 200
 4b8:	90 e0       	ldi	r25, 0x00	; 0
 4ba:	2d e0       	ldi	r18, 0x0D	; 13
 4bc:	fc 01       	movw	r30, r24
 4be:	20 83       	st	Z, r18
}
 4c0:	df 91       	pop	r29
 4c2:	cf 91       	pop	r28
 4c4:	08 95       	ret

000004c6 <writeUart>:

void writeUart(char toSend){
 4c6:	cf 93       	push	r28
 4c8:	df 93       	push	r29
 4ca:	1f 92       	push	r1
 4cc:	cd b7       	in	r28, 0x3d	; 61
 4ce:	de b7       	in	r29, 0x3e	; 62
 4d0:	89 83       	std	Y+1, r24	; 0x01
	while(LINSIR&(1<<LBUSY)){}
 4d2:	00 00       	nop
 4d4:	89 ec       	ldi	r24, 0xC9	; 201
 4d6:	90 e0       	ldi	r25, 0x00	; 0
 4d8:	fc 01       	movw	r30, r24
 4da:	80 81       	ld	r24, Z
 4dc:	88 2f       	mov	r24, r24
 4de:	90 e0       	ldi	r25, 0x00	; 0
 4e0:	80 71       	andi	r24, 0x10	; 16
 4e2:	99 27       	eor	r25, r25
 4e4:	00 97       	sbiw	r24, 0x00	; 0
 4e6:	b1 f7       	brne	.-20     	; 0x4d4 <writeUart+0xe>
	LINDAT = toSend;
 4e8:	82 ed       	ldi	r24, 0xD2	; 210
 4ea:	90 e0       	ldi	r25, 0x00	; 0
 4ec:	29 81       	ldd	r18, Y+1	; 0x01
 4ee:	fc 01       	movw	r30, r24
 4f0:	20 83       	st	Z, r18
	while(LINSIR&(1<<LTXOK)){}
 4f2:	00 00       	nop
 4f4:	89 ec       	ldi	r24, 0xC9	; 201
 4f6:	90 e0       	ldi	r25, 0x00	; 0
 4f8:	fc 01       	movw	r30, r24
 4fa:	80 81       	ld	r24, Z
 4fc:	88 2f       	mov	r24, r24
 4fe:	90 e0       	ldi	r25, 0x00	; 0
 500:	82 70       	andi	r24, 0x02	; 2
 502:	99 27       	eor	r25, r25
 504:	00 97       	sbiw	r24, 0x00	; 0
 506:	b1 f7       	brne	.-20     	; 0x4f4 <writeUart+0x2e>
}
 508:	0f 90       	pop	r0
 50a:	df 91       	pop	r29
 50c:	cf 91       	pop	r28
 50e:	08 95       	ret

00000510 <uartString>:

void uartString(char toSend[], char bytes){
 510:	cf 93       	push	r28
 512:	df 93       	push	r29
 514:	00 d0       	rcall	.+0      	; 0x516 <uartString+0x6>
 516:	00 d0       	rcall	.+0      	; 0x518 <uartString+0x8>
 518:	1f 92       	push	r1
 51a:	cd b7       	in	r28, 0x3d	; 61
 51c:	de b7       	in	r29, 0x3e	; 62
 51e:	9c 83       	std	Y+4, r25	; 0x04
 520:	8b 83       	std	Y+3, r24	; 0x03
 522:	6d 83       	std	Y+5, r22	; 0x05
	for(int p=0; p<bytes; p++){
 524:	1a 82       	std	Y+2, r1	; 0x02
 526:	19 82       	std	Y+1, r1	; 0x01
 528:	0e c0       	rjmp	.+28     	; 0x546 <uartString+0x36>
		writeUart(toSend[p]);
 52a:	89 81       	ldd	r24, Y+1	; 0x01
 52c:	9a 81       	ldd	r25, Y+2	; 0x02
 52e:	2b 81       	ldd	r18, Y+3	; 0x03
 530:	3c 81       	ldd	r19, Y+4	; 0x04
 532:	82 0f       	add	r24, r18
 534:	93 1f       	adc	r25, r19
 536:	fc 01       	movw	r30, r24
 538:	80 81       	ld	r24, Z
 53a:	c5 df       	rcall	.-118    	; 0x4c6 <writeUart>
	LINDAT = toSend;
	while(LINSIR&(1<<LTXOK)){}
}

void uartString(char toSend[], char bytes){
	for(int p=0; p<bytes; p++){
 53c:	89 81       	ldd	r24, Y+1	; 0x01
 53e:	9a 81       	ldd	r25, Y+2	; 0x02
 540:	01 96       	adiw	r24, 0x01	; 1
 542:	9a 83       	std	Y+2, r25	; 0x02
 544:	89 83       	std	Y+1, r24	; 0x01
 546:	8d 81       	ldd	r24, Y+5	; 0x05
 548:	28 2f       	mov	r18, r24
 54a:	30 e0       	ldi	r19, 0x00	; 0
 54c:	89 81       	ldd	r24, Y+1	; 0x01
 54e:	9a 81       	ldd	r25, Y+2	; 0x02
 550:	82 17       	cp	r24, r18
 552:	93 07       	cpc	r25, r19
 554:	54 f3       	brlt	.-44     	; 0x52a <uartString+0x1a>
		writeUart(toSend[p]);
	}
}
 556:	0f 90       	pop	r0
 558:	0f 90       	pop	r0
 55a:	0f 90       	pop	r0
 55c:	0f 90       	pop	r0
 55e:	0f 90       	pop	r0
 560:	df 91       	pop	r29
 562:	cf 91       	pop	r28
 564:	08 95       	ret

00000566 <uartReverse>:

void uartReverse(char toSend[], char bytes){
 566:	cf 93       	push	r28
 568:	df 93       	push	r29
 56a:	00 d0       	rcall	.+0      	; 0x56c <uartReverse+0x6>
 56c:	00 d0       	rcall	.+0      	; 0x56e <uartReverse+0x8>
 56e:	1f 92       	push	r1
 570:	cd b7       	in	r28, 0x3d	; 61
 572:	de b7       	in	r29, 0x3e	; 62
 574:	9c 83       	std	Y+4, r25	; 0x04
 576:	8b 83       	std	Y+3, r24	; 0x03
 578:	6d 83       	std	Y+5, r22	; 0x05
	for(int p=(bytes-1);p>=0;p--){
 57a:	8d 81       	ldd	r24, Y+5	; 0x05
 57c:	88 2f       	mov	r24, r24
 57e:	90 e0       	ldi	r25, 0x00	; 0
 580:	01 97       	sbiw	r24, 0x01	; 1
 582:	9a 83       	std	Y+2, r25	; 0x02
 584:	89 83       	std	Y+1, r24	; 0x01
 586:	0e c0       	rjmp	.+28     	; 0x5a4 <uartReverse+0x3e>
		writeUart(toSend[p]);
 588:	89 81       	ldd	r24, Y+1	; 0x01
 58a:	9a 81       	ldd	r25, Y+2	; 0x02
 58c:	2b 81       	ldd	r18, Y+3	; 0x03
 58e:	3c 81       	ldd	r19, Y+4	; 0x04
 590:	82 0f       	add	r24, r18
 592:	93 1f       	adc	r25, r19
 594:	fc 01       	movw	r30, r24
 596:	80 81       	ld	r24, Z
 598:	96 df       	rcall	.-212    	; 0x4c6 <writeUart>
		writeUart(toSend[p]);
	}
}

void uartReverse(char toSend[], char bytes){
	for(int p=(bytes-1);p>=0;p--){
 59a:	89 81       	ldd	r24, Y+1	; 0x01
 59c:	9a 81       	ldd	r25, Y+2	; 0x02
 59e:	01 97       	sbiw	r24, 0x01	; 1
 5a0:	9a 83       	std	Y+2, r25	; 0x02
 5a2:	89 83       	std	Y+1, r24	; 0x01
 5a4:	89 81       	ldd	r24, Y+1	; 0x01
 5a6:	9a 81       	ldd	r25, Y+2	; 0x02
 5a8:	99 23       	and	r25, r25
 5aa:	74 f7       	brge	.-36     	; 0x588 <uartReverse+0x22>
		writeUart(toSend[p]);
	}
 5ac:	0f 90       	pop	r0
 5ae:	0f 90       	pop	r0
 5b0:	0f 90       	pop	r0
 5b2:	0f 90       	pop	r0
 5b4:	0f 90       	pop	r0
 5b6:	df 91       	pop	r29
 5b8:	cf 91       	pop	r28
 5ba:	08 95       	ret

000005bc <main>:
char neg = 0;
int count = 0;


int main(void)
{
 5bc:	ef 92       	push	r14
 5be:	ff 92       	push	r15
 5c0:	0f 93       	push	r16
 5c2:	1f 93       	push	r17
 5c4:	cf 93       	push	r28
 5c6:	df 93       	push	r29
 5c8:	cd b7       	in	r28, 0x3d	; 61
 5ca:	de b7       	in	r29, 0x3e	; 62
 5cc:	c6 58       	subi	r28, 0x86	; 134
 5ce:	d1 09       	sbc	r29, r1
 5d0:	0f b6       	in	r0, 0x3f	; 63
 5d2:	f8 94       	cli
 5d4:	de bf       	out	0x3e, r29	; 62
 5d6:	0f be       	out	0x3f, r0	; 63
 5d8:	cd bf       	out	0x3d, r28	; 61
	startSPI();
 5da:	42 dd       	rcall	.-1404   	; 0x60 <startSPI>
	initSysTime();
 5dc:	40 d4       	rcall	.+2176   	; 0xe5e <initSysTime>
	delay(100);
 5de:	64 e6       	ldi	r22, 0x64	; 100
 5e0:	70 e0       	ldi	r23, 0x00	; 0
 5e2:	80 e0       	ldi	r24, 0x00	; 0
 5e4:	90 e0       	ldi	r25, 0x00	; 0
 5e6:	fc d3       	rcall	.+2040   	; 0xde0 <delay>
	uARTStart();
 5e8:	42 df       	rcall	.-380    	; 0x46e <uARTStart>
	delay(100);
 5ea:	64 e6       	ldi	r22, 0x64	; 100
 5ec:	70 e0       	ldi	r23, 0x00	; 0
 5ee:	80 e0       	ldi	r24, 0x00	; 0
 5f0:	90 e0       	ldi	r25, 0x00	; 0
 5f2:	f6 d3       	rcall	.+2028   	; 0xde0 <delay>
	uartString("UART READY...\n\r",sizeof("UART READY...\n\r"));
 5f4:	60 e1       	ldi	r22, 0x10	; 16
 5f6:	8e e0       	ldi	r24, 0x0E	; 14
 5f8:	91 e0       	ldi	r25, 0x01	; 1
 5fa:	8a df       	rcall	.-236    	; 0x510 <uartString>
	gyroInitialize();
 5fc:	b7 de       	rcall	.-658    	; 0x36c <gyroInitialize>
	delay(1000);
 5fe:	68 ee       	ldi	r22, 0xE8	; 232
 600:	73 e0       	ldi	r23, 0x03	; 3
 602:	80 e0       	ldi	r24, 0x00	; 0
 604:	90 e0       	ldi	r25, 0x00	; 0
 606:	ec d3       	rcall	.+2008   	; 0xde0 <delay>
	uartString("GYRO INITIALIZED...\n\r",sizeof("GYRO INITIALIZED...\n\r"));
 608:	66 e1       	ldi	r22, 0x16	; 22
 60a:	8e e1       	ldi	r24, 0x1E	; 30
 60c:	91 e0       	ldi	r25, 0x01	; 1
 60e:	80 df       	rcall	.-256    	; 0x510 <uartString>
	char deviceTest =  gyroReadReg(GYRO_WHO_AM_I);
 610:	8f e0       	ldi	r24, 0x0F	; 15
 612:	01 df       	rcall	.-510    	; 0x416 <gyroReadReg>
 614:	89 83       	std	Y+1, r24	; 0x01
	char devID[8] = "ATAD ON";
 616:	88 e0       	ldi	r24, 0x08	; 8
 618:	ec e8       	ldi	r30, 0x8C	; 140
 61a:	f1 e0       	ldi	r31, 0x01	; 1
 61c:	de 01       	movw	r26, r28
 61e:	9a 96       	adiw	r26, 0x2a	; 42
 620:	01 90       	ld	r0, Z+
 622:	0d 92       	st	X+, r0
 624:	8a 95       	dec	r24
 626:	e1 f7       	brne	.-8      	; 0x620 <main+0x64>
	for(int i=0; deviceTest!=0; i++){
 628:	1b 82       	std	Y+3, r1	; 0x03
 62a:	1a 82       	std	Y+2, r1	; 0x02
 62c:	21 c0       	rjmp	.+66     	; 0x670 <main+0xb4>
		if((deviceTest%2)!=0){
 62e:	89 81       	ldd	r24, Y+1	; 0x01
 630:	81 70       	andi	r24, 0x01	; 1
 632:	88 23       	and	r24, r24
 634:	59 f0       	breq	.+22     	; 0x64c <main+0x90>
			devID[i] = '1';
 636:	9e 01       	movw	r18, r28
 638:	26 5d       	subi	r18, 0xD6	; 214
 63a:	3f 4f       	sbci	r19, 0xFF	; 255
 63c:	8a 81       	ldd	r24, Y+2	; 0x02
 63e:	9b 81       	ldd	r25, Y+3	; 0x03
 640:	82 0f       	add	r24, r18
 642:	93 1f       	adc	r25, r19
 644:	21 e3       	ldi	r18, 0x31	; 49
 646:	fc 01       	movw	r30, r24
 648:	20 83       	st	Z, r18
 64a:	0a c0       	rjmp	.+20     	; 0x660 <main+0xa4>
			}else{devID[i] = '0';}
 64c:	9e 01       	movw	r18, r28
 64e:	26 5d       	subi	r18, 0xD6	; 214
 650:	3f 4f       	sbci	r19, 0xFF	; 255
 652:	8a 81       	ldd	r24, Y+2	; 0x02
 654:	9b 81       	ldd	r25, Y+3	; 0x03
 656:	82 0f       	add	r24, r18
 658:	93 1f       	adc	r25, r19
 65a:	20 e3       	ldi	r18, 0x30	; 48
 65c:	fc 01       	movw	r30, r24
 65e:	20 83       	st	Z, r18
			deviceTest = deviceTest/2;
 660:	89 81       	ldd	r24, Y+1	; 0x01
 662:	86 95       	lsr	r24
 664:	89 83       	std	Y+1, r24	; 0x01
	gyroInitialize();
	delay(1000);
	uartString("GYRO INITIALIZED...\n\r",sizeof("GYRO INITIALIZED...\n\r"));
	char deviceTest =  gyroReadReg(GYRO_WHO_AM_I);
	char devID[8] = "ATAD ON";
	for(int i=0; deviceTest!=0; i++){
 666:	8a 81       	ldd	r24, Y+2	; 0x02
 668:	9b 81       	ldd	r25, Y+3	; 0x03
 66a:	01 96       	adiw	r24, 0x01	; 1
 66c:	9b 83       	std	Y+3, r25	; 0x03
 66e:	8a 83       	std	Y+2, r24	; 0x02
 670:	89 81       	ldd	r24, Y+1	; 0x01
 672:	88 23       	and	r24, r24
 674:	e1 f6       	brne	.-72     	; 0x62e <main+0x72>
		if((deviceTest%2)!=0){
			devID[i] = '1';
			}else{devID[i] = '0';}
			deviceTest = deviceTest/2;
		}
		uartString("GYROSCOPE DEVICE ID:\n\r",sizeof("GYROSCOPE DEVICE ID:\n\r"));
 676:	67 e1       	ldi	r22, 0x17	; 23
 678:	84 e3       	ldi	r24, 0x34	; 52
 67a:	91 e0       	ldi	r25, 0x01	; 1
 67c:	49 df       	rcall	.-366    	; 0x510 <uartString>
		uartReverse(devID, sizeof(devID));
 67e:	ce 01       	movw	r24, r28
 680:	8a 96       	adiw	r24, 0x2a	; 42
 682:	68 e0       	ldi	r22, 0x08	; 8
 684:	70 df       	rcall	.-288    	; 0x566 <uartReverse>
		uartString("\n\n\r", sizeof("\n\n\r"));
 686:	64 e0       	ldi	r22, 0x04	; 4
 688:	8b e4       	ldi	r24, 0x4B	; 75
 68a:	91 e0       	ldi	r25, 0x01	; 1
 68c:	41 df       	rcall	.-382    	; 0x510 <uartString>
		
    while(1)
    {
        if(gyroDataReady()!=0){
 68e:	db de       	rcall	.-586    	; 0x446 <gyroDataReady>
 690:	88 23       	and	r24, r24
 692:	09 f4       	brne	.+2      	; 0x696 <main+0xda>
 694:	a4 c3       	rjmp	.+1864   	; 0xdde <main+0x822>
			gyroReadReg(GYRO_WHO_AM_I);
 696:	8f e0       	ldi	r24, 0x0F	; 15
 698:	be de       	rcall	.-644    	; 0x416 <gyroReadReg>
		
			mark = millis;
 69a:	80 91 a4 01 	lds	r24, 0x01A4
 69e:	90 91 a5 01 	lds	r25, 0x01A5
 6a2:	a0 91 a6 01 	lds	r26, 0x01A6
 6a6:	b0 91 a7 01 	lds	r27, 0x01A7
 6aa:	80 93 a0 01 	sts	0x01A0, r24
 6ae:	90 93 a1 01 	sts	0x01A1, r25
 6b2:	a0 93 a2 01 	sts	0x01A2, r26
 6b6:	b0 93 a3 01 	sts	0x01A3, r27
			gyroGetData(gyroRawData,0);
 6ba:	60 e0       	ldi	r22, 0x00	; 0
 6bc:	70 e0       	ldi	r23, 0x00	; 0
 6be:	84 e9       	ldi	r24, 0x94	; 148
 6c0:	91 e0       	ldi	r25, 0x01	; 1
 6c2:	da dd       	rcall	.-1100   	; 0x278 <gyroGetData>
			char timeout[8] = {0};
 6c4:	28 e0       	ldi	r18, 0x08	; 8
 6c6:	ce 01       	movw	r24, r28
 6c8:	c2 96       	adiw	r24, 0x32	; 50
 6ca:	fc 01       	movw	r30, r24
 6cc:	e2 2e       	mov	r14, r18
 6ce:	11 92       	st	Z+, r1
 6d0:	ea 94       	dec	r14
 6d2:	e9 f7       	brne	.-6      	; 0x6ce <main+0x112>
			for(int i=7; mark!=0; i--){
 6d4:	87 e0       	ldi	r24, 0x07	; 7
 6d6:	90 e0       	ldi	r25, 0x00	; 0
 6d8:	9d 83       	std	Y+5, r25	; 0x05
 6da:	8c 83       	std	Y+4, r24	; 0x04
 6dc:	3a c0       	rjmp	.+116    	; 0x752 <main+0x196>
				timeout[i] = (mark%10) + '0';
 6de:	80 91 a0 01 	lds	r24, 0x01A0
 6e2:	90 91 a1 01 	lds	r25, 0x01A1
 6e6:	a0 91 a2 01 	lds	r26, 0x01A2
 6ea:	b0 91 a3 01 	lds	r27, 0x01A3
 6ee:	2a e0       	ldi	r18, 0x0A	; 10
 6f0:	30 e0       	ldi	r19, 0x00	; 0
 6f2:	40 e0       	ldi	r20, 0x00	; 0
 6f4:	50 e0       	ldi	r21, 0x00	; 0
 6f6:	bc 01       	movw	r22, r24
 6f8:	cd 01       	movw	r24, r26
 6fa:	1c d4       	rcall	.+2104   	; 0xf34 <__udivmodsi4>
 6fc:	dc 01       	movw	r26, r24
 6fe:	cb 01       	movw	r24, r22
 700:	40 e3       	ldi	r20, 0x30	; 48
 702:	48 0f       	add	r20, r24
 704:	9e 01       	movw	r18, r28
 706:	2e 5c       	subi	r18, 0xCE	; 206
 708:	3f 4f       	sbci	r19, 0xFF	; 255
 70a:	8c 81       	ldd	r24, Y+4	; 0x04
 70c:	9d 81       	ldd	r25, Y+5	; 0x05
 70e:	82 0f       	add	r24, r18
 710:	93 1f       	adc	r25, r19
 712:	fc 01       	movw	r30, r24
 714:	40 83       	st	Z, r20
				mark = mark/10;
 716:	80 91 a0 01 	lds	r24, 0x01A0
 71a:	90 91 a1 01 	lds	r25, 0x01A1
 71e:	a0 91 a2 01 	lds	r26, 0x01A2
 722:	b0 91 a3 01 	lds	r27, 0x01A3
 726:	2a e0       	ldi	r18, 0x0A	; 10
 728:	30 e0       	ldi	r19, 0x00	; 0
 72a:	40 e0       	ldi	r20, 0x00	; 0
 72c:	50 e0       	ldi	r21, 0x00	; 0
 72e:	bc 01       	movw	r22, r24
 730:	cd 01       	movw	r24, r26
 732:	00 d4       	rcall	.+2048   	; 0xf34 <__udivmodsi4>
 734:	da 01       	movw	r26, r20
 736:	c9 01       	movw	r24, r18
 738:	80 93 a0 01 	sts	0x01A0, r24
 73c:	90 93 a1 01 	sts	0x01A1, r25
 740:	a0 93 a2 01 	sts	0x01A2, r26
 744:	b0 93 a3 01 	sts	0x01A3, r27
			gyroReadReg(GYRO_WHO_AM_I);
		
			mark = millis;
			gyroGetData(gyroRawData,0);
			char timeout[8] = {0};
			for(int i=7; mark!=0; i--){
 748:	8c 81       	ldd	r24, Y+4	; 0x04
 74a:	9d 81       	ldd	r25, Y+5	; 0x05
 74c:	01 97       	sbiw	r24, 0x01	; 1
 74e:	9d 83       	std	Y+5, r25	; 0x05
 750:	8c 83       	std	Y+4, r24	; 0x04
 752:	80 91 a0 01 	lds	r24, 0x01A0
 756:	90 91 a1 01 	lds	r25, 0x01A1
 75a:	a0 91 a2 01 	lds	r26, 0x01A2
 75e:	b0 91 a3 01 	lds	r27, 0x01A3
 762:	00 97       	sbiw	r24, 0x00	; 0
 764:	a1 05       	cpc	r26, r1
 766:	b1 05       	cpc	r27, r1
 768:	09 f0       	breq	.+2      	; 0x76c <main+0x1b0>
 76a:	b9 cf       	rjmp	.-142    	; 0x6de <main+0x122>
			}
			char xOut[7];
			char yOut[7];
			char zOut[7];
			//X data processing
			long xRaw = ((long)gyroRawData[0]<<8)|((long)gyroRawData[1]);
 76c:	80 91 94 01 	lds	r24, 0x0194
 770:	88 2f       	mov	r24, r24
 772:	90 e0       	ldi	r25, 0x00	; 0
 774:	a0 e0       	ldi	r26, 0x00	; 0
 776:	b0 e0       	ldi	r27, 0x00	; 0
 778:	22 27       	eor	r18, r18
 77a:	38 2f       	mov	r19, r24
 77c:	49 2f       	mov	r20, r25
 77e:	5a 2f       	mov	r21, r26
 780:	80 91 95 01 	lds	r24, 0x0195
 784:	88 2f       	mov	r24, r24
 786:	90 e0       	ldi	r25, 0x00	; 0
 788:	a0 e0       	ldi	r26, 0x00	; 0
 78a:	b0 e0       	ldi	r27, 0x00	; 0
 78c:	82 2b       	or	r24, r18
 78e:	93 2b       	or	r25, r19
 790:	a4 2b       	or	r26, r20
 792:	b5 2b       	or	r27, r21
 794:	8e 83       	std	Y+6, r24	; 0x06
 796:	9f 83       	std	Y+7, r25	; 0x07
 798:	a8 87       	std	Y+8, r26	; 0x08
 79a:	b9 87       	std	Y+9, r27	; 0x09
			if((xRaw&0b10000000)!=0){
 79c:	8e 81       	ldd	r24, Y+6	; 0x06
 79e:	9f 81       	ldd	r25, Y+7	; 0x07
 7a0:	a8 85       	ldd	r26, Y+8	; 0x08
 7a2:	b9 85       	ldd	r27, Y+9	; 0x09
 7a4:	80 78       	andi	r24, 0x80	; 128
 7a6:	99 27       	eor	r25, r25
 7a8:	aa 27       	eor	r26, r26
 7aa:	bb 27       	eor	r27, r27
 7ac:	00 97       	sbiw	r24, 0x00	; 0
 7ae:	a1 05       	cpc	r26, r1
 7b0:	b1 05       	cpc	r27, r1
 7b2:	d1 f0       	breq	.+52     	; 0x7e8 <main+0x22c>
				xRaw = ~xRaw;
 7b4:	8e 81       	ldd	r24, Y+6	; 0x06
 7b6:	9f 81       	ldd	r25, Y+7	; 0x07
 7b8:	a8 85       	ldd	r26, Y+8	; 0x08
 7ba:	b9 85       	ldd	r27, Y+9	; 0x09
 7bc:	80 95       	com	r24
 7be:	90 95       	com	r25
 7c0:	a0 95       	com	r26
 7c2:	b0 95       	com	r27
 7c4:	8e 83       	std	Y+6, r24	; 0x06
 7c6:	9f 83       	std	Y+7, r25	; 0x07
 7c8:	a8 87       	std	Y+8, r26	; 0x08
 7ca:	b9 87       	std	Y+9, r27	; 0x09
				xRaw +=1;
 7cc:	8e 81       	ldd	r24, Y+6	; 0x06
 7ce:	9f 81       	ldd	r25, Y+7	; 0x07
 7d0:	a8 85       	ldd	r26, Y+8	; 0x08
 7d2:	b9 85       	ldd	r27, Y+9	; 0x09
 7d4:	01 96       	adiw	r24, 0x01	; 1
 7d6:	a1 1d       	adc	r26, r1
 7d8:	b1 1d       	adc	r27, r1
 7da:	8e 83       	std	Y+6, r24	; 0x06
 7dc:	9f 83       	std	Y+7, r25	; 0x07
 7de:	a8 87       	std	Y+8, r26	; 0x08
 7e0:	b9 87       	std	Y+9, r27	; 0x09
				xOut[0] = '-';
 7e2:	8d e2       	ldi	r24, 0x2D	; 45
 7e4:	8a af       	std	Y+58, r24	; 0x3a
 7e6:	02 c0       	rjmp	.+4      	; 0x7ec <main+0x230>
			}
			else{
				xOut[0] = '+';
 7e8:	8b e2       	ldi	r24, 0x2B	; 43
 7ea:	8a af       	std	Y+58, r24	; 0x3a
			}
			long xPros = xRaw*875;
 7ec:	2e 81       	ldd	r18, Y+6	; 0x06
 7ee:	3f 81       	ldd	r19, Y+7	; 0x07
 7f0:	48 85       	ldd	r20, Y+8	; 0x08
 7f2:	59 85       	ldd	r21, Y+9	; 0x09
 7f4:	da 01       	movw	r26, r20
 7f6:	c9 01       	movw	r24, r18
 7f8:	88 0f       	add	r24, r24
 7fa:	99 1f       	adc	r25, r25
 7fc:	aa 1f       	adc	r26, r26
 7fe:	bb 1f       	adc	r27, r27
 800:	88 0f       	add	r24, r24
 802:	99 1f       	adc	r25, r25
 804:	aa 1f       	adc	r26, r26
 806:	bb 1f       	adc	r27, r27
 808:	82 0f       	add	r24, r18
 80a:	93 1f       	adc	r25, r19
 80c:	a4 1f       	adc	r26, r20
 80e:	b5 1f       	adc	r27, r21
 810:	9c 01       	movw	r18, r24
 812:	ad 01       	movw	r20, r26
 814:	22 0f       	add	r18, r18
 816:	33 1f       	adc	r19, r19
 818:	44 1f       	adc	r20, r20
 81a:	55 1f       	adc	r21, r21
 81c:	22 0f       	add	r18, r18
 81e:	33 1f       	adc	r19, r19
 820:	44 1f       	adc	r20, r20
 822:	55 1f       	adc	r21, r21
 824:	82 0f       	add	r24, r18
 826:	93 1f       	adc	r25, r19
 828:	a4 1f       	adc	r26, r20
 82a:	b5 1f       	adc	r27, r21
 82c:	9c 01       	movw	r18, r24
 82e:	ad 01       	movw	r20, r26
 830:	22 0f       	add	r18, r18
 832:	33 1f       	adc	r19, r19
 834:	44 1f       	adc	r20, r20
 836:	55 1f       	adc	r21, r21
 838:	22 0f       	add	r18, r18
 83a:	33 1f       	adc	r19, r19
 83c:	44 1f       	adc	r20, r20
 83e:	55 1f       	adc	r21, r21
 840:	82 0f       	add	r24, r18
 842:	93 1f       	adc	r25, r19
 844:	a4 1f       	adc	r26, r20
 846:	b5 1f       	adc	r27, r21
 848:	9c 01       	movw	r18, r24
 84a:	ad 01       	movw	r20, r26
 84c:	28 0f       	add	r18, r24
 84e:	39 1f       	adc	r19, r25
 850:	4a 1f       	adc	r20, r26
 852:	5b 1f       	adc	r21, r27
 854:	22 0f       	add	r18, r18
 856:	33 1f       	adc	r19, r19
 858:	44 1f       	adc	r20, r20
 85a:	55 1f       	adc	r21, r21
 85c:	22 0f       	add	r18, r18
 85e:	33 1f       	adc	r19, r19
 860:	44 1f       	adc	r20, r20
 862:	55 1f       	adc	r21, r21
 864:	79 01       	movw	r14, r18
 866:	8a 01       	movw	r16, r20
 868:	e8 1a       	sub	r14, r24
 86a:	f9 0a       	sbc	r15, r25
 86c:	0a 0b       	sbc	r16, r26
 86e:	1b 0b       	sbc	r17, r27
 870:	d8 01       	movw	r26, r16
 872:	c7 01       	movw	r24, r14
 874:	8a 87       	std	Y+10, r24	; 0x0a
 876:	9b 87       	std	Y+11, r25	; 0x0b
 878:	ac 87       	std	Y+12, r26	; 0x0c
 87a:	bd 87       	std	Y+13, r27	; 0x0d
			for(int i=7;i>5;i--){
 87c:	87 e0       	ldi	r24, 0x07	; 7
 87e:	90 e0       	ldi	r25, 0x00	; 0
 880:	9f 87       	std	Y+15, r25	; 0x0f
 882:	8e 87       	std	Y+14, r24	; 0x0e
 884:	2e c0       	rjmp	.+92     	; 0x8e2 <main+0x326>
				xOut[i] = (xPros%10)+'0';
 886:	8a 85       	ldd	r24, Y+10	; 0x0a
 888:	9b 85       	ldd	r25, Y+11	; 0x0b
 88a:	ac 85       	ldd	r26, Y+12	; 0x0c
 88c:	bd 85       	ldd	r27, Y+13	; 0x0d
 88e:	2a e0       	ldi	r18, 0x0A	; 10
 890:	30 e0       	ldi	r19, 0x00	; 0
 892:	40 e0       	ldi	r20, 0x00	; 0
 894:	50 e0       	ldi	r21, 0x00	; 0
 896:	bc 01       	movw	r22, r24
 898:	cd 01       	movw	r24, r26
 89a:	6e d3       	rcall	.+1756   	; 0xf78 <__divmodsi4>
 89c:	dc 01       	movw	r26, r24
 89e:	cb 01       	movw	r24, r22
 8a0:	40 e3       	ldi	r20, 0x30	; 48
 8a2:	48 0f       	add	r20, r24
 8a4:	9e 01       	movw	r18, r28
 8a6:	26 5c       	subi	r18, 0xC6	; 198
 8a8:	3f 4f       	sbci	r19, 0xFF	; 255
 8aa:	8e 85       	ldd	r24, Y+14	; 0x0e
 8ac:	9f 85       	ldd	r25, Y+15	; 0x0f
 8ae:	82 0f       	add	r24, r18
 8b0:	93 1f       	adc	r25, r19
 8b2:	fc 01       	movw	r30, r24
 8b4:	40 83       	st	Z, r20
				xPros = xPros/10; 
 8b6:	8a 85       	ldd	r24, Y+10	; 0x0a
 8b8:	9b 85       	ldd	r25, Y+11	; 0x0b
 8ba:	ac 85       	ldd	r26, Y+12	; 0x0c
 8bc:	bd 85       	ldd	r27, Y+13	; 0x0d
 8be:	2a e0       	ldi	r18, 0x0A	; 10
 8c0:	30 e0       	ldi	r19, 0x00	; 0
 8c2:	40 e0       	ldi	r20, 0x00	; 0
 8c4:	50 e0       	ldi	r21, 0x00	; 0
 8c6:	bc 01       	movw	r22, r24
 8c8:	cd 01       	movw	r24, r26
 8ca:	56 d3       	rcall	.+1708   	; 0xf78 <__divmodsi4>
 8cc:	da 01       	movw	r26, r20
 8ce:	c9 01       	movw	r24, r18
 8d0:	8a 87       	std	Y+10, r24	; 0x0a
 8d2:	9b 87       	std	Y+11, r25	; 0x0b
 8d4:	ac 87       	std	Y+12, r26	; 0x0c
 8d6:	bd 87       	std	Y+13, r27	; 0x0d
			}
			else{
				xOut[0] = '+';
			}
			long xPros = xRaw*875;
			for(int i=7;i>5;i--){
 8d8:	8e 85       	ldd	r24, Y+14	; 0x0e
 8da:	9f 85       	ldd	r25, Y+15	; 0x0f
 8dc:	01 97       	sbiw	r24, 0x01	; 1
 8de:	9f 87       	std	Y+15, r25	; 0x0f
 8e0:	8e 87       	std	Y+14, r24	; 0x0e
 8e2:	8e 85       	ldd	r24, Y+14	; 0x0e
 8e4:	9f 85       	ldd	r25, Y+15	; 0x0f
 8e6:	86 30       	cpi	r24, 0x06	; 6
 8e8:	91 05       	cpc	r25, r1
 8ea:	6c f6       	brge	.-102    	; 0x886 <main+0x2ca>
				xOut[i] = (xPros%10)+'0';
				xPros = xPros/10; 
			}
			xOut[5] = '.';
 8ec:	8e e2       	ldi	r24, 0x2E	; 46
 8ee:	8f af       	std	Y+63, r24	; 0x3f
			for(int i=4;i>0;i--){
 8f0:	84 e0       	ldi	r24, 0x04	; 4
 8f2:	90 e0       	ldi	r25, 0x00	; 0
 8f4:	99 8b       	std	Y+17, r25	; 0x11
 8f6:	88 8b       	std	Y+16, r24	; 0x10
 8f8:	2e c0       	rjmp	.+92     	; 0x956 <main+0x39a>
				xOut[i] = (xPros%10)+'0';
 8fa:	8a 85       	ldd	r24, Y+10	; 0x0a
 8fc:	9b 85       	ldd	r25, Y+11	; 0x0b
 8fe:	ac 85       	ldd	r26, Y+12	; 0x0c
 900:	bd 85       	ldd	r27, Y+13	; 0x0d
 902:	2a e0       	ldi	r18, 0x0A	; 10
 904:	30 e0       	ldi	r19, 0x00	; 0
 906:	40 e0       	ldi	r20, 0x00	; 0
 908:	50 e0       	ldi	r21, 0x00	; 0
 90a:	bc 01       	movw	r22, r24
 90c:	cd 01       	movw	r24, r26
 90e:	34 d3       	rcall	.+1640   	; 0xf78 <__divmodsi4>
 910:	dc 01       	movw	r26, r24
 912:	cb 01       	movw	r24, r22
 914:	40 e3       	ldi	r20, 0x30	; 48
 916:	48 0f       	add	r20, r24
 918:	9e 01       	movw	r18, r28
 91a:	26 5c       	subi	r18, 0xC6	; 198
 91c:	3f 4f       	sbci	r19, 0xFF	; 255
 91e:	88 89       	ldd	r24, Y+16	; 0x10
 920:	99 89       	ldd	r25, Y+17	; 0x11
 922:	82 0f       	add	r24, r18
 924:	93 1f       	adc	r25, r19
 926:	fc 01       	movw	r30, r24
 928:	40 83       	st	Z, r20
				xPros = xPros/10;
 92a:	8a 85       	ldd	r24, Y+10	; 0x0a
 92c:	9b 85       	ldd	r25, Y+11	; 0x0b
 92e:	ac 85       	ldd	r26, Y+12	; 0x0c
 930:	bd 85       	ldd	r27, Y+13	; 0x0d
 932:	2a e0       	ldi	r18, 0x0A	; 10
 934:	30 e0       	ldi	r19, 0x00	; 0
 936:	40 e0       	ldi	r20, 0x00	; 0
 938:	50 e0       	ldi	r21, 0x00	; 0
 93a:	bc 01       	movw	r22, r24
 93c:	cd 01       	movw	r24, r26
 93e:	1c d3       	rcall	.+1592   	; 0xf78 <__divmodsi4>
 940:	da 01       	movw	r26, r20
 942:	c9 01       	movw	r24, r18
 944:	8a 87       	std	Y+10, r24	; 0x0a
 946:	9b 87       	std	Y+11, r25	; 0x0b
 948:	ac 87       	std	Y+12, r26	; 0x0c
 94a:	bd 87       	std	Y+13, r27	; 0x0d
			for(int i=7;i>5;i--){
				xOut[i] = (xPros%10)+'0';
				xPros = xPros/10; 
			}
			xOut[5] = '.';
			for(int i=4;i>0;i--){
 94c:	88 89       	ldd	r24, Y+16	; 0x10
 94e:	99 89       	ldd	r25, Y+17	; 0x11
 950:	01 97       	sbiw	r24, 0x01	; 1
 952:	99 8b       	std	Y+17, r25	; 0x11
 954:	88 8b       	std	Y+16, r24	; 0x10
 956:	88 89       	ldd	r24, Y+16	; 0x10
 958:	99 89       	ldd	r25, Y+17	; 0x11
 95a:	18 16       	cp	r1, r24
 95c:	19 06       	cpc	r1, r25
 95e:	6c f2       	brlt	.-102    	; 0x8fa <main+0x33e>
				xOut[i] = (xPros%10)+'0';
				xPros = xPros/10;
			}
			//y data processing
			long yRaw = ((long)gyroRawData[2]<<8)|((long)gyroRawData[3]);
 960:	80 91 96 01 	lds	r24, 0x0196
 964:	88 2f       	mov	r24, r24
 966:	90 e0       	ldi	r25, 0x00	; 0
 968:	a0 e0       	ldi	r26, 0x00	; 0
 96a:	b0 e0       	ldi	r27, 0x00	; 0
 96c:	22 27       	eor	r18, r18
 96e:	38 2f       	mov	r19, r24
 970:	49 2f       	mov	r20, r25
 972:	5a 2f       	mov	r21, r26
 974:	80 91 97 01 	lds	r24, 0x0197
 978:	88 2f       	mov	r24, r24
 97a:	90 e0       	ldi	r25, 0x00	; 0
 97c:	a0 e0       	ldi	r26, 0x00	; 0
 97e:	b0 e0       	ldi	r27, 0x00	; 0
 980:	82 2b       	or	r24, r18
 982:	93 2b       	or	r25, r19
 984:	a4 2b       	or	r26, r20
 986:	b5 2b       	or	r27, r21
 988:	8a 8b       	std	Y+18, r24	; 0x12
 98a:	9b 8b       	std	Y+19, r25	; 0x13
 98c:	ac 8b       	std	Y+20, r26	; 0x14
 98e:	bd 8b       	std	Y+21, r27	; 0x15
			if((yRaw&0b10000000)!=0){
 990:	8a 89       	ldd	r24, Y+18	; 0x12
 992:	9b 89       	ldd	r25, Y+19	; 0x13
 994:	ac 89       	ldd	r26, Y+20	; 0x14
 996:	bd 89       	ldd	r27, Y+21	; 0x15
 998:	80 78       	andi	r24, 0x80	; 128
 99a:	99 27       	eor	r25, r25
 99c:	aa 27       	eor	r26, r26
 99e:	bb 27       	eor	r27, r27
 9a0:	00 97       	sbiw	r24, 0x00	; 0
 9a2:	a1 05       	cpc	r26, r1
 9a4:	b1 05       	cpc	r27, r1
 9a6:	f1 f0       	breq	.+60     	; 0x9e4 <main+0x428>
				yRaw = ~yRaw;
 9a8:	8a 89       	ldd	r24, Y+18	; 0x12
 9aa:	9b 89       	ldd	r25, Y+19	; 0x13
 9ac:	ac 89       	ldd	r26, Y+20	; 0x14
 9ae:	bd 89       	ldd	r27, Y+21	; 0x15
 9b0:	80 95       	com	r24
 9b2:	90 95       	com	r25
 9b4:	a0 95       	com	r26
 9b6:	b0 95       	com	r27
 9b8:	8a 8b       	std	Y+18, r24	; 0x12
 9ba:	9b 8b       	std	Y+19, r25	; 0x13
 9bc:	ac 8b       	std	Y+20, r26	; 0x14
 9be:	bd 8b       	std	Y+21, r27	; 0x15
				yRaw +=1;
 9c0:	8a 89       	ldd	r24, Y+18	; 0x12
 9c2:	9b 89       	ldd	r25, Y+19	; 0x13
 9c4:	ac 89       	ldd	r26, Y+20	; 0x14
 9c6:	bd 89       	ldd	r27, Y+21	; 0x15
 9c8:	01 96       	adiw	r24, 0x01	; 1
 9ca:	a1 1d       	adc	r26, r1
 9cc:	b1 1d       	adc	r27, r1
 9ce:	8a 8b       	std	Y+18, r24	; 0x12
 9d0:	9b 8b       	std	Y+19, r25	; 0x13
 9d2:	ac 8b       	std	Y+20, r26	; 0x14
 9d4:	bd 8b       	std	Y+21, r27	; 0x15
				yOut[0] = '-';
 9d6:	ce 01       	movw	r24, r28
 9d8:	8f 5b       	subi	r24, 0xBF	; 191
 9da:	9f 4f       	sbci	r25, 0xFF	; 255
 9dc:	2d e2       	ldi	r18, 0x2D	; 45
 9de:	fc 01       	movw	r30, r24
 9e0:	20 83       	st	Z, r18
 9e2:	06 c0       	rjmp	.+12     	; 0x9f0 <main+0x434>
			}
			else{
				yOut[0] = '+';
 9e4:	ce 01       	movw	r24, r28
 9e6:	8f 5b       	subi	r24, 0xBF	; 191
 9e8:	9f 4f       	sbci	r25, 0xFF	; 255
 9ea:	2b e2       	ldi	r18, 0x2B	; 43
 9ec:	fc 01       	movw	r30, r24
 9ee:	20 83       	st	Z, r18
			}
			long yPros = yRaw*875;
 9f0:	2a 89       	ldd	r18, Y+18	; 0x12
 9f2:	3b 89       	ldd	r19, Y+19	; 0x13
 9f4:	4c 89       	ldd	r20, Y+20	; 0x14
 9f6:	5d 89       	ldd	r21, Y+21	; 0x15
 9f8:	da 01       	movw	r26, r20
 9fa:	c9 01       	movw	r24, r18
 9fc:	88 0f       	add	r24, r24
 9fe:	99 1f       	adc	r25, r25
 a00:	aa 1f       	adc	r26, r26
 a02:	bb 1f       	adc	r27, r27
 a04:	88 0f       	add	r24, r24
 a06:	99 1f       	adc	r25, r25
 a08:	aa 1f       	adc	r26, r26
 a0a:	bb 1f       	adc	r27, r27
 a0c:	82 0f       	add	r24, r18
 a0e:	93 1f       	adc	r25, r19
 a10:	a4 1f       	adc	r26, r20
 a12:	b5 1f       	adc	r27, r21
 a14:	9c 01       	movw	r18, r24
 a16:	ad 01       	movw	r20, r26
 a18:	22 0f       	add	r18, r18
 a1a:	33 1f       	adc	r19, r19
 a1c:	44 1f       	adc	r20, r20
 a1e:	55 1f       	adc	r21, r21
 a20:	22 0f       	add	r18, r18
 a22:	33 1f       	adc	r19, r19
 a24:	44 1f       	adc	r20, r20
 a26:	55 1f       	adc	r21, r21
 a28:	82 0f       	add	r24, r18
 a2a:	93 1f       	adc	r25, r19
 a2c:	a4 1f       	adc	r26, r20
 a2e:	b5 1f       	adc	r27, r21
 a30:	9c 01       	movw	r18, r24
 a32:	ad 01       	movw	r20, r26
 a34:	22 0f       	add	r18, r18
 a36:	33 1f       	adc	r19, r19
 a38:	44 1f       	adc	r20, r20
 a3a:	55 1f       	adc	r21, r21
 a3c:	22 0f       	add	r18, r18
 a3e:	33 1f       	adc	r19, r19
 a40:	44 1f       	adc	r20, r20
 a42:	55 1f       	adc	r21, r21
 a44:	82 0f       	add	r24, r18
 a46:	93 1f       	adc	r25, r19
 a48:	a4 1f       	adc	r26, r20
 a4a:	b5 1f       	adc	r27, r21
 a4c:	9c 01       	movw	r18, r24
 a4e:	ad 01       	movw	r20, r26
 a50:	28 0f       	add	r18, r24
 a52:	39 1f       	adc	r19, r25
 a54:	4a 1f       	adc	r20, r26
 a56:	5b 1f       	adc	r21, r27
 a58:	22 0f       	add	r18, r18
 a5a:	33 1f       	adc	r19, r19
 a5c:	44 1f       	adc	r20, r20
 a5e:	55 1f       	adc	r21, r21
 a60:	22 0f       	add	r18, r18
 a62:	33 1f       	adc	r19, r19
 a64:	44 1f       	adc	r20, r20
 a66:	55 1f       	adc	r21, r21
 a68:	79 01       	movw	r14, r18
 a6a:	8a 01       	movw	r16, r20
 a6c:	e8 1a       	sub	r14, r24
 a6e:	f9 0a       	sbc	r15, r25
 a70:	0a 0b       	sbc	r16, r26
 a72:	1b 0b       	sbc	r17, r27
 a74:	d8 01       	movw	r26, r16
 a76:	c7 01       	movw	r24, r14
 a78:	8e 8b       	std	Y+22, r24	; 0x16
 a7a:	9f 8b       	std	Y+23, r25	; 0x17
 a7c:	a8 8f       	std	Y+24, r26	; 0x18
 a7e:	b9 8f       	std	Y+25, r27	; 0x19
			for(int i=7;i>5;i--){
 a80:	87 e0       	ldi	r24, 0x07	; 7
 a82:	90 e0       	ldi	r25, 0x00	; 0
 a84:	9b 8f       	std	Y+27, r25	; 0x1b
 a86:	8a 8f       	std	Y+26, r24	; 0x1a
 a88:	2e c0       	rjmp	.+92     	; 0xae6 <main+0x52a>
				yOut[i] = (yPros%10)+'0';
 a8a:	8e 89       	ldd	r24, Y+22	; 0x16
 a8c:	9f 89       	ldd	r25, Y+23	; 0x17
 a8e:	a8 8d       	ldd	r26, Y+24	; 0x18
 a90:	b9 8d       	ldd	r27, Y+25	; 0x19
 a92:	2a e0       	ldi	r18, 0x0A	; 10
 a94:	30 e0       	ldi	r19, 0x00	; 0
 a96:	40 e0       	ldi	r20, 0x00	; 0
 a98:	50 e0       	ldi	r21, 0x00	; 0
 a9a:	bc 01       	movw	r22, r24
 a9c:	cd 01       	movw	r24, r26
 a9e:	6c d2       	rcall	.+1240   	; 0xf78 <__divmodsi4>
 aa0:	dc 01       	movw	r26, r24
 aa2:	cb 01       	movw	r24, r22
 aa4:	40 e3       	ldi	r20, 0x30	; 48
 aa6:	48 0f       	add	r20, r24
 aa8:	9e 01       	movw	r18, r28
 aaa:	2f 5b       	subi	r18, 0xBF	; 191
 aac:	3f 4f       	sbci	r19, 0xFF	; 255
 aae:	8a 8d       	ldd	r24, Y+26	; 0x1a
 ab0:	9b 8d       	ldd	r25, Y+27	; 0x1b
 ab2:	82 0f       	add	r24, r18
 ab4:	93 1f       	adc	r25, r19
 ab6:	fc 01       	movw	r30, r24
 ab8:	40 83       	st	Z, r20
				yPros = yPros/10;
 aba:	8e 89       	ldd	r24, Y+22	; 0x16
 abc:	9f 89       	ldd	r25, Y+23	; 0x17
 abe:	a8 8d       	ldd	r26, Y+24	; 0x18
 ac0:	b9 8d       	ldd	r27, Y+25	; 0x19
 ac2:	2a e0       	ldi	r18, 0x0A	; 10
 ac4:	30 e0       	ldi	r19, 0x00	; 0
 ac6:	40 e0       	ldi	r20, 0x00	; 0
 ac8:	50 e0       	ldi	r21, 0x00	; 0
 aca:	bc 01       	movw	r22, r24
 acc:	cd 01       	movw	r24, r26
 ace:	54 d2       	rcall	.+1192   	; 0xf78 <__divmodsi4>
 ad0:	da 01       	movw	r26, r20
 ad2:	c9 01       	movw	r24, r18
 ad4:	8e 8b       	std	Y+22, r24	; 0x16
 ad6:	9f 8b       	std	Y+23, r25	; 0x17
 ad8:	a8 8f       	std	Y+24, r26	; 0x18
 ada:	b9 8f       	std	Y+25, r27	; 0x19
			}
			else{
				yOut[0] = '+';
			}
			long yPros = yRaw*875;
			for(int i=7;i>5;i--){
 adc:	8a 8d       	ldd	r24, Y+26	; 0x1a
 ade:	9b 8d       	ldd	r25, Y+27	; 0x1b
 ae0:	01 97       	sbiw	r24, 0x01	; 1
 ae2:	9b 8f       	std	Y+27, r25	; 0x1b
 ae4:	8a 8f       	std	Y+26, r24	; 0x1a
 ae6:	8a 8d       	ldd	r24, Y+26	; 0x1a
 ae8:	9b 8d       	ldd	r25, Y+27	; 0x1b
 aea:	86 30       	cpi	r24, 0x06	; 6
 aec:	91 05       	cpc	r25, r1
 aee:	6c f6       	brge	.-102    	; 0xa8a <main+0x4ce>
				yOut[i] = (yPros%10)+'0';
				yPros = yPros/10;
			}
			yOut[5] = '.';
 af0:	ce 01       	movw	r24, r28
 af2:	8a 5b       	subi	r24, 0xBA	; 186
 af4:	9f 4f       	sbci	r25, 0xFF	; 255
 af6:	2e e2       	ldi	r18, 0x2E	; 46
 af8:	fc 01       	movw	r30, r24
 afa:	20 83       	st	Z, r18
			for(int i=4;i>0;i--){
 afc:	84 e0       	ldi	r24, 0x04	; 4
 afe:	90 e0       	ldi	r25, 0x00	; 0
 b00:	9d 8f       	std	Y+29, r25	; 0x1d
 b02:	8c 8f       	std	Y+28, r24	; 0x1c
 b04:	2e c0       	rjmp	.+92     	; 0xb62 <main+0x5a6>
				yOut[i] = (yPros%10)+'0';
 b06:	8e 89       	ldd	r24, Y+22	; 0x16
 b08:	9f 89       	ldd	r25, Y+23	; 0x17
 b0a:	a8 8d       	ldd	r26, Y+24	; 0x18
 b0c:	b9 8d       	ldd	r27, Y+25	; 0x19
 b0e:	2a e0       	ldi	r18, 0x0A	; 10
 b10:	30 e0       	ldi	r19, 0x00	; 0
 b12:	40 e0       	ldi	r20, 0x00	; 0
 b14:	50 e0       	ldi	r21, 0x00	; 0
 b16:	bc 01       	movw	r22, r24
 b18:	cd 01       	movw	r24, r26
 b1a:	2e d2       	rcall	.+1116   	; 0xf78 <__divmodsi4>
 b1c:	dc 01       	movw	r26, r24
 b1e:	cb 01       	movw	r24, r22
 b20:	40 e3       	ldi	r20, 0x30	; 48
 b22:	48 0f       	add	r20, r24
 b24:	9e 01       	movw	r18, r28
 b26:	2f 5b       	subi	r18, 0xBF	; 191
 b28:	3f 4f       	sbci	r19, 0xFF	; 255
 b2a:	8c 8d       	ldd	r24, Y+28	; 0x1c
 b2c:	9d 8d       	ldd	r25, Y+29	; 0x1d
 b2e:	82 0f       	add	r24, r18
 b30:	93 1f       	adc	r25, r19
 b32:	fc 01       	movw	r30, r24
 b34:	40 83       	st	Z, r20
				yPros = yPros/10;
 b36:	8e 89       	ldd	r24, Y+22	; 0x16
 b38:	9f 89       	ldd	r25, Y+23	; 0x17
 b3a:	a8 8d       	ldd	r26, Y+24	; 0x18
 b3c:	b9 8d       	ldd	r27, Y+25	; 0x19
 b3e:	2a e0       	ldi	r18, 0x0A	; 10
 b40:	30 e0       	ldi	r19, 0x00	; 0
 b42:	40 e0       	ldi	r20, 0x00	; 0
 b44:	50 e0       	ldi	r21, 0x00	; 0
 b46:	bc 01       	movw	r22, r24
 b48:	cd 01       	movw	r24, r26
 b4a:	16 d2       	rcall	.+1068   	; 0xf78 <__divmodsi4>
 b4c:	da 01       	movw	r26, r20
 b4e:	c9 01       	movw	r24, r18
 b50:	8e 8b       	std	Y+22, r24	; 0x16
 b52:	9f 8b       	std	Y+23, r25	; 0x17
 b54:	a8 8f       	std	Y+24, r26	; 0x18
 b56:	b9 8f       	std	Y+25, r27	; 0x19
			for(int i=7;i>5;i--){
				yOut[i] = (yPros%10)+'0';
				yPros = yPros/10;
			}
			yOut[5] = '.';
			for(int i=4;i>0;i--){
 b58:	8c 8d       	ldd	r24, Y+28	; 0x1c
 b5a:	9d 8d       	ldd	r25, Y+29	; 0x1d
 b5c:	01 97       	sbiw	r24, 0x01	; 1
 b5e:	9d 8f       	std	Y+29, r25	; 0x1d
 b60:	8c 8f       	std	Y+28, r24	; 0x1c
 b62:	8c 8d       	ldd	r24, Y+28	; 0x1c
 b64:	9d 8d       	ldd	r25, Y+29	; 0x1d
 b66:	18 16       	cp	r1, r24
 b68:	19 06       	cpc	r1, r25
 b6a:	6c f2       	brlt	.-102    	; 0xb06 <main+0x54a>
				yOut[i] = (yPros%10)+'0';
				yPros = yPros/10;
			}
			//z data processing
			long zRaw = ((long)gyroRawData[4]<<8)|((long)gyroRawData[5]);
 b6c:	80 91 98 01 	lds	r24, 0x0198
 b70:	88 2f       	mov	r24, r24
 b72:	90 e0       	ldi	r25, 0x00	; 0
 b74:	a0 e0       	ldi	r26, 0x00	; 0
 b76:	b0 e0       	ldi	r27, 0x00	; 0
 b78:	22 27       	eor	r18, r18
 b7a:	38 2f       	mov	r19, r24
 b7c:	49 2f       	mov	r20, r25
 b7e:	5a 2f       	mov	r21, r26
 b80:	80 91 99 01 	lds	r24, 0x0199
 b84:	88 2f       	mov	r24, r24
 b86:	90 e0       	ldi	r25, 0x00	; 0
 b88:	a0 e0       	ldi	r26, 0x00	; 0
 b8a:	b0 e0       	ldi	r27, 0x00	; 0
 b8c:	82 2b       	or	r24, r18
 b8e:	93 2b       	or	r25, r19
 b90:	a4 2b       	or	r26, r20
 b92:	b5 2b       	or	r27, r21
 b94:	8e 8f       	std	Y+30, r24	; 0x1e
 b96:	9f 8f       	std	Y+31, r25	; 0x1f
 b98:	a8 a3       	std	Y+32, r26	; 0x20
 b9a:	b9 a3       	std	Y+33, r27	; 0x21
			if((zRaw&0b10000000)!=0){
 b9c:	8e 8d       	ldd	r24, Y+30	; 0x1e
 b9e:	9f 8d       	ldd	r25, Y+31	; 0x1f
 ba0:	a8 a1       	ldd	r26, Y+32	; 0x20
 ba2:	b9 a1       	ldd	r27, Y+33	; 0x21
 ba4:	80 78       	andi	r24, 0x80	; 128
 ba6:	99 27       	eor	r25, r25
 ba8:	aa 27       	eor	r26, r26
 baa:	bb 27       	eor	r27, r27
 bac:	00 97       	sbiw	r24, 0x00	; 0
 bae:	a1 05       	cpc	r26, r1
 bb0:	b1 05       	cpc	r27, r1
 bb2:	f1 f0       	breq	.+60     	; 0xbf0 <main+0x634>
				zRaw = ~zRaw;
 bb4:	8e 8d       	ldd	r24, Y+30	; 0x1e
 bb6:	9f 8d       	ldd	r25, Y+31	; 0x1f
 bb8:	a8 a1       	ldd	r26, Y+32	; 0x20
 bba:	b9 a1       	ldd	r27, Y+33	; 0x21
 bbc:	80 95       	com	r24
 bbe:	90 95       	com	r25
 bc0:	a0 95       	com	r26
 bc2:	b0 95       	com	r27
 bc4:	8e 8f       	std	Y+30, r24	; 0x1e
 bc6:	9f 8f       	std	Y+31, r25	; 0x1f
 bc8:	a8 a3       	std	Y+32, r26	; 0x20
 bca:	b9 a3       	std	Y+33, r27	; 0x21
				zRaw +=1;
 bcc:	8e 8d       	ldd	r24, Y+30	; 0x1e
 bce:	9f 8d       	ldd	r25, Y+31	; 0x1f
 bd0:	a8 a1       	ldd	r26, Y+32	; 0x20
 bd2:	b9 a1       	ldd	r27, Y+33	; 0x21
 bd4:	01 96       	adiw	r24, 0x01	; 1
 bd6:	a1 1d       	adc	r26, r1
 bd8:	b1 1d       	adc	r27, r1
 bda:	8e 8f       	std	Y+30, r24	; 0x1e
 bdc:	9f 8f       	std	Y+31, r25	; 0x1f
 bde:	a8 a3       	std	Y+32, r26	; 0x20
 be0:	b9 a3       	std	Y+33, r27	; 0x21
				zOut[0] = '-';
 be2:	ce 01       	movw	r24, r28
 be4:	88 5b       	subi	r24, 0xB8	; 184
 be6:	9f 4f       	sbci	r25, 0xFF	; 255
 be8:	2d e2       	ldi	r18, 0x2D	; 45
 bea:	fc 01       	movw	r30, r24
 bec:	20 83       	st	Z, r18
 bee:	06 c0       	rjmp	.+12     	; 0xbfc <main+0x640>
			}
			else{
				zOut[0] = '+';
 bf0:	ce 01       	movw	r24, r28
 bf2:	88 5b       	subi	r24, 0xB8	; 184
 bf4:	9f 4f       	sbci	r25, 0xFF	; 255
 bf6:	2b e2       	ldi	r18, 0x2B	; 43
 bf8:	fc 01       	movw	r30, r24
 bfa:	20 83       	st	Z, r18
			}
			long zPros = zRaw*875;
 bfc:	2e 8d       	ldd	r18, Y+30	; 0x1e
 bfe:	3f 8d       	ldd	r19, Y+31	; 0x1f
 c00:	48 a1       	ldd	r20, Y+32	; 0x20
 c02:	59 a1       	ldd	r21, Y+33	; 0x21
 c04:	da 01       	movw	r26, r20
 c06:	c9 01       	movw	r24, r18
 c08:	88 0f       	add	r24, r24
 c0a:	99 1f       	adc	r25, r25
 c0c:	aa 1f       	adc	r26, r26
 c0e:	bb 1f       	adc	r27, r27
 c10:	88 0f       	add	r24, r24
 c12:	99 1f       	adc	r25, r25
 c14:	aa 1f       	adc	r26, r26
 c16:	bb 1f       	adc	r27, r27
 c18:	82 0f       	add	r24, r18
 c1a:	93 1f       	adc	r25, r19
 c1c:	a4 1f       	adc	r26, r20
 c1e:	b5 1f       	adc	r27, r21
 c20:	9c 01       	movw	r18, r24
 c22:	ad 01       	movw	r20, r26
 c24:	22 0f       	add	r18, r18
 c26:	33 1f       	adc	r19, r19
 c28:	44 1f       	adc	r20, r20
 c2a:	55 1f       	adc	r21, r21
 c2c:	22 0f       	add	r18, r18
 c2e:	33 1f       	adc	r19, r19
 c30:	44 1f       	adc	r20, r20
 c32:	55 1f       	adc	r21, r21
 c34:	82 0f       	add	r24, r18
 c36:	93 1f       	adc	r25, r19
 c38:	a4 1f       	adc	r26, r20
 c3a:	b5 1f       	adc	r27, r21
 c3c:	9c 01       	movw	r18, r24
 c3e:	ad 01       	movw	r20, r26
 c40:	22 0f       	add	r18, r18
 c42:	33 1f       	adc	r19, r19
 c44:	44 1f       	adc	r20, r20
 c46:	55 1f       	adc	r21, r21
 c48:	22 0f       	add	r18, r18
 c4a:	33 1f       	adc	r19, r19
 c4c:	44 1f       	adc	r20, r20
 c4e:	55 1f       	adc	r21, r21
 c50:	82 0f       	add	r24, r18
 c52:	93 1f       	adc	r25, r19
 c54:	a4 1f       	adc	r26, r20
 c56:	b5 1f       	adc	r27, r21
 c58:	9c 01       	movw	r18, r24
 c5a:	ad 01       	movw	r20, r26
 c5c:	28 0f       	add	r18, r24
 c5e:	39 1f       	adc	r19, r25
 c60:	4a 1f       	adc	r20, r26
 c62:	5b 1f       	adc	r21, r27
 c64:	22 0f       	add	r18, r18
 c66:	33 1f       	adc	r19, r19
 c68:	44 1f       	adc	r20, r20
 c6a:	55 1f       	adc	r21, r21
 c6c:	22 0f       	add	r18, r18
 c6e:	33 1f       	adc	r19, r19
 c70:	44 1f       	adc	r20, r20
 c72:	55 1f       	adc	r21, r21
 c74:	79 01       	movw	r14, r18
 c76:	8a 01       	movw	r16, r20
 c78:	e8 1a       	sub	r14, r24
 c7a:	f9 0a       	sbc	r15, r25
 c7c:	0a 0b       	sbc	r16, r26
 c7e:	1b 0b       	sbc	r17, r27
 c80:	d8 01       	movw	r26, r16
 c82:	c7 01       	movw	r24, r14
 c84:	8a a3       	std	Y+34, r24	; 0x22
 c86:	9b a3       	std	Y+35, r25	; 0x23
 c88:	ac a3       	std	Y+36, r26	; 0x24
 c8a:	bd a3       	std	Y+37, r27	; 0x25
			for(int i=7;i>5;i--){
 c8c:	87 e0       	ldi	r24, 0x07	; 7
 c8e:	90 e0       	ldi	r25, 0x00	; 0
 c90:	9f a3       	std	Y+39, r25	; 0x27
 c92:	8e a3       	std	Y+38, r24	; 0x26
 c94:	2e c0       	rjmp	.+92     	; 0xcf2 <main+0x736>
				zOut[i] = (zPros%10)+'0';
 c96:	8a a1       	ldd	r24, Y+34	; 0x22
 c98:	9b a1       	ldd	r25, Y+35	; 0x23
 c9a:	ac a1       	ldd	r26, Y+36	; 0x24
 c9c:	bd a1       	ldd	r27, Y+37	; 0x25
 c9e:	2a e0       	ldi	r18, 0x0A	; 10
 ca0:	30 e0       	ldi	r19, 0x00	; 0
 ca2:	40 e0       	ldi	r20, 0x00	; 0
 ca4:	50 e0       	ldi	r21, 0x00	; 0
 ca6:	bc 01       	movw	r22, r24
 ca8:	cd 01       	movw	r24, r26
 caa:	66 d1       	rcall	.+716    	; 0xf78 <__divmodsi4>
 cac:	dc 01       	movw	r26, r24
 cae:	cb 01       	movw	r24, r22
 cb0:	40 e3       	ldi	r20, 0x30	; 48
 cb2:	48 0f       	add	r20, r24
 cb4:	9e 01       	movw	r18, r28
 cb6:	28 5b       	subi	r18, 0xB8	; 184
 cb8:	3f 4f       	sbci	r19, 0xFF	; 255
 cba:	8e a1       	ldd	r24, Y+38	; 0x26
 cbc:	9f a1       	ldd	r25, Y+39	; 0x27
 cbe:	82 0f       	add	r24, r18
 cc0:	93 1f       	adc	r25, r19
 cc2:	fc 01       	movw	r30, r24
 cc4:	40 83       	st	Z, r20
				zPros = zPros/10;
 cc6:	8a a1       	ldd	r24, Y+34	; 0x22
 cc8:	9b a1       	ldd	r25, Y+35	; 0x23
 cca:	ac a1       	ldd	r26, Y+36	; 0x24
 ccc:	bd a1       	ldd	r27, Y+37	; 0x25
 cce:	2a e0       	ldi	r18, 0x0A	; 10
 cd0:	30 e0       	ldi	r19, 0x00	; 0
 cd2:	40 e0       	ldi	r20, 0x00	; 0
 cd4:	50 e0       	ldi	r21, 0x00	; 0
 cd6:	bc 01       	movw	r22, r24
 cd8:	cd 01       	movw	r24, r26
 cda:	4e d1       	rcall	.+668    	; 0xf78 <__divmodsi4>
 cdc:	da 01       	movw	r26, r20
 cde:	c9 01       	movw	r24, r18
 ce0:	8a a3       	std	Y+34, r24	; 0x22
 ce2:	9b a3       	std	Y+35, r25	; 0x23
 ce4:	ac a3       	std	Y+36, r26	; 0x24
 ce6:	bd a3       	std	Y+37, r27	; 0x25
			}
			else{
				zOut[0] = '+';
			}
			long zPros = zRaw*875;
			for(int i=7;i>5;i--){
 ce8:	8e a1       	ldd	r24, Y+38	; 0x26
 cea:	9f a1       	ldd	r25, Y+39	; 0x27
 cec:	01 97       	sbiw	r24, 0x01	; 1
 cee:	9f a3       	std	Y+39, r25	; 0x27
 cf0:	8e a3       	std	Y+38, r24	; 0x26
 cf2:	8e a1       	ldd	r24, Y+38	; 0x26
 cf4:	9f a1       	ldd	r25, Y+39	; 0x27
 cf6:	86 30       	cpi	r24, 0x06	; 6
 cf8:	91 05       	cpc	r25, r1
 cfa:	6c f6       	brge	.-102    	; 0xc96 <main+0x6da>
				zOut[i] = (zPros%10)+'0';
				zPros = zPros/10;
			}
			zOut[5] = '.';
 cfc:	ce 01       	movw	r24, r28
 cfe:	88 5b       	subi	r24, 0xB8	; 184
 d00:	9f 4f       	sbci	r25, 0xFF	; 255
 d02:	2e e2       	ldi	r18, 0x2E	; 46
 d04:	fc 01       	movw	r30, r24
 d06:	25 83       	std	Z+5, r18	; 0x05
			for(int i=4;i>0;i--){
 d08:	84 e0       	ldi	r24, 0x04	; 4
 d0a:	90 e0       	ldi	r25, 0x00	; 0
 d0c:	99 a7       	std	Y+41, r25	; 0x29
 d0e:	88 a7       	std	Y+40, r24	; 0x28
 d10:	2e c0       	rjmp	.+92     	; 0xd6e <main+0x7b2>
				zOut[i] = (zPros%10)+'0';
 d12:	8a a1       	ldd	r24, Y+34	; 0x22
 d14:	9b a1       	ldd	r25, Y+35	; 0x23
 d16:	ac a1       	ldd	r26, Y+36	; 0x24
 d18:	bd a1       	ldd	r27, Y+37	; 0x25
 d1a:	2a e0       	ldi	r18, 0x0A	; 10
 d1c:	30 e0       	ldi	r19, 0x00	; 0
 d1e:	40 e0       	ldi	r20, 0x00	; 0
 d20:	50 e0       	ldi	r21, 0x00	; 0
 d22:	bc 01       	movw	r22, r24
 d24:	cd 01       	movw	r24, r26
 d26:	28 d1       	rcall	.+592    	; 0xf78 <__divmodsi4>
 d28:	dc 01       	movw	r26, r24
 d2a:	cb 01       	movw	r24, r22
 d2c:	40 e3       	ldi	r20, 0x30	; 48
 d2e:	48 0f       	add	r20, r24
 d30:	9e 01       	movw	r18, r28
 d32:	28 5b       	subi	r18, 0xB8	; 184
 d34:	3f 4f       	sbci	r19, 0xFF	; 255
 d36:	88 a5       	ldd	r24, Y+40	; 0x28
 d38:	99 a5       	ldd	r25, Y+41	; 0x29
 d3a:	82 0f       	add	r24, r18
 d3c:	93 1f       	adc	r25, r19
 d3e:	fc 01       	movw	r30, r24
 d40:	40 83       	st	Z, r20
				zPros = zPros/10;
 d42:	8a a1       	ldd	r24, Y+34	; 0x22
 d44:	9b a1       	ldd	r25, Y+35	; 0x23
 d46:	ac a1       	ldd	r26, Y+36	; 0x24
 d48:	bd a1       	ldd	r27, Y+37	; 0x25
 d4a:	2a e0       	ldi	r18, 0x0A	; 10
 d4c:	30 e0       	ldi	r19, 0x00	; 0
 d4e:	40 e0       	ldi	r20, 0x00	; 0
 d50:	50 e0       	ldi	r21, 0x00	; 0
 d52:	bc 01       	movw	r22, r24
 d54:	cd 01       	movw	r24, r26
 d56:	10 d1       	rcall	.+544    	; 0xf78 <__divmodsi4>
 d58:	da 01       	movw	r26, r20
 d5a:	c9 01       	movw	r24, r18
 d5c:	8a a3       	std	Y+34, r24	; 0x22
 d5e:	9b a3       	std	Y+35, r25	; 0x23
 d60:	ac a3       	std	Y+36, r26	; 0x24
 d62:	bd a3       	std	Y+37, r27	; 0x25
			for(int i=7;i>5;i--){
				zOut[i] = (zPros%10)+'0';
				zPros = zPros/10;
			}
			zOut[5] = '.';
			for(int i=4;i>0;i--){
 d64:	88 a5       	ldd	r24, Y+40	; 0x28
 d66:	99 a5       	ldd	r25, Y+41	; 0x29
 d68:	01 97       	sbiw	r24, 0x01	; 1
 d6a:	99 a7       	std	Y+41, r25	; 0x29
 d6c:	88 a7       	std	Y+40, r24	; 0x28
 d6e:	88 a5       	ldd	r24, Y+40	; 0x28
 d70:	99 a5       	ldd	r25, Y+41	; 0x29
 d72:	18 16       	cp	r1, r24
 d74:	19 06       	cpc	r1, r25
 d76:	6c f2       	brlt	.-102    	; 0xd12 <main+0x756>
				zOut[i] = (zPros%10)+'0';
				zPros = zPros/10;
			}
			uartString("TimeStamp:  ",sizeof("TimeStamp:  "));
 d78:	6d e0       	ldi	r22, 0x0D	; 13
 d7a:	8f e4       	ldi	r24, 0x4F	; 79
 d7c:	91 e0       	ldi	r25, 0x01	; 1
 d7e:	c8 db       	rcall	.-2160   	; 0x510 <uartString>
			uartString(timeout, sizeof(timeout));
 d80:	ce 01       	movw	r24, r28
 d82:	c2 96       	adiw	r24, 0x32	; 50
 d84:	68 e0       	ldi	r22, 0x08	; 8
 d86:	c4 db       	rcall	.-2168   	; 0x510 <uartString>
			uartString(" ms\n\r",sizeof("\n\r"));
 d88:	63 e0       	ldi	r22, 0x03	; 3
 d8a:	8c e5       	ldi	r24, 0x5C	; 92
 d8c:	91 e0       	ldi	r25, 0x01	; 1
 d8e:	c0 db       	rcall	.-2176   	; 0x510 <uartString>
			uartString("Xdata:  ",sizeof("Xdata:  "));
 d90:	69 e0       	ldi	r22, 0x09	; 9
 d92:	82 e6       	ldi	r24, 0x62	; 98
 d94:	91 e0       	ldi	r25, 0x01	; 1
 d96:	bc db       	rcall	.-2184   	; 0x510 <uartString>
			uartString(xOut,sizeof(xOut));
 d98:	ce 01       	movw	r24, r28
 d9a:	ca 96       	adiw	r24, 0x3a	; 58
 d9c:	67 e0       	ldi	r22, 0x07	; 7
 d9e:	b8 db       	rcall	.-2192   	; 0x510 <uartString>
			uartString(" dps\n\r",sizeof(" dps\n\r"));
 da0:	67 e0       	ldi	r22, 0x07	; 7
 da2:	8b e6       	ldi	r24, 0x6B	; 107
 da4:	91 e0       	ldi	r25, 0x01	; 1
 da6:	b4 db       	rcall	.-2200   	; 0x510 <uartString>
			uartString("Ydata:  ",sizeof("Ydata:  "));
 da8:	69 e0       	ldi	r22, 0x09	; 9
 daa:	82 e7       	ldi	r24, 0x72	; 114
 dac:	91 e0       	ldi	r25, 0x01	; 1
 dae:	b0 db       	rcall	.-2208   	; 0x510 <uartString>
			uartString(yOut,sizeof(yOut));
 db0:	ce 01       	movw	r24, r28
 db2:	8f 5b       	subi	r24, 0xBF	; 191
 db4:	9f 4f       	sbci	r25, 0xFF	; 255
 db6:	67 e0       	ldi	r22, 0x07	; 7
 db8:	ab db       	rcall	.-2218   	; 0x510 <uartString>
			uartString(" dps\n\r",sizeof(" dps\n\r"));
 dba:	67 e0       	ldi	r22, 0x07	; 7
 dbc:	8b e6       	ldi	r24, 0x6B	; 107
 dbe:	91 e0       	ldi	r25, 0x01	; 1
 dc0:	a7 db       	rcall	.-2226   	; 0x510 <uartString>
			uartString("Zdata:  ",sizeof("Zdata:  "));
 dc2:	69 e0       	ldi	r22, 0x09	; 9
 dc4:	8b e7       	ldi	r24, 0x7B	; 123
 dc6:	91 e0       	ldi	r25, 0x01	; 1
 dc8:	a3 db       	rcall	.-2234   	; 0x510 <uartString>
			uartString(zOut,sizeof(zOut));
 dca:	ce 01       	movw	r24, r28
 dcc:	88 5b       	subi	r24, 0xB8	; 184
 dce:	9f 4f       	sbci	r25, 0xFF	; 255
 dd0:	67 e0       	ldi	r22, 0x07	; 7
 dd2:	9e db       	rcall	.-2244   	; 0x510 <uartString>
			uartString(" dps\n\n\r",sizeof(" dps\n\r"));
 dd4:	67 e0       	ldi	r22, 0x07	; 7
 dd6:	84 e8       	ldi	r24, 0x84	; 132
 dd8:	91 e0       	ldi	r25, 0x01	; 1
 dda:	9a db       	rcall	.-2252   	; 0x510 <uartString>
		}
    }
 ddc:	58 cc       	rjmp	.-1872   	; 0x68e <main+0xd2>
 dde:	57 cc       	rjmp	.-1874   	; 0x68e <main+0xd2>

00000de0 <delay>:
}

void delay(unsigned long delayTime){
 de0:	cf 93       	push	r28
 de2:	df 93       	push	r29
 de4:	00 d0       	rcall	.+0      	; 0xde6 <delay+0x6>
 de6:	00 d0       	rcall	.+0      	; 0xde8 <delay+0x8>
 de8:	cd b7       	in	r28, 0x3d	; 61
 dea:	de b7       	in	r29, 0x3e	; 62
 dec:	69 83       	std	Y+1, r22	; 0x01
 dee:	7a 83       	std	Y+2, r23	; 0x02
 df0:	8b 83       	std	Y+3, r24	; 0x03
 df2:	9c 83       	std	Y+4, r25	; 0x04
	mark = millis;
 df4:	80 91 a4 01 	lds	r24, 0x01A4
 df8:	90 91 a5 01 	lds	r25, 0x01A5
 dfc:	a0 91 a6 01 	lds	r26, 0x01A6
 e00:	b0 91 a7 01 	lds	r27, 0x01A7
 e04:	80 93 a0 01 	sts	0x01A0, r24
 e08:	90 93 a1 01 	sts	0x01A1, r25
 e0c:	a0 93 a2 01 	sts	0x01A2, r26
 e10:	b0 93 a3 01 	sts	0x01A3, r27
	while((millis - mark) <= delayTime){
 e14:	00 00       	nop
 e16:	20 91 a4 01 	lds	r18, 0x01A4
 e1a:	30 91 a5 01 	lds	r19, 0x01A5
 e1e:	40 91 a6 01 	lds	r20, 0x01A6
 e22:	50 91 a7 01 	lds	r21, 0x01A7
 e26:	80 91 a0 01 	lds	r24, 0x01A0
 e2a:	90 91 a1 01 	lds	r25, 0x01A1
 e2e:	a0 91 a2 01 	lds	r26, 0x01A2
 e32:	b0 91 a3 01 	lds	r27, 0x01A3
 e36:	28 1b       	sub	r18, r24
 e38:	39 0b       	sbc	r19, r25
 e3a:	4a 0b       	sbc	r20, r26
 e3c:	5b 0b       	sbc	r21, r27
 e3e:	89 81       	ldd	r24, Y+1	; 0x01
 e40:	9a 81       	ldd	r25, Y+2	; 0x02
 e42:	ab 81       	ldd	r26, Y+3	; 0x03
 e44:	bc 81       	ldd	r27, Y+4	; 0x04
 e46:	82 17       	cp	r24, r18
 e48:	93 07       	cpc	r25, r19
 e4a:	a4 07       	cpc	r26, r20
 e4c:	b5 07       	cpc	r27, r21
 e4e:	18 f7       	brcc	.-58     	; 0xe16 <delay+0x36>
		;
	}
}
 e50:	0f 90       	pop	r0
 e52:	0f 90       	pop	r0
 e54:	0f 90       	pop	r0
 e56:	0f 90       	pop	r0
 e58:	df 91       	pop	r29
 e5a:	cf 91       	pop	r28
 e5c:	08 95       	ret

00000e5e <initSysTime>:



void initSysTime(void){
 e5e:	cf 93       	push	r28
 e60:	df 93       	push	r29
 e62:	cd b7       	in	r28, 0x3d	; 61
 e64:	de b7       	in	r29, 0x3e	; 62
	TCCR0A = (1<<WGM01);	//CTC mode
 e66:	85 e4       	ldi	r24, 0x45	; 69
 e68:	90 e0       	ldi	r25, 0x00	; 0
 e6a:	22 e0       	ldi	r18, 0x02	; 2
 e6c:	fc 01       	movw	r30, r24
 e6e:	20 83       	st	Z, r18
	TCCR0B = (1<<CS02);		//Clock prescaler is 64 - 8 MHz/64 = 125 kHZ = 125 cycles/millisecond
 e70:	86 e4       	ldi	r24, 0x46	; 70
 e72:	90 e0       	ldi	r25, 0x00	; 0
 e74:	24 e0       	ldi	r18, 0x04	; 4
 e76:	fc 01       	movw	r30, r24
 e78:	20 83       	st	Z, r18
	TCNT0 = 0x00;			//Initialize clock counter
 e7a:	87 e4       	ldi	r24, 0x47	; 71
 e7c:	90 e0       	ldi	r25, 0x00	; 0
 e7e:	fc 01       	movw	r30, r24
 e80:	10 82       	st	Z, r1
	OCR0A = 0x7C;			//124 steps before counter reset
 e82:	88 e4       	ldi	r24, 0x48	; 72
 e84:	90 e0       	ldi	r25, 0x00	; 0
 e86:	2c e7       	ldi	r18, 0x7C	; 124
 e88:	fc 01       	movw	r30, r24
 e8a:	20 83       	st	Z, r18
	ASSR = 0x00;
 e8c:	86 eb       	ldi	r24, 0xB6	; 182
 e8e:	90 e0       	ldi	r25, 0x00	; 0
 e90:	fc 01       	movw	r30, r24
 e92:	10 82       	st	Z, r1
	TIMSK0 = (1<<OCIE0A);	//Enable Clock Compare Interrupts
 e94:	8e e6       	ldi	r24, 0x6E	; 110
 e96:	90 e0       	ldi	r25, 0x00	; 0
 e98:	22 e0       	ldi	r18, 0x02	; 2
 e9a:	fc 01       	movw	r30, r24
 e9c:	20 83       	st	Z, r18
	millis = 0;
 e9e:	10 92 a4 01 	sts	0x01A4, r1
 ea2:	10 92 a5 01 	sts	0x01A5, r1
 ea6:	10 92 a6 01 	sts	0x01A6, r1
 eaa:	10 92 a7 01 	sts	0x01A7, r1
	sei();
 eae:	78 94       	sei
}
 eb0:	df 91       	pop	r29
 eb2:	cf 91       	pop	r28
 eb4:	08 95       	ret

00000eb6 <__vector_10>:

ISR(TIMER0_COMPA_vect){
 eb6:	1f 92       	push	r1
 eb8:	0f 92       	push	r0
 eba:	00 90 5f 00 	lds	r0, 0x005F
 ebe:	0f 92       	push	r0
 ec0:	11 24       	eor	r1, r1
 ec2:	8f 93       	push	r24
 ec4:	9f 93       	push	r25
 ec6:	af 93       	push	r26
 ec8:	bf 93       	push	r27
 eca:	cf 93       	push	r28
 ecc:	df 93       	push	r29
 ece:	cd b7       	in	r28, 0x3d	; 61
 ed0:	de b7       	in	r29, 0x3e	; 62
	millis += 1;
 ed2:	80 91 a4 01 	lds	r24, 0x01A4
 ed6:	90 91 a5 01 	lds	r25, 0x01A5
 eda:	a0 91 a6 01 	lds	r26, 0x01A6
 ede:	b0 91 a7 01 	lds	r27, 0x01A7
 ee2:	01 96       	adiw	r24, 0x01	; 1
 ee4:	a1 1d       	adc	r26, r1
 ee6:	b1 1d       	adc	r27, r1
 ee8:	80 93 a4 01 	sts	0x01A4, r24
 eec:	90 93 a5 01 	sts	0x01A5, r25
 ef0:	a0 93 a6 01 	sts	0x01A6, r26
 ef4:	b0 93 a7 01 	sts	0x01A7, r27
}
 ef8:	df 91       	pop	r29
 efa:	cf 91       	pop	r28
 efc:	bf 91       	pop	r27
 efe:	af 91       	pop	r26
 f00:	9f 91       	pop	r25
 f02:	8f 91       	pop	r24
 f04:	0f 90       	pop	r0
 f06:	00 92 5f 00 	sts	0x005F, r0
 f0a:	0f 90       	pop	r0
 f0c:	1f 90       	pop	r1
 f0e:	18 95       	reti

00000f10 <__vector_default>:

ISR(BADISR_vect){
 f10:	1f 92       	push	r1
 f12:	0f 92       	push	r0
 f14:	00 90 5f 00 	lds	r0, 0x005F
 f18:	0f 92       	push	r0
 f1a:	11 24       	eor	r1, r1
 f1c:	cf 93       	push	r28
 f1e:	df 93       	push	r29
 f20:	cd b7       	in	r28, 0x3d	; 61
 f22:	de b7       	in	r29, 0x3e	; 62
	
 f24:	df 91       	pop	r29
 f26:	cf 91       	pop	r28
 f28:	0f 90       	pop	r0
 f2a:	00 92 5f 00 	sts	0x005F, r0
 f2e:	0f 90       	pop	r0
 f30:	1f 90       	pop	r1
 f32:	18 95       	reti

00000f34 <__udivmodsi4>:
 f34:	a1 e2       	ldi	r26, 0x21	; 33
 f36:	1a 2e       	mov	r1, r26
 f38:	aa 1b       	sub	r26, r26
 f3a:	bb 1b       	sub	r27, r27
 f3c:	fd 01       	movw	r30, r26
 f3e:	0d c0       	rjmp	.+26     	; 0xf5a <__udivmodsi4_ep>

00000f40 <__udivmodsi4_loop>:
 f40:	aa 1f       	adc	r26, r26
 f42:	bb 1f       	adc	r27, r27
 f44:	ee 1f       	adc	r30, r30
 f46:	ff 1f       	adc	r31, r31
 f48:	a2 17       	cp	r26, r18
 f4a:	b3 07       	cpc	r27, r19
 f4c:	e4 07       	cpc	r30, r20
 f4e:	f5 07       	cpc	r31, r21
 f50:	20 f0       	brcs	.+8      	; 0xf5a <__udivmodsi4_ep>
 f52:	a2 1b       	sub	r26, r18
 f54:	b3 0b       	sbc	r27, r19
 f56:	e4 0b       	sbc	r30, r20
 f58:	f5 0b       	sbc	r31, r21

00000f5a <__udivmodsi4_ep>:
 f5a:	66 1f       	adc	r22, r22
 f5c:	77 1f       	adc	r23, r23
 f5e:	88 1f       	adc	r24, r24
 f60:	99 1f       	adc	r25, r25
 f62:	1a 94       	dec	r1
 f64:	69 f7       	brne	.-38     	; 0xf40 <__udivmodsi4_loop>
 f66:	60 95       	com	r22
 f68:	70 95       	com	r23
 f6a:	80 95       	com	r24
 f6c:	90 95       	com	r25
 f6e:	9b 01       	movw	r18, r22
 f70:	ac 01       	movw	r20, r24
 f72:	bd 01       	movw	r22, r26
 f74:	cf 01       	movw	r24, r30
 f76:	08 95       	ret

00000f78 <__divmodsi4>:
 f78:	05 2e       	mov	r0, r21
 f7a:	97 fb       	bst	r25, 7
 f7c:	16 f4       	brtc	.+4      	; 0xf82 <__divmodsi4+0xa>
 f7e:	00 94       	com	r0
 f80:	0f d0       	rcall	.+30     	; 0xfa0 <__negsi2>
 f82:	57 fd       	sbrc	r21, 7
 f84:	05 d0       	rcall	.+10     	; 0xf90 <__divmodsi4_neg2>
 f86:	d6 df       	rcall	.-84     	; 0xf34 <__udivmodsi4>
 f88:	07 fc       	sbrc	r0, 7
 f8a:	02 d0       	rcall	.+4      	; 0xf90 <__divmodsi4_neg2>
 f8c:	46 f4       	brtc	.+16     	; 0xf9e <__divmodsi4_exit>
 f8e:	08 c0       	rjmp	.+16     	; 0xfa0 <__negsi2>

00000f90 <__divmodsi4_neg2>:
 f90:	50 95       	com	r21
 f92:	40 95       	com	r20
 f94:	30 95       	com	r19
 f96:	21 95       	neg	r18
 f98:	3f 4f       	sbci	r19, 0xFF	; 255
 f9a:	4f 4f       	sbci	r20, 0xFF	; 255
 f9c:	5f 4f       	sbci	r21, 0xFF	; 255

00000f9e <__divmodsi4_exit>:
 f9e:	08 95       	ret

00000fa0 <__negsi2>:
 fa0:	90 95       	com	r25
 fa2:	80 95       	com	r24
 fa4:	70 95       	com	r23
 fa6:	61 95       	neg	r22
 fa8:	7f 4f       	sbci	r23, 0xFF	; 255
 faa:	8f 4f       	sbci	r24, 0xFF	; 255
 fac:	9f 4f       	sbci	r25, 0xFF	; 255
 fae:	08 95       	ret

00000fb0 <_exit>:
 fb0:	f8 94       	cli

00000fb2 <__stop_program>:
 fb2:	ff cf       	rjmp	.-2      	; 0xfb2 <__stop_program>
