:1000000013C02DC02CC02BC02AC029C028C027C0B7
:1000100026C025C050C723C022C021C020C01FC099
:100020001EC01DC01CC01BC011241FBECFEFD2E0DC
:10003000DEBFCDBF11E0A0E0B1E0E4EBFFE002C025
:1000400005900D92A439B107D9F721E0A4E9B1E0F8
:1000500001C01D92AA3AB207E1F7B0D2A9C758C7AA
:10006000CF93DF93CDB7DEB71092A9011092A8010C
:1000700081E290E021E230E0F9012081286FFC016B
:10008000208381E290E021E230E0F90120812B7FA2
:10009000FC01208382E290E022E230E0F90120813D
:1000A000286CFC0120838CE490E023E5FC01208394
:1000B000DF91CF910895CF93DF9300D0CDB7DEB716
:1000C0009A83898389819A818130910529F18230CF
:1000D00091051CF4009749F06AC082309105A9F19E
:1000E0008330910509F44AC062C08CE490E02CE4AE
:1000F00030E0F9012081237FFC01208382E290E03F
:1001000022E230E0F90120812F7BFC012083109254
:10011000A9011092A8014BC08CE490E02CE430E0DF
:10012000F90120812C60FC01208382E290E022E230
:1001300030E0F90120812F7BFC01208381E090E0F9
:100140009093A9018093A80132C08CE490E02CE444
:1001500030E0F90120812C60FC01208382E290E0F4
:1001600022E230E0F90120812F77FC01208382E038
:1001700090E09093A9018093A80119C08CE490E0CD
:100180002CE430E0F90120812C60FC01208382E224
:1001900090E022E230E0F9012081277FFC012083FA
:1001A00083E090E09093A9018093A80100000F9054
:1001B0000F90DF91CF910895CF93DF9300D0CDB70B
:1001C000DEB78A838EE490E02A81FC012083000060
:1001D0008DE490E0FC0180818823D4F78EE490E0E8
:1001E000FC018081898389810F900F90DF91CF91ED
:1001F0000895CF93DF93CDB7DEB78091A80190919A
:10020000A90181309105B9F0823091051CF4009765
:1002100041F02FC082309105C1F083309105F9F093
:1002200028C082E290E022E230E0F90120812064DF
:10023000FC0120831EC082E290E022E230E0F9015E
:1002400020812064FC01208314C082E290E022E23D
:1002500030E0F90120812068FC0120830AC082E29D
:1002600090E022E230E0F90120812860FC01208347
:100270000000DF91CF9108950F931F93CF93DF93E9
:1002800000D000D01F92CDB7DEB79B838A837D83D9
:100290006C8381E090E00FDF88EE898389818CDFB9
:1002A0008C819D812A813B818901080F191F80E083
:1002B00083DFF80180838C819D8101962A813B81B7
:1002C0008901080F191F80E077DFF80180838C8196
:1002D0009D8102962A813B818901080F191F80E0C8
:1002E0006BDFF80180838C819D8103962A813B819D
:1002F0008901080F191F80E05FDFF80180838C817E
:100300009D8104962A813B818901080F191F80E095
:1003100053DFF80180838C819D8105962A813B8182
:100320008901080F191F80E047DFF801808361DF32
:100330000F900F900F900F900F90DF91CF911F9122
:100340000F910895CF93DF9300D0CDB7DEB78983A7
:100350006A8381E090E0AFDE89812EDF8A812CDF25
:1003600048DF0F900F90DF91CF910895CF93DF93E7
:10037000CDB7DEB760970FB6F894DEBF0FBECDBF26
:1003800084E290E024E230E0F90120812D7FFC013D
:1003900020838EE0E0E0F1E0DE01139601900D9203
:1003A0008A95E1F71A8219821FC089819A81880F84
:1003B000991F9E012F5F3F4F820F931F0396FC01F1
:1003C000408189819A81880F991F9E012F5F3F4F3D
:1003D000820F931F0296FC018081642FB3DF898115
:1003E0009A8101969A83898389819A81880F991FBE
:1003F0009E012F5F3F4F820F931F0296FC01808169
:100400008F3F99F660960FB6F894DEBF0FBECDBF52
:10041000DF91CF910895CF93DF9300D0CDB7DEB7B2
:100420008A838A8180688A8381E090E044DE8A81C1
:10043000C3DE80E0C1DE8983DCDE89810F900F900E
:10044000DF91CF910895CF93DF93CDB7DEB783E2ED
:1004500090E0FC018081882F90E0827099270097BE
:1004600011F081E001C080E0DF91CF910895CF933A
:10047000DF93CDB7DEB781E290E021E230E0F90111
:1004800020812260FC01208388EC90E0FC01108236
:100490008CEC90E023EAFC0120838EEC90E0FC01E0
:1004A00010828DEC90E021E0FC0120838AEC90E04A
:1004B00022E0FC01208388EC90E02DE0FC01208309
:1004C000DF91CF910895CF93DF931F92CDB7DEB721
:1004D0008983000089EC90E0FC018081882F90E006
:1004E000807199270097B1F782ED90E02981FC0196
:1004F0002083000089EC90E0FC018081882F90E04F
:10050000827099270097B1F70F90DF91CF910895EE
:10051000CF93DF9300D000D01F92CDB7DEB79C837E
:100520008B836D831A8219820EC089819A812B81F7
:100530003C81820F931FFC018081C5DF89819A81F4
:1005400001969A8389838D81282F30E089819A8151
:100550008217930754F30F900F900F900F900F9006
:10056000DF91CF910895CF93DF9300D000D01F92F9
:10057000CDB7DEB79C838B836D838D81882F90E010
:1005800001979A8389830EC089819A812B813C814E
:10059000820F931FFC01808196DF89819A810197E8
:1005A0009A83898389819A81992374F70F900F9098
:1005B0000F900F900F90DF91CF910895EF92FF92DF
:1005C0000F931F93CF93DF93CDB7DEB7C658D109F2
:1005D0000FB6F894DEBF0FBECDBF42DD40D464E657
:1005E00070E080E090E0FCD342DF64E670E080E001
:1005F00090E0F6D360E18EE091E08ADFB7DE68EE4E
:1006000073E080E090E0ECD366E18EE191E080DF82
:100610008FE001DF898388E0ECE8F1E0DE019A9663
:1006200001900D928A95E1F71B821A8221C089817F
:100630008170882359F09E01265D3F4F8A819B81FE
:10064000820F931F21E3FC0120830AC09E01265DD7
:100650003F4F8A819B81820F931F20E3FC012083FF
:100660008981869589838A819B8101969B838A8370
:1006700089818823E1F667E184E391E049DFCE01D7
:100680008A9668E070DF64E08BE491E041DFDBDEB6
:10069000882309F4A4C38FE0BEDE8091A401909169
:1006A000A501A091A601B091A7018093A00190930C
:1006B000A101A093A201B093A30160E070E084E9DE
:1006C00091E0DADD28E0CE01C296FC01E22E119223
:1006D000EA94E9F787E090E09D838C833AC08091AB
:1006E000A0019091A101A091A201B091A3012AE0E3
:1006F00030E040E050E0BC01CD011CD4DC01CB0176
:1007000040E3480F9E012E5C3F4F8C819D81820FFC
:10071000931FFC0140838091A0019091A101A091C1
:10072000A201B091A3012AE030E040E050E0BC011A
:10073000CD0100D4DA01C9018093A0019093A101F9
:10074000A093A201B093A3018C819D8101979D8309
:100750008C838091A0019091A101A091A201B09100
:10076000A3010097A105B10509F0B9CF80919401CB
:10077000882F90E0A0E0B0E02227382F492F5A2F91
:1007800080919501882F90E0A0E0B0E0822B932B20
:10079000A42BB52B8E839F83A887B9878E819F81D9
:1007A000A885B98580789927AA27BB270097A10536
:1007B000B105D1F08E819F81A885B98580959095EE
:1007C000A095B0958E839F83A887B9878E819F81DE
:1007D000A885B9850196A11DB11D8E839F83A88729
:1007E000B9878DE28AAF02C08BE28AAF2E813F814A
:1007F00048855985DA01C901880F991FAA1FBB1FB7
:10080000880F991FAA1FBB1F820F931FA41FB51F1C
:100810009C01AD01220F331F441F551F220F331FB0
:10082000441F551F820F931FA41FB51F9C01AD01CC
:10083000220F331F441F551F220F331F441F551F04
:10084000820F931FA41FB51F9C01AD01280F391FF4
:100850004A1F5B1F220F331F441F551F220F331FD8
:10086000441F551F79018A01E81AF90A0A0B1B0B6C
:10087000D801C7018A879B87AC87BD8787E090E056
:100880009F878E872EC08A859B85AC85BD852AE093
:1008900030E040E050E0BC01CD016ED3DC01CB0183
:1008A00040E3480F9E01265C3F4F8E859F85820F57
:1008B000931FFC0140838A859B85AC85BD852AE01A
:1008C00030E040E050E0BC01CD0156D3DA01C9016F
:1008D0008A879B87AC87BD878E859F8501979F8779
:1008E0008E878E859F85863091056CF68EE28FAF60
:1008F00084E090E0998B888B2EC08A859B85AC859F
:10090000BD852AE030E040E050E0BC01CD0134D3A9
:10091000DC01CB0140E3480F9E01265C3F4F8889F4
:100920009989820F931FFC0140838A859B85AC8542
:10093000BD852AE030E040E050E0BC01CD011CD391
:10094000DA01C9018A879B87AC87BD878889998925
:100950000197998B888B88899989181619066CF2EA
:1009600080919601882F90E0A0E0B0E02227382FF8
:10097000492F5A2F80919701882F90E0A0E0B0E096
:10098000822B932BA42BB52B8A8B9B8BAC8BBD8B93
:100990008A899B89AC89BD8980789927AA27BB273A
:1009A0000097A105B105F1F08A899B89AC89BD89C1
:1009B00080959095A095B0958A8B9B8BAC8BBD8BC9
:1009C0008A899B89AC89BD890196A11DB11D8A8B3D
:1009D0009B8BAC8BBD8BCE018F5B9F4F2DE2FC01BF
:1009E000208306C0CE018F5B9F4F2BE2FC0120834A
:1009F0002A893B894C895D89DA01C901880F991FD1
:100A0000AA1FBB1F880F991FAA1FBB1F820F931F0E
:100A1000A41FB51F9C01AD01220F331F441F551F9A
:100A2000220F331F441F551F820F931FA41FB51F92
:100A30009C01AD01220F331F441F551F220F331F8E
:100A4000441F551F820F931FA41FB51F9C01AD01AA
:100A5000280F391F4A1F5B1F220F331F441F551FCA
:100A6000220F331F441F551F79018A01E81AF90A22
:100A70000A0B1B0BD801C7018E8B9F8BA88FB98FD8
:100A800087E090E09B8F8A8F2EC08E899F89A88DEA
:100A9000B98D2AE030E040E050E0BC01CD016CD2DD
:100AA000DC01CB0140E3480F9E012F5B3F4F8A8D55
:100AB0009B8D820F931FFC0140838E899F89A88D97
:100AC000B98D2AE030E040E050E0BC01CD0154D2C5
:100AD000DA01C9018E8B9F8BA88FB98F8A8D9B8D70
:100AE00001979B8F8A8F8A8D9B8D863091056CF63E
:100AF000CE018A5B9F4F2EE2FC01208384E090E0D0
:100B00009D8F8C8F2EC08E899F89A88DB98D2AE0EC
:100B100030E040E050E0BC01CD012ED2DC01CB0141
:100B200040E3480F9E012F5B3F4F8C8D9D8D820FC0
:100B3000931FFC0140838E899F89A88DB98D2AE07F
:100B400030E040E050E0BC01CD0116D2DA01C9012D
:100B50008E8B9F8BA88FB98F8C8D9D8D01979D8FCC
:100B60008C8F8C8D9D8D181619066CF280919801D2
:100B7000882F90E0A0E0B0E02227382F492F5A2F8D
:100B800080919901882F90E0A0E0B0E0822B932B18
:100B9000A42BB52B8E8F9F8FA8A3B9A38E8D9F8D6D
:100BA000A8A1B9A180789927AA27BB270097A105FA
:100BB000B105F1F08E8D9F8DA8A1B9A1809590957A
:100BC000A095B0958E8F9F8FA8A3B9A38E8D9F8D72
:100BD000A8A1B9A10196A11DB11D8E8F9F8FA8A3B9
:100BE000B9A3CE01885B9F4F2DE2FC01208306C094
:100BF000CE01885B9F4F2BE2FC0120832E8D3F8D21
:100C000048A159A1DA01C901880F991FAA1FBB1F6A
:100C1000880F991FAA1FBB1F820F931FA41FB51F08
:100C20009C01AD01220F331F441F551F220F331F9C
:100C3000441F551F820F931FA41FB51F9C01AD01B8
:100C4000220F331F441F551F220F331F441F551FF0
:100C5000820F931FA41FB51F9C01AD01280F391FE0
:100C60004A1F5B1F220F331F441F551F220F331FC4
:100C7000441F551F79018A01E81AF90A0A0B1B0B58
:100C8000D801C7018AA39BA3ACA3BDA387E090E0D2
:100C90009FA38EA32EC08AA19BA1ACA1BDA12AE0D7
:100CA00030E040E050E0BC01CD0166D1DC01CB0179
:100CB00040E3480F9E01285B3F4F8EA19FA1820F0A
:100CC000931FFC0140838AA19BA1ACA1BDA12AE096
:100CD00030E040E050E0BC01CD014ED1DA01C90165
:100CE0008AA39BA3ACA3BDA38EA19FA101979FA3A1
:100CF0008EA38EA19FA1863091056CF6CE01885BF4
:100D00009F4F2EE2FC01258384E090E099A788A7FD
:100D10002EC08AA19BA1ACA1BDA12AE030E040E099
:100D200050E0BC01CD0128D1DC01CB0140E3480FEC
:100D30009E01285B3F4F88A599A5820F931FFC0158
:100D400040838AA19BA1ACA1BDA12AE030E040E094
:100D500050E0BC01CD0110D1DA01C9018AA39BA3E7
:100D6000ACA3BDA388A599A5019799A788A788A535
:100D700099A5181619066CF26DE08FE491E0C8DBB6
:100D8000CE01C29668E0C4DB63E08CE591E0C0DB95
:100D900069E082E691E0BCDBCE01CA9667E0B8DB91
:100DA00067E08BE691E0B4DB69E082E791E0B0DBDD
:100DB000CE018F5B9F4F67E0ABDB67E08BE691E096
:100DC000A7DB69E08BE791E0A3DBCE01885B9F4F57
:100DD00067E09EDB67E084E891E09ADB58CC57CC73
:100DE000CF93DF9300D000D0CDB7DEB769837A838D
:100DF0008B839C838091A4019091A501A091A60171
:100E0000B091A7018093A0019093A101A093A201AA
:100E1000B093A30100002091A4013091A50140915D
:100E2000A6015091A7018091A0019091A101A091EC
:100E3000A201B091A301281B390B4A0B5B0B8981DE
:100E40009A81AB81BC8182179307A407B50718F775
:100E50000F900F900F900F90DF91CF910895CF9347
:100E6000DF93CDB7DEB785E490E022E0FC0120837C
:100E700086E490E024E0FC01208387E490E0FC011C
:100E8000108288E490E02CE7FC01208386EB90E060
:100E9000FC0110828EE690E022E0FC01208310929B
:100EA000A4011092A5011092A6011092A7017894B6
:100EB000DF91CF9108951F920F9200905F000F92E3
:100EC00011248F939F93AF93BF93CF93DF93CDB7AD
:100ED000DEB78091A4019091A501A091A601B091E7
:100EE000A7010196A11DB11D8093A4019093A501B6
:100EF000A093A601B093A701DF91CF91BF91AF91CD
:100F00009F918F910F9000925F000F901F90189506
:100F10001F920F9200905F000F921124CF93DF93E6
:100F2000CDB7DEB7DF91CF910F9000925F000F90A9
:100F30001F901895A1E21A2EAA1BBB1BFD010DC024
:100F4000AA1FBB1FEE1FFF1FA217B307E407F50779
:100F500020F0A21BB30BE40BF50B661F771F881F55
:100F6000991F1A9469F760957095809590959B01EB
:100F7000AC01BD01CF010895052E97FB16F4009436
:100F80000FD057FD05D0D6DF07FC02D046F408C0CD
:100F900050954095309521953F4F4F4F5F4F0895A5
:100FA00090958095709561957F4F8F4F9F4F0895D5
:040FB000F894FFCFE3
:100FB40020F82100220423C024402E41FF00554183
:100FC40052542052454144592E2E2E0A0D004759A1
:100FD400524F20494E495449414C495A45442E2EBA
:100FE4002E0A0D004759524F53434F504520444554
:100FF400564943452049443A0A0D000A0A0D005453
:10100400696D655374616D703A202000206D730A18
:101014000D0058646174613A202000206470730AE2
:101024000D0059646174613A2020005A646174614E
:101034003A202000206470730A0A0D004154414490
:04104400204F4E00EB
:00000001FF
