
FTDITest.elf:     file format elf32-avr

Sections:
Idx Name          Size      VMA       LMA       File off  Algn
  0 .data         00000010  00800100  000004c4  00000558  2**0
                  CONTENTS, ALLOC, LOAD, DATA
  1 .text         000004c4  00000000  00000000  00000094  2**1
                  CONTENTS, ALLOC, LOAD, READONLY, CODE
  2 .bss          00000025  00800110  00800110  00000568  2**0
                  ALLOC
  3 .comment      00000030  00000000  00000000  00000568  2**0
                  CONTENTS, READONLY
  4 .debug_aranges 00000058  00000000  00000000  00000598  2**0
                  CONTENTS, READONLY, DEBUGGING
  5 .debug_info   0000020b  00000000  00000000  000005f0  2**0
                  CONTENTS, READONLY, DEBUGGING
  6 .debug_abbrev 000000e2  00000000  00000000  000007fb  2**0
                  CONTENTS, READONLY, DEBUGGING
  7 .debug_line   0000019c  00000000  00000000  000008dd  2**0
                  CONTENTS, READONLY, DEBUGGING
  8 .debug_frame  00000158  00000000  00000000  00000a7c  2**2
                  CONTENTS, READONLY, DEBUGGING
  9 .debug_str    000001b9  00000000  00000000  00000bd4  2**0
                  CONTENTS, READONLY, DEBUGGING
 10 .debug_loc    000002c0  00000000  00000000  00000d8d  2**0
                  CONTENTS, READONLY, DEBUGGING
 11 .debug_ranges 00000048  00000000  00000000  0000104d  2**0
                  CONTENTS, READONLY, DEBUGGING

Disassembly of section .text:

00000000 <__vectors>:
   0:	13 c0       	rjmp	.+38     	; 0x28 <__ctors_end>
   2:	2d c0       	rjmp	.+90     	; 0x5e <__bad_interrupt>
   4:	2c c0       	rjmp	.+88     	; 0x5e <__bad_interrupt>
   6:	2b c0       	rjmp	.+86     	; 0x5e <__bad_interrupt>
   8:	2a c0       	rjmp	.+84     	; 0x5e <__bad_interrupt>
   a:	29 c0       	rjmp	.+82     	; 0x5e <__bad_interrupt>
   c:	28 c0       	rjmp	.+80     	; 0x5e <__bad_interrupt>
   e:	27 c0       	rjmp	.+78     	; 0x5e <__bad_interrupt>
  10:	26 c0       	rjmp	.+76     	; 0x5e <__bad_interrupt>
  12:	25 c0       	rjmp	.+74     	; 0x5e <__bad_interrupt>
  14:	d8 c1       	rjmp	.+944    	; 0x3c6 <__vector_10>
  16:	23 c0       	rjmp	.+70     	; 0x5e <__bad_interrupt>
  18:	22 c0       	rjmp	.+68     	; 0x5e <__bad_interrupt>
  1a:	21 c0       	rjmp	.+66     	; 0x5e <__bad_interrupt>
  1c:	20 c0       	rjmp	.+64     	; 0x5e <__bad_interrupt>
  1e:	1f c0       	rjmp	.+62     	; 0x5e <__bad_interrupt>
  20:	1e c0       	rjmp	.+60     	; 0x5e <__bad_interrupt>
  22:	1d c0       	rjmp	.+58     	; 0x5e <__bad_interrupt>
  24:	1c c0       	rjmp	.+56     	; 0x5e <__bad_interrupt>
  26:	1b c0       	rjmp	.+54     	; 0x5e <__bad_interrupt>

00000028 <__ctors_end>:
  28:	11 24       	eor	r1, r1
  2a:	1f be       	out	0x3f, r1	; 63
  2c:	cf ef       	ldi	r28, 0xFF	; 255
  2e:	d2 e0       	ldi	r29, 0x02	; 2
  30:	de bf       	out	0x3e, r29	; 62
  32:	cd bf       	out	0x3d, r28	; 61

00000034 <__do_copy_data>:
  34:	11 e0       	ldi	r17, 0x01	; 1
  36:	a0 e0       	ldi	r26, 0x00	; 0
  38:	b1 e0       	ldi	r27, 0x01	; 1
  3a:	e4 ec       	ldi	r30, 0xC4	; 196
  3c:	f4 e0       	ldi	r31, 0x04	; 4
  3e:	02 c0       	rjmp	.+4      	; 0x44 <__SREG__+0x5>
  40:	05 90       	lpm	r0, Z+
  42:	0d 92       	st	X+, r0
  44:	a0 31       	cpi	r26, 0x10	; 16
  46:	b1 07       	cpc	r27, r17
  48:	d9 f7       	brne	.-10     	; 0x40 <__SREG__+0x1>

0000004a <__do_clear_bss>:
  4a:	21 e0       	ldi	r18, 0x01	; 1
  4c:	a0 e1       	ldi	r26, 0x10	; 16
  4e:	b1 e0       	ldi	r27, 0x01	; 1
  50:	01 c0       	rjmp	.+2      	; 0x54 <.do_clear_bss_start>

00000052 <.do_clear_bss_loop>:
  52:	1d 92       	st	X+, r1

00000054 <.do_clear_bss_start>:
  54:	a5 33       	cpi	r26, 0x35	; 53
  56:	b2 07       	cpc	r27, r18
  58:	e1 f7       	brne	.-8      	; 0x52 <.do_clear_bss_loop>
  5a:	53 d0       	rcall	.+166    	; 0x102 <main>
  5c:	31 c2       	rjmp	.+1122   	; 0x4c0 <_exit>

0000005e <__bad_interrupt>:
  5e:	e0 c1       	rjmp	.+960    	; 0x420 <__vector_default>

00000060 <uARTStart>:
    }
}

void delay(unsigned long delayTime){
	mark = millis;
	while((millis - mark) <= delayTime){
  60:	cf 93       	push	r28
  62:	df 93       	push	r29
  64:	cd b7       	in	r28, 0x3d	; 61
  66:	de b7       	in	r29, 0x3e	; 62
  68:	81 e2       	ldi	r24, 0x21	; 33
  6a:	90 e0       	ldi	r25, 0x00	; 0
  6c:	21 e2       	ldi	r18, 0x21	; 33
  6e:	30 e0       	ldi	r19, 0x00	; 0
		;
	}
}
  70:	f9 01       	movw	r30, r18
  72:	20 81       	ld	r18, Z
  74:	22 60       	ori	r18, 0x02	; 2
  76:	fc 01       	movw	r30, r24
  78:	20 83       	st	Z, r18
  7a:	88 ec       	ldi	r24, 0xC8	; 200
  7c:	90 e0       	ldi	r25, 0x00	; 0
void writeUart(char toSend);


void uARTStart(void){
DDRA |= (1<<1);
LINCR = 0x00;
  7e:	fc 01       	movw	r30, r24
  80:	10 82       	st	Z, r1
LINBTR = (1<<LDISR)|(1<<LBT5)|(1<<LBT1)|(1<<LBT5);
  82:	8c ec       	ldi	r24, 0xCC	; 204
  84:	90 e0       	ldi	r25, 0x00	; 0
  86:	22 ea       	ldi	r18, 0xA2	; 162
  88:	fc 01       	movw	r30, r24
  8a:	20 83       	st	Z, r18
LINBRRH = 0x00;
  8c:	8e ec       	ldi	r24, 0xCE	; 206
  8e:	90 e0       	ldi	r25, 0x00	; 0
  90:	fc 01       	movw	r30, r24
  92:	10 82       	st	Z, r1
LINBRRL = (1<<LDIV0);		//35 samples/bit, (1+1) clk cycles per sample, 8 MHz clock, 115200 b/s
  94:	8d ec       	ldi	r24, 0xCD	; 205
  96:	90 e0       	ldi	r25, 0x00	; 0
  98:	21 e0       	ldi	r18, 0x01	; 1
  9a:	fc 01       	movw	r30, r24
  9c:	20 83       	st	Z, r18
LINENIR = (1<<LENTXOK);
  9e:	8a ec       	ldi	r24, 0xCA	; 202
  a0:	90 e0       	ldi	r25, 0x00	; 0
  a2:	22 e0       	ldi	r18, 0x02	; 2
  a4:	fc 01       	movw	r30, r24
  a6:	20 83       	st	Z, r18
LINCR = (1<<LENA)|(1<<LCMD2)|(1<<LCMD0);
  a8:	88 ec       	ldi	r24, 0xC8	; 200
  aa:	90 e0       	ldi	r25, 0x00	; 0
  ac:	2d e0       	ldi	r18, 0x0D	; 13
  ae:	fc 01       	movw	r30, r24
  b0:	20 83       	st	Z, r18
}
  b2:	df 91       	pop	r29
  b4:	cf 91       	pop	r28
  b6:	08 95       	ret

000000b8 <writeUart>:

void writeUart(char toSend){
  b8:	cf 93       	push	r28
  ba:	df 93       	push	r29
  bc:	1f 92       	push	r1
  be:	cd b7       	in	r28, 0x3d	; 61
  c0:	de b7       	in	r29, 0x3e	; 62
  c2:	89 83       	std	Y+1, r24	; 0x01
	while(LINSIR&(1<<LBUSY)){}
  c4:	00 00       	nop
  c6:	89 ec       	ldi	r24, 0xC9	; 201
  c8:	90 e0       	ldi	r25, 0x00	; 0
  ca:	fc 01       	movw	r30, r24
  cc:	80 81       	ld	r24, Z
  ce:	88 2f       	mov	r24, r24
  d0:	90 e0       	ldi	r25, 0x00	; 0
  d2:	80 71       	andi	r24, 0x10	; 16
  d4:	99 27       	eor	r25, r25
  d6:	00 97       	sbiw	r24, 0x00	; 0
  d8:	b1 f7       	brne	.-20     	; 0xc6 <writeUart+0xe>
	LINDAT = toSend;
  da:	82 ed       	ldi	r24, 0xD2	; 210
  dc:	90 e0       	ldi	r25, 0x00	; 0
  de:	29 81       	ldd	r18, Y+1	; 0x01
  e0:	fc 01       	movw	r30, r24
  e2:	20 83       	st	Z, r18
	while(LINSIR&(1<<LTXOK)){}
  e4:	00 00       	nop
  e6:	89 ec       	ldi	r24, 0xC9	; 201
  e8:	90 e0       	ldi	r25, 0x00	; 0
  ea:	fc 01       	movw	r30, r24
  ec:	80 81       	ld	r24, Z
  ee:	88 2f       	mov	r24, r24
  f0:	90 e0       	ldi	r25, 0x00	; 0
  f2:	82 70       	andi	r24, 0x02	; 2
  f4:	99 27       	eor	r25, r25
  f6:	00 97       	sbiw	r24, 0x00	; 0
  f8:	b1 f7       	brne	.-20     	; 0xe6 <writeUart+0x2e>
}
  fa:	0f 90       	pop	r0
  fc:	df 91       	pop	r29
  fe:	cf 91       	pop	r28
 100:	08 95       	ret

00000102 <main>:
int dummy = 0;
long markTime;
int i;

int main(void)
{	
 102:	ef 92       	push	r14
 104:	ff 92       	push	r15
 106:	0f 93       	push	r16
 108:	1f 93       	push	r17
 10a:	cf 93       	push	r28
 10c:	df 93       	push	r29
 10e:	cd b7       	in	r28, 0x3d	; 61
 110:	de b7       	in	r29, 0x3e	; 62
 112:	2f 97       	sbiw	r28, 0x0f	; 15
 114:	0f b6       	in	r0, 0x3f	; 63
 116:	f8 94       	cli
 118:	de bf       	out	0x3e, r29	; 62
 11a:	0f be       	out	0x3f, r0	; 63
 11c:	cd bf       	out	0x3d, r28	; 61
	DDRA |= (1<<PINA2);
 11e:	81 e2       	ldi	r24, 0x21	; 33
 120:	90 e0       	ldi	r25, 0x00	; 0
 122:	21 e2       	ldi	r18, 0x21	; 33
 124:	30 e0       	ldi	r19, 0x00	; 0
 126:	f9 01       	movw	r30, r18
 128:	20 81       	ld	r18, Z
 12a:	24 60       	ori	r18, 0x04	; 4
 12c:	fc 01       	movw	r30, r24
 12e:	20 83       	st	Z, r18
	PORTA |= (1<<PINA2);
 130:	82 e2       	ldi	r24, 0x22	; 34
 132:	90 e0       	ldi	r25, 0x00	; 0
 134:	22 e2       	ldi	r18, 0x22	; 34
 136:	30 e0       	ldi	r19, 0x00	; 0
 138:	f9 01       	movw	r30, r18
 13a:	20 81       	ld	r18, Z
 13c:	24 60       	ori	r18, 0x04	; 4
 13e:	fc 01       	movw	r30, r24
 140:	20 83       	st	Z, r18
	initSysTime();
 142:	82 d0       	rcall	.+260    	; 0x248 <initSysTime>
	uARTStart();
 144:	8d df       	rcall	.-230    	; 0x60 <uARTStart>
	char toSend[] = "UART TESTING\n\r";
 146:	2f e0       	ldi	r18, 0x0F	; 15
 148:	e0 e0       	ldi	r30, 0x00	; 0
 14a:	f1 e0       	ldi	r31, 0x01	; 1
 14c:	ce 01       	movw	r24, r28
 14e:	01 96       	adiw	r24, 0x01	; 1
 150:	dc 01       	movw	r26, r24
 152:	01 90       	ld	r0, Z+
 154:	0d 92       	st	X+, r0
 156:	2a 95       	dec	r18
 158:	e1 f7       	brne	.-8      	; 0x152 <main+0x50>
    while(1)
    {
		mark = millis;
 15a:	80 91 31 01 	lds	r24, 0x0131
 15e:	90 91 32 01 	lds	r25, 0x0132
 162:	a0 91 33 01 	lds	r26, 0x0133
 166:	b0 91 34 01 	lds	r27, 0x0134
 16a:	80 93 2d 01 	sts	0x012D, r24
 16e:	90 93 2e 01 	sts	0x012E, r25
 172:	a0 93 2f 01 	sts	0x012F, r26
 176:	b0 93 30 01 	sts	0x0130, r27
		millisChar(timeToSend);
 17a:	82 e1       	ldi	r24, 0x12	; 18
 17c:	91 e0       	ldi	r25, 0x01	; 1
 17e:	90 d0       	rcall	.+288    	; 0x2a0 <millisChar>
		for(i = sizeof(timeToSend)-1; i>=0; i--){
 180:	84 e1       	ldi	r24, 0x14	; 20
 182:	90 e0       	ldi	r25, 0x00	; 0
 184:	90 93 2c 01 	sts	0x012C, r25
 188:	80 93 2b 01 	sts	0x012B, r24
 18c:	33 c0       	rjmp	.+102    	; 0x1f4 <main+0xf2>
			if(timeToSend[i] == '\f'){
 18e:	80 91 2b 01 	lds	r24, 0x012B
 192:	90 91 2c 01 	lds	r25, 0x012C
 196:	8e 5e       	subi	r24, 0xEE	; 238
 198:	9e 4f       	sbci	r25, 0xFE	; 254
 19a:	fc 01       	movw	r30, r24
 19c:	80 81       	ld	r24, Z
 19e:	8c 30       	cpi	r24, 0x0C	; 12
 1a0:	31 f4       	brne	.+12     	; 0x1ae <main+0xac>
				dummy = 1;
 1a2:	81 e0       	ldi	r24, 0x01	; 1
 1a4:	90 e0       	ldi	r25, 0x00	; 0
 1a6:	90 93 11 01 	sts	0x0111, r25
 1aa:	80 93 10 01 	sts	0x0110, r24
			}
			if(dummy == 1 && timeToSend[i] != '\f'){
 1ae:	80 91 10 01 	lds	r24, 0x0110
 1b2:	90 91 11 01 	lds	r25, 0x0111
 1b6:	81 30       	cpi	r24, 0x01	; 1
 1b8:	91 05       	cpc	r25, r1
 1ba:	99 f4       	brne	.+38     	; 0x1e2 <main+0xe0>
 1bc:	80 91 2b 01 	lds	r24, 0x012B
 1c0:	90 91 2c 01 	lds	r25, 0x012C
 1c4:	8e 5e       	subi	r24, 0xEE	; 238
 1c6:	9e 4f       	sbci	r25, 0xFE	; 254
 1c8:	fc 01       	movw	r30, r24
 1ca:	80 81       	ld	r24, Z
 1cc:	8c 30       	cpi	r24, 0x0C	; 12
 1ce:	49 f0       	breq	.+18     	; 0x1e2 <main+0xe0>
				writeUart(timeToSend[i]);
 1d0:	80 91 2b 01 	lds	r24, 0x012B
 1d4:	90 91 2c 01 	lds	r25, 0x012C
 1d8:	8e 5e       	subi	r24, 0xEE	; 238
 1da:	9e 4f       	sbci	r25, 0xFE	; 254
 1dc:	fc 01       	movw	r30, r24
 1de:	80 81       	ld	r24, Z
 1e0:	6b df       	rcall	.-298    	; 0xb8 <writeUart>
	char toSend[] = "UART TESTING\n\r";
    while(1)
    {
		mark = millis;
		millisChar(timeToSend);
		for(i = sizeof(timeToSend)-1; i>=0; i--){
 1e2:	80 91 2b 01 	lds	r24, 0x012B
 1e6:	90 91 2c 01 	lds	r25, 0x012C
 1ea:	01 97       	sbiw	r24, 0x01	; 1
 1ec:	90 93 2c 01 	sts	0x012C, r25
 1f0:	80 93 2b 01 	sts	0x012B, r24
 1f4:	80 91 2b 01 	lds	r24, 0x012B
 1f8:	90 91 2c 01 	lds	r25, 0x012C
 1fc:	99 23       	and	r25, r25
 1fe:	3c f6       	brge	.-114    	; 0x18e <main+0x8c>
			if(dummy == 1 && timeToSend[i] != '\f'){
				writeUart(timeToSend[i]);
			}
			
		}
		dummy = 0;
 200:	10 92 11 01 	sts	0x0111, r1
 204:	10 92 10 01 	sts	0x0110, r1
/*        for(int i=0; i<sizeof(toSend); i++){
			writeUart(toSend[i]);
		}
*/		while((millis-mark)<500){
 208:	00 00       	nop
 20a:	20 91 31 01 	lds	r18, 0x0131
 20e:	30 91 32 01 	lds	r19, 0x0132
 212:	40 91 33 01 	lds	r20, 0x0133
 216:	50 91 34 01 	lds	r21, 0x0134
 21a:	80 91 2d 01 	lds	r24, 0x012D
 21e:	90 91 2e 01 	lds	r25, 0x012E
 222:	a0 91 2f 01 	lds	r26, 0x012F
 226:	b0 91 30 01 	lds	r27, 0x0130
 22a:	79 01       	movw	r14, r18
 22c:	8a 01       	movw	r16, r20
 22e:	e8 1a       	sub	r14, r24
 230:	f9 0a       	sbc	r15, r25
 232:	0a 0b       	sbc	r16, r26
 234:	1b 0b       	sbc	r17, r27
 236:	d8 01       	movw	r26, r16
 238:	c7 01       	movw	r24, r14
 23a:	84 3f       	cpi	r24, 0xF4	; 244
 23c:	01 e0       	ldi	r16, 0x01	; 1
 23e:	90 07       	cpc	r25, r16
 240:	a1 05       	cpc	r26, r1
 242:	b1 05       	cpc	r27, r1
 244:	10 f3       	brcs	.-60     	; 0x20a <main+0x108>
		;
		}
    }
 246:	89 cf       	rjmp	.-238    	; 0x15a <main+0x58>

00000248 <initSysTime>:
	while((millis - mark) <= delayTime){
		;
	}
}

void initSysTime(void){
 248:	cf 93       	push	r28
 24a:	df 93       	push	r29
 24c:	cd b7       	in	r28, 0x3d	; 61
 24e:	de b7       	in	r29, 0x3e	; 62
	TCCR0A = (1<<WGM01)|(1<<COM0A0);	//CTC mode  
 250:	85 e4       	ldi	r24, 0x45	; 69
 252:	90 e0       	ldi	r25, 0x00	; 0
 254:	22 e4       	ldi	r18, 0x42	; 66
 256:	fc 01       	movw	r30, r24
 258:	20 83       	st	Z, r18
	TCCR0B = (1<<CS02);		// Clock prescaler is 64 - 8 MHz/64 = 125 kHZ = 125 cycles/millisecond
 25a:	86 e4       	ldi	r24, 0x46	; 70
 25c:	90 e0       	ldi	r25, 0x00	; 0
 25e:	24 e0       	ldi	r18, 0x04	; 4
 260:	fc 01       	movw	r30, r24
 262:	20 83       	st	Z, r18
	TCNT0 = 0x00;			//Initialize clock counter
 264:	87 e4       	ldi	r24, 0x47	; 71
 266:	90 e0       	ldi	r25, 0x00	; 0
 268:	fc 01       	movw	r30, r24
 26a:	10 82       	st	Z, r1
	OCR0A = 0x7C;			//124 steps before counter reset
 26c:	88 e4       	ldi	r24, 0x48	; 72
 26e:	90 e0       	ldi	r25, 0x00	; 0
 270:	2c e7       	ldi	r18, 0x7C	; 124
 272:	fc 01       	movw	r30, r24
 274:	20 83       	st	Z, r18
	ASSR = 0x00;
 276:	86 eb       	ldi	r24, 0xB6	; 182
 278:	90 e0       	ldi	r25, 0x00	; 0
 27a:	fc 01       	movw	r30, r24
 27c:	10 82       	st	Z, r1
	TIMSK0 = (1<<OCIE0A);	//Enable Clock Compare Interrupts
 27e:	8e e6       	ldi	r24, 0x6E	; 110
 280:	90 e0       	ldi	r25, 0x00	; 0
 282:	22 e0       	ldi	r18, 0x02	; 2
 284:	fc 01       	movw	r30, r24
 286:	20 83       	st	Z, r18
	millis = 0;
 288:	10 92 31 01 	sts	0x0131, r1
 28c:	10 92 32 01 	sts	0x0132, r1
 290:	10 92 33 01 	sts	0x0133, r1
 294:	10 92 34 01 	sts	0x0134, r1
	sei();
 298:	78 94       	sei
}
 29a:	df 91       	pop	r29
 29c:	cf 91       	pop	r28
 29e:	08 95       	ret

000002a0 <millisChar>:

void millisChar(char output[]){
 2a0:	0f 93       	push	r16
 2a2:	1f 93       	push	r17
 2a4:	cf 93       	push	r28
 2a6:	df 93       	push	r29
 2a8:	cd b7       	in	r28, 0x3d	; 61
 2aa:	de b7       	in	r29, 0x3e	; 62
 2ac:	2a 97       	sbiw	r28, 0x0a	; 10
 2ae:	0f b6       	in	r0, 0x3f	; 63
 2b0:	f8 94       	cli
 2b2:	de bf       	out	0x3e, r29	; 62
 2b4:	0f be       	out	0x3f, r0	; 63
 2b6:	cd bf       	out	0x3d, r28	; 61
 2b8:	9a 83       	std	Y+2, r25	; 0x02
 2ba:	89 83       	std	Y+1, r24	; 0x01
	markTime = millis;
 2bc:	80 91 31 01 	lds	r24, 0x0131
 2c0:	90 91 32 01 	lds	r25, 0x0132
 2c4:	a0 91 33 01 	lds	r26, 0x0133
 2c8:	b0 91 34 01 	lds	r27, 0x0134
 2cc:	80 93 27 01 	sts	0x0127, r24
 2d0:	90 93 28 01 	sts	0x0128, r25
 2d4:	a0 93 29 01 	sts	0x0129, r26
 2d8:	b0 93 2a 01 	sts	0x012A, r27
	output[0] = '\n';
 2dc:	89 81       	ldd	r24, Y+1	; 0x01
 2de:	9a 81       	ldd	r25, Y+2	; 0x02
 2e0:	2a e0       	ldi	r18, 0x0A	; 10
 2e2:	fc 01       	movw	r30, r24
 2e4:	20 83       	st	Z, r18
	output[1] = '\r';
 2e6:	89 81       	ldd	r24, Y+1	; 0x01
 2e8:	9a 81       	ldd	r25, Y+2	; 0x02
 2ea:	01 96       	adiw	r24, 0x01	; 1
 2ec:	2d e0       	ldi	r18, 0x0D	; 13
 2ee:	fc 01       	movw	r30, r24
 2f0:	20 83       	st	Z, r18
	i = 2;
 2f2:	82 e0       	ldi	r24, 0x02	; 2
 2f4:	90 e0       	ldi	r25, 0x00	; 0
 2f6:	90 93 2c 01 	sts	0x012C, r25
 2fa:	80 93 2b 01 	sts	0x012B, r24
	while(markTime>0){
 2fe:	3f c0       	rjmp	.+126    	; 0x37e <__stack+0x7f>
		output[i] = (markTime % 10) + '0';
 300:	80 91 2b 01 	lds	r24, 0x012B
 304:	90 91 2c 01 	lds	r25, 0x012C
 308:	29 81       	ldd	r18, Y+1	; 0x01
 30a:	3a 81       	ldd	r19, Y+2	; 0x02
 30c:	89 01       	movw	r16, r18
 30e:	08 0f       	add	r16, r24
 310:	19 1f       	adc	r17, r25
 312:	80 91 27 01 	lds	r24, 0x0127
 316:	90 91 28 01 	lds	r25, 0x0128
 31a:	a0 91 29 01 	lds	r26, 0x0129
 31e:	b0 91 2a 01 	lds	r27, 0x012A
 322:	2a e0       	ldi	r18, 0x0A	; 10
 324:	30 e0       	ldi	r19, 0x00	; 0
 326:	40 e0       	ldi	r20, 0x00	; 0
 328:	50 e0       	ldi	r21, 0x00	; 0
 32a:	bc 01       	movw	r22, r24
 32c:	cd 01       	movw	r24, r26
 32e:	8a d0       	rcall	.+276    	; 0x444 <__divmodsi4>
 330:	dc 01       	movw	r26, r24
 332:	cb 01       	movw	r24, r22
 334:	80 5d       	subi	r24, 0xD0	; 208
 336:	f8 01       	movw	r30, r16
 338:	80 83       	st	Z, r24
		i++;
 33a:	80 91 2b 01 	lds	r24, 0x012B
 33e:	90 91 2c 01 	lds	r25, 0x012C
 342:	01 96       	adiw	r24, 0x01	; 1
 344:	90 93 2c 01 	sts	0x012C, r25
 348:	80 93 2b 01 	sts	0x012B, r24
		markTime = markTime/10;
 34c:	80 91 27 01 	lds	r24, 0x0127
 350:	90 91 28 01 	lds	r25, 0x0128
 354:	a0 91 29 01 	lds	r26, 0x0129
 358:	b0 91 2a 01 	lds	r27, 0x012A
 35c:	2a e0       	ldi	r18, 0x0A	; 10
 35e:	30 e0       	ldi	r19, 0x00	; 0
 360:	40 e0       	ldi	r20, 0x00	; 0
 362:	50 e0       	ldi	r21, 0x00	; 0
 364:	bc 01       	movw	r22, r24
 366:	cd 01       	movw	r24, r26
 368:	6d d0       	rcall	.+218    	; 0x444 <__divmodsi4>
 36a:	da 01       	movw	r26, r20
 36c:	c9 01       	movw	r24, r18
 36e:	80 93 27 01 	sts	0x0127, r24
 372:	90 93 28 01 	sts	0x0128, r25
 376:	a0 93 29 01 	sts	0x0129, r26
 37a:	b0 93 2a 01 	sts	0x012A, r27
void millisChar(char output[]){
	markTime = millis;
	output[0] = '\n';
	output[1] = '\r';
	i = 2;
	while(markTime>0){
 37e:	80 91 27 01 	lds	r24, 0x0127
 382:	90 91 28 01 	lds	r25, 0x0128
 386:	a0 91 29 01 	lds	r26, 0x0129
 38a:	b0 91 2a 01 	lds	r27, 0x012A
 38e:	18 16       	cp	r1, r24
 390:	19 06       	cpc	r1, r25
 392:	1a 06       	cpc	r1, r26
 394:	1b 06       	cpc	r1, r27
 396:	0c f4       	brge	.+2      	; 0x39a <__stack+0x9b>
 398:	b3 cf       	rjmp	.-154    	; 0x300 <__stack+0x1>
		output[i] = (markTime % 10) + '0';
		i++;
		markTime = markTime/10;
	}
	output[i] = '\f';
 39a:	80 91 2b 01 	lds	r24, 0x012B
 39e:	90 91 2c 01 	lds	r25, 0x012C
 3a2:	29 81       	ldd	r18, Y+1	; 0x01
 3a4:	3a 81       	ldd	r19, Y+2	; 0x02
 3a6:	82 0f       	add	r24, r18
 3a8:	93 1f       	adc	r25, r19
 3aa:	2c e0       	ldi	r18, 0x0C	; 12
 3ac:	fc 01       	movw	r30, r24
 3ae:	20 83       	st	Z, r18
}
 3b0:	2a 96       	adiw	r28, 0x0a	; 10
 3b2:	0f b6       	in	r0, 0x3f	; 63
 3b4:	f8 94       	cli
 3b6:	de bf       	out	0x3e, r29	; 62
 3b8:	0f be       	out	0x3f, r0	; 63
 3ba:	cd bf       	out	0x3d, r28	; 61
 3bc:	df 91       	pop	r29
 3be:	cf 91       	pop	r28
 3c0:	1f 91       	pop	r17
 3c2:	0f 91       	pop	r16
 3c4:	08 95       	ret

000003c6 <__vector_10>:


ISR(TIMER0_COMPA_vect){
 3c6:	1f 92       	push	r1
 3c8:	0f 92       	push	r0
 3ca:	00 90 5f 00 	lds	r0, 0x005F
 3ce:	0f 92       	push	r0
 3d0:	11 24       	eor	r1, r1
 3d2:	8f 93       	push	r24
 3d4:	9f 93       	push	r25
 3d6:	af 93       	push	r26
 3d8:	bf 93       	push	r27
 3da:	cf 93       	push	r28
 3dc:	df 93       	push	r29
 3de:	cd b7       	in	r28, 0x3d	; 61
 3e0:	de b7       	in	r29, 0x3e	; 62
	millis += 1;	
 3e2:	80 91 31 01 	lds	r24, 0x0131
 3e6:	90 91 32 01 	lds	r25, 0x0132
 3ea:	a0 91 33 01 	lds	r26, 0x0133
 3ee:	b0 91 34 01 	lds	r27, 0x0134
 3f2:	01 96       	adiw	r24, 0x01	; 1
 3f4:	a1 1d       	adc	r26, r1
 3f6:	b1 1d       	adc	r27, r1
 3f8:	80 93 31 01 	sts	0x0131, r24
 3fc:	90 93 32 01 	sts	0x0132, r25
 400:	a0 93 33 01 	sts	0x0133, r26
 404:	b0 93 34 01 	sts	0x0134, r27
}
 408:	df 91       	pop	r29
 40a:	cf 91       	pop	r28
 40c:	bf 91       	pop	r27
 40e:	af 91       	pop	r26
 410:	9f 91       	pop	r25
 412:	8f 91       	pop	r24
 414:	0f 90       	pop	r0
 416:	00 92 5f 00 	sts	0x005F, r0
 41a:	0f 90       	pop	r0
 41c:	1f 90       	pop	r1
 41e:	18 95       	reti

00000420 <__vector_default>:

ISR(BADISR_vect){
 420:	1f 92       	push	r1
 422:	0f 92       	push	r0
 424:	00 90 5f 00 	lds	r0, 0x005F
 428:	0f 92       	push	r0
 42a:	11 24       	eor	r1, r1
 42c:	cf 93       	push	r28
 42e:	df 93       	push	r29
 430:	cd b7       	in	r28, 0x3d	; 61
 432:	de b7       	in	r29, 0x3e	; 62
	
 434:	df 91       	pop	r29
 436:	cf 91       	pop	r28
 438:	0f 90       	pop	r0
 43a:	00 92 5f 00 	sts	0x005F, r0
 43e:	0f 90       	pop	r0
 440:	1f 90       	pop	r1
 442:	18 95       	reti

00000444 <__divmodsi4>:
 444:	05 2e       	mov	r0, r21
 446:	97 fb       	bst	r25, 7
 448:	16 f4       	brtc	.+4      	; 0x44e <__divmodsi4+0xa>
 44a:	00 94       	com	r0
 44c:	0f d0       	rcall	.+30     	; 0x46c <__negsi2>
 44e:	57 fd       	sbrc	r21, 7
 450:	05 d0       	rcall	.+10     	; 0x45c <__divmodsi4_neg2>
 452:	14 d0       	rcall	.+40     	; 0x47c <__udivmodsi4>
 454:	07 fc       	sbrc	r0, 7
 456:	02 d0       	rcall	.+4      	; 0x45c <__divmodsi4_neg2>
 458:	46 f4       	brtc	.+16     	; 0x46a <__divmodsi4_exit>
 45a:	08 c0       	rjmp	.+16     	; 0x46c <__negsi2>

0000045c <__divmodsi4_neg2>:
 45c:	50 95       	com	r21
 45e:	40 95       	com	r20
 460:	30 95       	com	r19
 462:	21 95       	neg	r18
 464:	3f 4f       	sbci	r19, 0xFF	; 255
 466:	4f 4f       	sbci	r20, 0xFF	; 255
 468:	5f 4f       	sbci	r21, 0xFF	; 255

0000046a <__divmodsi4_exit>:
 46a:	08 95       	ret

0000046c <__negsi2>:
 46c:	90 95       	com	r25
 46e:	80 95       	com	r24
 470:	70 95       	com	r23
 472:	61 95       	neg	r22
 474:	7f 4f       	sbci	r23, 0xFF	; 255
 476:	8f 4f       	sbci	r24, 0xFF	; 255
 478:	9f 4f       	sbci	r25, 0xFF	; 255
 47a:	08 95       	ret

0000047c <__udivmodsi4>:
 47c:	a1 e2       	ldi	r26, 0x21	; 33
 47e:	1a 2e       	mov	r1, r26
 480:	aa 1b       	sub	r26, r26
 482:	bb 1b       	sub	r27, r27
 484:	fd 01       	movw	r30, r26
 486:	0d c0       	rjmp	.+26     	; 0x4a2 <__udivmodsi4_ep>

00000488 <__udivmodsi4_loop>:
 488:	aa 1f       	adc	r26, r26
 48a:	bb 1f       	adc	r27, r27
 48c:	ee 1f       	adc	r30, r30
 48e:	ff 1f       	adc	r31, r31
 490:	a2 17       	cp	r26, r18
 492:	b3 07       	cpc	r27, r19
 494:	e4 07       	cpc	r30, r20
 496:	f5 07       	cpc	r31, r21
 498:	20 f0       	brcs	.+8      	; 0x4a2 <__udivmodsi4_ep>
 49a:	a2 1b       	sub	r26, r18
 49c:	b3 0b       	sbc	r27, r19
 49e:	e4 0b       	sbc	r30, r20
 4a0:	f5 0b       	sbc	r31, r21

000004a2 <__udivmodsi4_ep>:
 4a2:	66 1f       	adc	r22, r22
 4a4:	77 1f       	adc	r23, r23
 4a6:	88 1f       	adc	r24, r24
 4a8:	99 1f       	adc	r25, r25
 4aa:	1a 94       	dec	r1
 4ac:	69 f7       	brne	.-38     	; 0x488 <__udivmodsi4_loop>
 4ae:	60 95       	com	r22
 4b0:	70 95       	com	r23
 4b2:	80 95       	com	r24
 4b4:	90 95       	com	r25
 4b6:	9b 01       	movw	r18, r22
 4b8:	ac 01       	movw	r20, r24
 4ba:	bd 01       	movw	r22, r26
 4bc:	cf 01       	movw	r24, r30
 4be:	08 95       	ret

000004c0 <_exit>:
 4c0:	f8 94       	cli

000004c2 <__stop_program>:
 4c2:	ff cf       	rjmp	.-2      	; 0x4c2 <__stop_program>
