
AccelTest.elf:     file format elf32-avr

Sections:
Idx Name          Size      VMA       LMA       File off  Algn
  0 .data         0000006c  00800100  00000710  000007a4  2**0
                  CONTENTS, ALLOC, LOAD, DATA
  1 .text         00000710  00000000  00000000  00000094  2**1
                  CONTENTS, ALLOC, LOAD, READONLY, CODE
  2 .bss          00000010  0080016c  0080016c  00000810  2**0
                  ALLOC
  3 .comment      00000030  00000000  00000000  00000810  2**0
                  CONTENTS, READONLY
  4 .debug_aranges 000000b8  00000000  00000000  00000840  2**0
                  CONTENTS, READONLY, DEBUGGING
  5 .debug_info   00000540  00000000  00000000  000008f8  2**0
                  CONTENTS, READONLY, DEBUGGING
  6 .debug_abbrev 00000153  00000000  00000000  00000e38  2**0
                  CONTENTS, READONLY, DEBUGGING
  7 .debug_line   0000033f  00000000  00000000  00000f8b  2**0
                  CONTENTS, READONLY, DEBUGGING
  8 .debug_frame  000002c4  00000000  00000000  000012cc  2**2
                  CONTENTS, READONLY, DEBUGGING
  9 .debug_str    000002cb  00000000  00000000  00001590  2**0
                  CONTENTS, READONLY, DEBUGGING
 10 .debug_loc    000005c3  00000000  00000000  0000185b  2**0
                  CONTENTS, READONLY, DEBUGGING
 11 .debug_ranges 000000a8  00000000  00000000  00001e1e  2**0
                  CONTENTS, READONLY, DEBUGGING

Disassembly of section .text:

00000000 <__vectors>:
   0:	13 c0       	rjmp	.+38     	; 0x28 <__ctors_end>
   2:	2d c0       	rjmp	.+90     	; 0x5e <__bad_interrupt>
   4:	2c c0       	rjmp	.+88     	; 0x5e <__bad_interrupt>
   6:	2b c0       	rjmp	.+86     	; 0x5e <__bad_interrupt>
   8:	2a c0       	rjmp	.+84     	; 0x5e <__bad_interrupt>
   a:	29 c0       	rjmp	.+82     	; 0x5e <__bad_interrupt>
   c:	28 c0       	rjmp	.+80     	; 0x5e <__bad_interrupt>
   e:	27 c0       	rjmp	.+78     	; 0x5e <__bad_interrupt>
  10:	26 c0       	rjmp	.+76     	; 0x5e <__bad_interrupt>
  12:	25 c0       	rjmp	.+74     	; 0x5e <__bad_interrupt>
  14:	3c c3       	rjmp	.+1656   	; 0x68e <__vector_10>
  16:	23 c0       	rjmp	.+70     	; 0x5e <__bad_interrupt>
  18:	22 c0       	rjmp	.+68     	; 0x5e <__bad_interrupt>
  1a:	21 c0       	rjmp	.+66     	; 0x5e <__bad_interrupt>
  1c:	20 c0       	rjmp	.+64     	; 0x5e <__bad_interrupt>
  1e:	1f c0       	rjmp	.+62     	; 0x5e <__bad_interrupt>
  20:	1e c0       	rjmp	.+60     	; 0x5e <__bad_interrupt>
  22:	1d c0       	rjmp	.+58     	; 0x5e <__bad_interrupt>
  24:	1c c0       	rjmp	.+56     	; 0x5e <__bad_interrupt>
  26:	1b c0       	rjmp	.+54     	; 0x5e <__bad_interrupt>

00000028 <__ctors_end>:
  28:	11 24       	eor	r1, r1
  2a:	1f be       	out	0x3f, r1	; 63
  2c:	cf ef       	ldi	r28, 0xFF	; 255
  2e:	d2 e0       	ldi	r29, 0x02	; 2
  30:	de bf       	out	0x3e, r29	; 62
  32:	cd bf       	out	0x3d, r28	; 61

00000034 <__do_copy_data>:
  34:	11 e0       	ldi	r17, 0x01	; 1
  36:	a0 e0       	ldi	r26, 0x00	; 0
  38:	b1 e0       	ldi	r27, 0x01	; 1
  3a:	e0 e1       	ldi	r30, 0x10	; 16
  3c:	f7 e0       	ldi	r31, 0x07	; 7
  3e:	02 c0       	rjmp	.+4      	; 0x44 <__SREG__+0x5>
  40:	05 90       	lpm	r0, Z+
  42:	0d 92       	st	X+, r0
  44:	ac 36       	cpi	r26, 0x6C	; 108
  46:	b1 07       	cpc	r27, r17
  48:	d9 f7       	brne	.-10     	; 0x40 <__SREG__+0x1>

0000004a <__do_clear_bss>:
  4a:	21 e0       	ldi	r18, 0x01	; 1
  4c:	ac e6       	ldi	r26, 0x6C	; 108
  4e:	b1 e0       	ldi	r27, 0x01	; 1
  50:	01 c0       	rjmp	.+2      	; 0x54 <.do_clear_bss_start>

00000052 <.do_clear_bss_loop>:
  52:	1d 92       	st	X+, r1

00000054 <.do_clear_bss_start>:
  54:	ac 37       	cpi	r26, 0x7C	; 124
  56:	b2 07       	cpc	r27, r18
  58:	e1 f7       	brne	.-8      	; 0x52 <.do_clear_bss_loop>
  5a:	40 d2       	rcall	.+1152   	; 0x4dc <main>
  5c:	57 c3       	rjmp	.+1710   	; 0x70c <_exit>

0000005e <__bad_interrupt>:
  5e:	44 c3       	rjmp	.+1672   	; 0x6e8 <__vector_default>

00000060 <uARTStart>:

void accelGetData(char output[], int index){
	char temp[6] = {0};
	accelMultiRead(ACCEL_DATAX0_REG, 6, temp);
	for(int i=0;i<6;i++){
		output[i+index] = temp[i];
  60:	cf 93       	push	r28
  62:	df 93       	push	r29
  64:	cd b7       	in	r28, 0x3d	; 61
  66:	de b7       	in	r29, 0x3e	; 62
  68:	81 e2       	ldi	r24, 0x21	; 33
*****************************************************/

void accelGetData(char output[], int index){
	char temp[6] = {0};
	accelMultiRead(ACCEL_DATAX0_REG, 6, temp);
	for(int i=0;i<6;i++){
  6a:	90 e0       	ldi	r25, 0x00	; 0
  6c:	21 e2       	ldi	r18, 0x21	; 33
  6e:	30 e0       	ldi	r19, 0x00	; 0
  70:	f9 01       	movw	r30, r18
  72:	20 81       	ld	r18, Z
  74:	22 60       	ori	r18, 0x02	; 2
  76:	fc 01       	movw	r30, r24
  78:	20 83       	st	Z, r18
  7a:	88 ec       	ldi	r24, 0xC8	; 200
  7c:	90 e0       	ldi	r25, 0x00	; 0
		output[i+index] = temp[i];
	}
}
  7e:	fc 01       	movw	r30, r24
  80:	10 82       	st	Z, r1
  82:	8c ec       	ldi	r24, 0xCC	; 204
  84:	90 e0       	ldi	r25, 0x00	; 0
  86:	23 ea       	ldi	r18, 0xA3	; 163
  88:	fc 01       	movw	r30, r24
  8a:	20 83       	st	Z, r18
  8c:	8e ec       	ldi	r24, 0xCE	; 206
  8e:	90 e0       	ldi	r25, 0x00	; 0

void uARTStart(void){
DDRA |= (1<<1);
LINCR = 0x00;
LINBTR = (1<<LDISR)|(1<<LBT5)|(1<<LBT1)|(1<<LBT0);
LINBRRH = 0x00;
  90:	fc 01       	movw	r30, r24
  92:	10 82       	st	Z, r1
LINBRRL = (1<<LDIV0);		//35 samples/bit, (1+1) clk cycles per sample, 8 MHz clock, 115200 b/s
  94:	8d ec       	ldi	r24, 0xCD	; 205
  96:	90 e0       	ldi	r25, 0x00	; 0
  98:	21 e0       	ldi	r18, 0x01	; 1
  9a:	fc 01       	movw	r30, r24
  9c:	20 83       	st	Z, r18
LINENIR = (1<<LENTXOK);
  9e:	8a ec       	ldi	r24, 0xCA	; 202
  a0:	90 e0       	ldi	r25, 0x00	; 0
  a2:	22 e0       	ldi	r18, 0x02	; 2
  a4:	fc 01       	movw	r30, r24
  a6:	20 83       	st	Z, r18
LINCR = (1<<LENA)|(1<<LCMD2)|(1<<LCMD0);
  a8:	88 ec       	ldi	r24, 0xC8	; 200
  aa:	90 e0       	ldi	r25, 0x00	; 0
  ac:	2d e0       	ldi	r18, 0x0D	; 13
  ae:	fc 01       	movw	r30, r24
  b0:	20 83       	st	Z, r18
}
  b2:	df 91       	pop	r29
  b4:	cf 91       	pop	r28
  b6:	08 95       	ret

000000b8 <writeUart>:

void writeUart(char toSend){
  b8:	cf 93       	push	r28
  ba:	df 93       	push	r29
  bc:	1f 92       	push	r1
  be:	cd b7       	in	r28, 0x3d	; 61
  c0:	de b7       	in	r29, 0x3e	; 62
  c2:	89 83       	std	Y+1, r24	; 0x01
	while(LINSIR&(1<<LBUSY)){}
  c4:	00 00       	nop
  c6:	89 ec       	ldi	r24, 0xC9	; 201
  c8:	90 e0       	ldi	r25, 0x00	; 0
  ca:	fc 01       	movw	r30, r24
  cc:	80 81       	ld	r24, Z
  ce:	88 2f       	mov	r24, r24
  d0:	90 e0       	ldi	r25, 0x00	; 0
  d2:	80 71       	andi	r24, 0x10	; 16
  d4:	99 27       	eor	r25, r25
  d6:	00 97       	sbiw	r24, 0x00	; 0
  d8:	b1 f7       	brne	.-20     	; 0xc6 <writeUart+0xe>
	LINDAT = toSend;
  da:	82 ed       	ldi	r24, 0xD2	; 210
  dc:	90 e0       	ldi	r25, 0x00	; 0
  de:	29 81       	ldd	r18, Y+1	; 0x01
  e0:	fc 01       	movw	r30, r24
  e2:	20 83       	st	Z, r18
	while(LINSIR&(1<<LTXOK)){}
  e4:	00 00       	nop
  e6:	89 ec       	ldi	r24, 0xC9	; 201
  e8:	90 e0       	ldi	r25, 0x00	; 0
  ea:	fc 01       	movw	r30, r24
  ec:	80 81       	ld	r24, Z
  ee:	88 2f       	mov	r24, r24
  f0:	90 e0       	ldi	r25, 0x00	; 0
  f2:	82 70       	andi	r24, 0x02	; 2
  f4:	99 27       	eor	r25, r25
  f6:	00 97       	sbiw	r24, 0x00	; 0
  f8:	b1 f7       	brne	.-20     	; 0xe6 <writeUart+0x2e>
}
  fa:	0f 90       	pop	r0
  fc:	df 91       	pop	r29
  fe:	cf 91       	pop	r28
 100:	08 95       	ret

00000102 <uartString>:

void uartString(char toSend[], char bytes){
 102:	cf 93       	push	r28
 104:	df 93       	push	r29
 106:	00 d0       	rcall	.+0      	; 0x108 <uartString+0x6>
 108:	00 d0       	rcall	.+0      	; 0x10a <uartString+0x8>
 10a:	1f 92       	push	r1
 10c:	cd b7       	in	r28, 0x3d	; 61
 10e:	de b7       	in	r29, 0x3e	; 62
 110:	9c 83       	std	Y+4, r25	; 0x04
 112:	8b 83       	std	Y+3, r24	; 0x03
 114:	6d 83       	std	Y+5, r22	; 0x05
	for(int p=0; p<bytes; p++){
 116:	1a 82       	std	Y+2, r1	; 0x02
 118:	19 82       	std	Y+1, r1	; 0x01
 11a:	0e c0       	rjmp	.+28     	; 0x138 <uartString+0x36>
		writeUart(toSend[p]);
 11c:	89 81       	ldd	r24, Y+1	; 0x01
 11e:	9a 81       	ldd	r25, Y+2	; 0x02
 120:	2b 81       	ldd	r18, Y+3	; 0x03
 122:	3c 81       	ldd	r19, Y+4	; 0x04
 124:	82 0f       	add	r24, r18
 126:	93 1f       	adc	r25, r19
 128:	fc 01       	movw	r30, r24
 12a:	80 81       	ld	r24, Z
 12c:	c5 df       	rcall	.-118    	; 0xb8 <writeUart>
	LINDAT = toSend;
	while(LINSIR&(1<<LTXOK)){}
}

void uartString(char toSend[], char bytes){
	for(int p=0; p<bytes; p++){
 12e:	89 81       	ldd	r24, Y+1	; 0x01
 130:	9a 81       	ldd	r25, Y+2	; 0x02
 132:	01 96       	adiw	r24, 0x01	; 1
 134:	9a 83       	std	Y+2, r25	; 0x02
 136:	89 83       	std	Y+1, r24	; 0x01
 138:	8d 81       	ldd	r24, Y+5	; 0x05
 13a:	28 2f       	mov	r18, r24
 13c:	30 e0       	ldi	r19, 0x00	; 0
 13e:	89 81       	ldd	r24, Y+1	; 0x01
 140:	9a 81       	ldd	r25, Y+2	; 0x02
 142:	82 17       	cp	r24, r18
 144:	93 07       	cpc	r25, r19
 146:	54 f3       	brlt	.-44     	; 0x11c <uartString+0x1a>
		writeUart(toSend[p]);
	}
}
 148:	0f 90       	pop	r0
 14a:	0f 90       	pop	r0
 14c:	0f 90       	pop	r0
 14e:	0f 90       	pop	r0
 150:	0f 90       	pop	r0
 152:	df 91       	pop	r29
 154:	cf 91       	pop	r28
 156:	08 95       	ret

00000158 <uartReverse>:

void uartReverse(char toSend[], char bytes){
 158:	cf 93       	push	r28
 15a:	df 93       	push	r29
 15c:	00 d0       	rcall	.+0      	; 0x15e <uartReverse+0x6>
 15e:	00 d0       	rcall	.+0      	; 0x160 <uartReverse+0x8>
 160:	1f 92       	push	r1
 162:	cd b7       	in	r28, 0x3d	; 61
 164:	de b7       	in	r29, 0x3e	; 62
 166:	9c 83       	std	Y+4, r25	; 0x04
 168:	8b 83       	std	Y+3, r24	; 0x03
 16a:	6d 83       	std	Y+5, r22	; 0x05
	for(int p=(bytes-1);p>=0;p--){
 16c:	8d 81       	ldd	r24, Y+5	; 0x05
 16e:	88 2f       	mov	r24, r24
 170:	90 e0       	ldi	r25, 0x00	; 0
 172:	01 97       	sbiw	r24, 0x01	; 1
 174:	9a 83       	std	Y+2, r25	; 0x02
 176:	89 83       	std	Y+1, r24	; 0x01
 178:	0e c0       	rjmp	.+28     	; 0x196 <uartReverse+0x3e>
		writeUart(toSend[p]);
 17a:	89 81       	ldd	r24, Y+1	; 0x01
 17c:	9a 81       	ldd	r25, Y+2	; 0x02
 17e:	2b 81       	ldd	r18, Y+3	; 0x03
 180:	3c 81       	ldd	r19, Y+4	; 0x04
 182:	82 0f       	add	r24, r18
 184:	93 1f       	adc	r25, r19
 186:	fc 01       	movw	r30, r24
 188:	80 81       	ld	r24, Z
 18a:	96 df       	rcall	.-212    	; 0xb8 <writeUart>
		writeUart(toSend[p]);
	}
}

void uartReverse(char toSend[], char bytes){
	for(int p=(bytes-1);p>=0;p--){
 18c:	89 81       	ldd	r24, Y+1	; 0x01
 18e:	9a 81       	ldd	r25, Y+2	; 0x02
 190:	01 97       	sbiw	r24, 0x01	; 1
 192:	9a 83       	std	Y+2, r25	; 0x02
 194:	89 83       	std	Y+1, r24	; 0x01
 196:	89 81       	ldd	r24, Y+1	; 0x01
 198:	9a 81       	ldd	r25, Y+2	; 0x02
 19a:	99 23       	and	r25, r25
 19c:	74 f7       	brge	.-36     	; 0x17a <uartReverse+0x22>
		writeUart(toSend[p]);
	}
 19e:	0f 90       	pop	r0
 1a0:	0f 90       	pop	r0
 1a2:	0f 90       	pop	r0
 1a4:	0f 90       	pop	r0
 1a6:	0f 90       	pop	r0
 1a8:	df 91       	pop	r29
 1aa:	cf 91       	pop	r28
 1ac:	08 95       	ret

000001ae <startSPI>:
//#define HELMETC
#include <avr/io.h>
#include "HelmetSPILib.h"


void startSPI(void){
 1ae:	cf 93       	push	r28
 1b0:	df 93       	push	r29
 1b2:	cd b7       	in	r28, 0x3d	; 61
 1b4:	de b7       	in	r29, 0x3e	; 62
	sPIDevice = 0;
 1b6:	10 92 7b 01 	sts	0x017B, r1
 1ba:	10 92 7a 01 	sts	0x017A, r1
	DDRA |= (1<<ACCELSELECTPIN)|(1<<GYROSELECTPIN)|(1<<MEMSELECTPIN)|(1<<4)|(1<<5); //(1<<RADIOSELECTPIN)|
 1be:	81 e2       	ldi	r24, 0x21	; 33
 1c0:	90 e0       	ldi	r25, 0x00	; 0
 1c2:	21 e2       	ldi	r18, 0x21	; 33
 1c4:	30 e0       	ldi	r19, 0x00	; 0
 1c6:	f9 01       	movw	r30, r18
 1c8:	20 81       	ld	r18, Z
 1ca:	28 6f       	ori	r18, 0xF8	; 248
 1cc:	fc 01       	movw	r30, r24
 1ce:	20 83       	st	Z, r18
	DDRA &= ~(1<<2);
 1d0:	81 e2       	ldi	r24, 0x21	; 33
 1d2:	90 e0       	ldi	r25, 0x00	; 0
 1d4:	21 e2       	ldi	r18, 0x21	; 33
 1d6:	30 e0       	ldi	r19, 0x00	; 0
 1d8:	f9 01       	movw	r30, r18
 1da:	20 81       	ld	r18, Z
 1dc:	2b 7f       	andi	r18, 0xFB	; 251
 1de:	fc 01       	movw	r30, r24
 1e0:	20 83       	st	Z, r18
	PORTA |= (1<<MEMSELECTPIN)|(1<<ACCELSELECTPIN)|(1<<GYROSELECTPIN);
 1e2:	82 e2       	ldi	r24, 0x22	; 34
 1e4:	90 e0       	ldi	r25, 0x00	; 0
 1e6:	22 e2       	ldi	r18, 0x22	; 34
 1e8:	30 e0       	ldi	r19, 0x00	; 0
 1ea:	f9 01       	movw	r30, r18
 1ec:	20 81       	ld	r18, Z
 1ee:	28 6c       	ori	r18, 0xC8	; 200
 1f0:	fc 01       	movw	r30, r24
 1f2:	20 83       	st	Z, r18
	//SPSR |= (1<<SPI2X);						//Double speed SPI
	SPCR = (1<<SPE)|(1<<MSTR)|(1<<SPR0)|(1<<SPR1);	//Clock Divide is 8 - SPI speed of 1 MHz
 1f4:	8c e4       	ldi	r24, 0x4C	; 76
 1f6:	90 e0       	ldi	r25, 0x00	; 0
 1f8:	23 e5       	ldi	r18, 0x53	; 83
 1fa:	fc 01       	movw	r30, r24
 1fc:	20 83       	st	Z, r18
}
 1fe:	df 91       	pop	r29
 200:	cf 91       	pop	r28
 202:	08 95       	ret

00000204 <deviceSelect>:

void deviceSelect(int device){
 204:	cf 93       	push	r28
 206:	df 93       	push	r29
 208:	00 d0       	rcall	.+0      	; 0x20a <deviceSelect+0x6>
 20a:	cd b7       	in	r28, 0x3d	; 61
 20c:	de b7       	in	r29, 0x3e	; 62
 20e:	9a 83       	std	Y+2, r25	; 0x02
 210:	89 83       	std	Y+1, r24	; 0x01
	switch(device){
 212:	89 81       	ldd	r24, Y+1	; 0x01
 214:	9a 81       	ldd	r25, Y+2	; 0x02
 216:	81 30       	cpi	r24, 0x01	; 1
 218:	91 05       	cpc	r25, r1
 21a:	29 f1       	breq	.+74     	; 0x266 <deviceSelect+0x62>
 21c:	82 30       	cpi	r24, 0x02	; 2
 21e:	91 05       	cpc	r25, r1
 220:	1c f4       	brge	.+6      	; 0x228 <deviceSelect+0x24>
 222:	00 97       	sbiw	r24, 0x00	; 0
 224:	49 f0       	breq	.+18     	; 0x238 <deviceSelect+0x34>
 226:	6a c0       	rjmp	.+212    	; 0x2fc <deviceSelect+0xf8>
 228:	82 30       	cpi	r24, 0x02	; 2
 22a:	91 05       	cpc	r25, r1
 22c:	a9 f1       	breq	.+106    	; 0x298 <deviceSelect+0x94>
 22e:	83 30       	cpi	r24, 0x03	; 3
 230:	91 05       	cpc	r25, r1
 232:	09 f4       	brne	.+2      	; 0x236 <deviceSelect+0x32>
 234:	4a c0       	rjmp	.+148    	; 0x2ca <deviceSelect+0xc6>
 236:	62 c0       	rjmp	.+196    	; 0x2fc <deviceSelect+0xf8>
		case RADIO:
		SPCR &= ~((1<<CPOL)|(1<<CPHA));
 238:	8c e4       	ldi	r24, 0x4C	; 76
 23a:	90 e0       	ldi	r25, 0x00	; 0
 23c:	2c e4       	ldi	r18, 0x4C	; 76
 23e:	30 e0       	ldi	r19, 0x00	; 0
 240:	f9 01       	movw	r30, r18
 242:	20 81       	ld	r18, Z
 244:	23 7f       	andi	r18, 0xF3	; 243
 246:	fc 01       	movw	r30, r24
 248:	20 83       	st	Z, r18
		PORTA &= ~(1<<RADIOSELECTPIN);
 24a:	82 e2       	ldi	r24, 0x22	; 34
 24c:	90 e0       	ldi	r25, 0x00	; 0
 24e:	22 e2       	ldi	r18, 0x22	; 34
 250:	30 e0       	ldi	r19, 0x00	; 0
 252:	f9 01       	movw	r30, r18
 254:	20 81       	ld	r18, Z
 256:	2f 7b       	andi	r18, 0xBF	; 191
 258:	fc 01       	movw	r30, r24
 25a:	20 83       	st	Z, r18
		sPIDevice = RADIO;
 25c:	10 92 7b 01 	sts	0x017B, r1
 260:	10 92 7a 01 	sts	0x017A, r1
		break;
 264:	4b c0       	rjmp	.+150    	; 0x2fc <deviceSelect+0xf8>
		case GYRO:
		SPCR |= ((1<<CPOL)|(1<<CPHA));
 266:	8c e4       	ldi	r24, 0x4C	; 76
 268:	90 e0       	ldi	r25, 0x00	; 0
 26a:	2c e4       	ldi	r18, 0x4C	; 76
 26c:	30 e0       	ldi	r19, 0x00	; 0
 26e:	f9 01       	movw	r30, r18
 270:	20 81       	ld	r18, Z
 272:	2c 60       	ori	r18, 0x0C	; 12
 274:	fc 01       	movw	r30, r24
 276:	20 83       	st	Z, r18
		PORTA &= ~(1<<GYROSELECTPIN);
 278:	82 e2       	ldi	r24, 0x22	; 34
 27a:	90 e0       	ldi	r25, 0x00	; 0
 27c:	22 e2       	ldi	r18, 0x22	; 34
 27e:	30 e0       	ldi	r19, 0x00	; 0
 280:	f9 01       	movw	r30, r18
 282:	20 81       	ld	r18, Z
 284:	2f 7b       	andi	r18, 0xBF	; 191
 286:	fc 01       	movw	r30, r24
 288:	20 83       	st	Z, r18
		sPIDevice = GYRO;
 28a:	81 e0       	ldi	r24, 0x01	; 1
 28c:	90 e0       	ldi	r25, 0x00	; 0
 28e:	90 93 7b 01 	sts	0x017B, r25
 292:	80 93 7a 01 	sts	0x017A, r24
		break;
 296:	32 c0       	rjmp	.+100    	; 0x2fc <deviceSelect+0xf8>
		case ACCEL:
		SPCR |= ((1<<CPOL)|(1<<CPHA));
 298:	8c e4       	ldi	r24, 0x4C	; 76
 29a:	90 e0       	ldi	r25, 0x00	; 0
 29c:	2c e4       	ldi	r18, 0x4C	; 76
 29e:	30 e0       	ldi	r19, 0x00	; 0
 2a0:	f9 01       	movw	r30, r18
 2a2:	20 81       	ld	r18, Z
 2a4:	2c 60       	ori	r18, 0x0C	; 12
 2a6:	fc 01       	movw	r30, r24
 2a8:	20 83       	st	Z, r18
		PORTA &= ~(1<<ACCELSELECTPIN);
 2aa:	82 e2       	ldi	r24, 0x22	; 34
 2ac:	90 e0       	ldi	r25, 0x00	; 0
 2ae:	22 e2       	ldi	r18, 0x22	; 34
 2b0:	30 e0       	ldi	r19, 0x00	; 0
 2b2:	f9 01       	movw	r30, r18
 2b4:	20 81       	ld	r18, Z
 2b6:	2f 77       	andi	r18, 0x7F	; 127
 2b8:	fc 01       	movw	r30, r24
 2ba:	20 83       	st	Z, r18
		sPIDevice = ACCEL;
 2bc:	82 e0       	ldi	r24, 0x02	; 2
 2be:	90 e0       	ldi	r25, 0x00	; 0
 2c0:	90 93 7b 01 	sts	0x017B, r25
 2c4:	80 93 7a 01 	sts	0x017A, r24
		break;
 2c8:	19 c0       	rjmp	.+50     	; 0x2fc <deviceSelect+0xf8>
		case MEM:
		SPCR |= ((1<<CPOL)|(1<<CPHA));
 2ca:	8c e4       	ldi	r24, 0x4C	; 76
 2cc:	90 e0       	ldi	r25, 0x00	; 0
 2ce:	2c e4       	ldi	r18, 0x4C	; 76
 2d0:	30 e0       	ldi	r19, 0x00	; 0
 2d2:	f9 01       	movw	r30, r18
 2d4:	20 81       	ld	r18, Z
 2d6:	2c 60       	ori	r18, 0x0C	; 12
 2d8:	fc 01       	movw	r30, r24
 2da:	20 83       	st	Z, r18
		PORTA &= ~(1<<MEMSELECTPIN);
 2dc:	82 e2       	ldi	r24, 0x22	; 34
 2de:	90 e0       	ldi	r25, 0x00	; 0
 2e0:	22 e2       	ldi	r18, 0x22	; 34
 2e2:	30 e0       	ldi	r19, 0x00	; 0
 2e4:	f9 01       	movw	r30, r18
 2e6:	20 81       	ld	r18, Z
 2e8:	27 7f       	andi	r18, 0xF7	; 247
 2ea:	fc 01       	movw	r30, r24
 2ec:	20 83       	st	Z, r18
		sPIDevice = MEM;
 2ee:	83 e0       	ldi	r24, 0x03	; 3
 2f0:	90 e0       	ldi	r25, 0x00	; 0
 2f2:	90 93 7b 01 	sts	0x017B, r25
 2f6:	80 93 7a 01 	sts	0x017A, r24
		break;
 2fa:	00 00       	nop
	}
}
 2fc:	0f 90       	pop	r0
 2fe:	0f 90       	pop	r0
 300:	df 91       	pop	r29
 302:	cf 91       	pop	r28
 304:	08 95       	ret

00000306 <sPITradeByte>:

char sPITradeByte(char byte){
 306:	cf 93       	push	r28
 308:	df 93       	push	r29
 30a:	00 d0       	rcall	.+0      	; 0x30c <sPITradeByte+0x6>
 30c:	cd b7       	in	r28, 0x3d	; 61
 30e:	de b7       	in	r29, 0x3e	; 62
 310:	8a 83       	std	Y+2, r24	; 0x02
	SPDR = byte;
 312:	8e e4       	ldi	r24, 0x4E	; 78
 314:	90 e0       	ldi	r25, 0x00	; 0
 316:	2a 81       	ldd	r18, Y+2	; 0x02
 318:	fc 01       	movw	r30, r24
 31a:	20 83       	st	Z, r18
	while(!(SPSR & (1<<SPIF) )){}
 31c:	00 00       	nop
 31e:	8d e4       	ldi	r24, 0x4D	; 77
 320:	90 e0       	ldi	r25, 0x00	; 0
 322:	fc 01       	movw	r30, r24
 324:	80 81       	ld	r24, Z
 326:	88 23       	and	r24, r24
 328:	d4 f7       	brge	.-12     	; 0x31e <sPITradeByte+0x18>
	char received = SPDR;
 32a:	8e e4       	ldi	r24, 0x4E	; 78
 32c:	90 e0       	ldi	r25, 0x00	; 0
 32e:	fc 01       	movw	r30, r24
 330:	80 81       	ld	r24, Z
 332:	89 83       	std	Y+1, r24	; 0x01
	return received;
 334:	89 81       	ldd	r24, Y+1	; 0x01
}
 336:	0f 90       	pop	r0
 338:	0f 90       	pop	r0
 33a:	df 91       	pop	r29
 33c:	cf 91       	pop	r28
 33e:	08 95       	ret

00000340 <deselect>:

void deselect(void){
 340:	cf 93       	push	r28
 342:	df 93       	push	r29
 344:	cd b7       	in	r28, 0x3d	; 61
 346:	de b7       	in	r29, 0x3e	; 62
	switch(sPIDevice){
 348:	80 91 7a 01 	lds	r24, 0x017A
 34c:	90 91 7b 01 	lds	r25, 0x017B
 350:	81 30       	cpi	r24, 0x01	; 1
 352:	91 05       	cpc	r25, r1
 354:	b9 f0       	breq	.+46     	; 0x384 <deselect+0x44>
 356:	82 30       	cpi	r24, 0x02	; 2
 358:	91 05       	cpc	r25, r1
 35a:	1c f4       	brge	.+6      	; 0x362 <deselect+0x22>
 35c:	00 97       	sbiw	r24, 0x00	; 0
 35e:	41 f0       	breq	.+16     	; 0x370 <deselect+0x30>
 360:	2f c0       	rjmp	.+94     	; 0x3c0 <deselect+0x80>
 362:	82 30       	cpi	r24, 0x02	; 2
 364:	91 05       	cpc	r25, r1
 366:	c1 f0       	breq	.+48     	; 0x398 <deselect+0x58>
 368:	83 30       	cpi	r24, 0x03	; 3
 36a:	91 05       	cpc	r25, r1
 36c:	f9 f0       	breq	.+62     	; 0x3ac <deselect+0x6c>
 36e:	28 c0       	rjmp	.+80     	; 0x3c0 <deselect+0x80>
		case RADIO:
		PORTA |= (1<<RADIOSELECTPIN);
 370:	82 e2       	ldi	r24, 0x22	; 34
 372:	90 e0       	ldi	r25, 0x00	; 0
 374:	22 e2       	ldi	r18, 0x22	; 34
 376:	30 e0       	ldi	r19, 0x00	; 0
 378:	f9 01       	movw	r30, r18
 37a:	20 81       	ld	r18, Z
 37c:	20 64       	ori	r18, 0x40	; 64
 37e:	fc 01       	movw	r30, r24
 380:	20 83       	st	Z, r18
		break;
 382:	1e c0       	rjmp	.+60     	; 0x3c0 <deselect+0x80>
		case GYRO:
		PORTA |= (1<<GYROSELECTPIN);
 384:	82 e2       	ldi	r24, 0x22	; 34
 386:	90 e0       	ldi	r25, 0x00	; 0
 388:	22 e2       	ldi	r18, 0x22	; 34
 38a:	30 e0       	ldi	r19, 0x00	; 0
 38c:	f9 01       	movw	r30, r18
 38e:	20 81       	ld	r18, Z
 390:	20 64       	ori	r18, 0x40	; 64
 392:	fc 01       	movw	r30, r24
 394:	20 83       	st	Z, r18
		break;
 396:	14 c0       	rjmp	.+40     	; 0x3c0 <deselect+0x80>
		case ACCEL:
		PORTA |= (1<<ACCELSELECTPIN);
 398:	82 e2       	ldi	r24, 0x22	; 34
 39a:	90 e0       	ldi	r25, 0x00	; 0
 39c:	22 e2       	ldi	r18, 0x22	; 34
 39e:	30 e0       	ldi	r19, 0x00	; 0
 3a0:	f9 01       	movw	r30, r18
 3a2:	20 81       	ld	r18, Z
 3a4:	20 68       	ori	r18, 0x80	; 128
 3a6:	fc 01       	movw	r30, r24
 3a8:	20 83       	st	Z, r18
		break;
 3aa:	0a c0       	rjmp	.+20     	; 0x3c0 <deselect+0x80>
		case MEM:
		PORTA |= (1<<MEMSELECTPIN);
 3ac:	82 e2       	ldi	r24, 0x22	; 34
 3ae:	90 e0       	ldi	r25, 0x00	; 0
 3b0:	22 e2       	ldi	r18, 0x22	; 34
 3b2:	30 e0       	ldi	r19, 0x00	; 0
 3b4:	f9 01       	movw	r30, r18
 3b6:	20 81       	ld	r18, Z
 3b8:	28 60       	ori	r18, 0x08	; 8
 3ba:	fc 01       	movw	r30, r24
 3bc:	20 83       	st	Z, r18
		break;
 3be:	00 00       	nop
	}
}
 3c0:	df 91       	pop	r29
 3c2:	cf 91       	pop	r28
 3c4:	08 95       	ret

000003c6 <accelWriteReg>:
* accelWriteReg
* writes a single character to a single register
* PARAMS - address - ADXL375 address to write to
*        - data - data to write
******************************************************/
void accelWriteReg(char address, char data){
 3c6:	cf 93       	push	r28
 3c8:	df 93       	push	r29
 3ca:	00 d0       	rcall	.+0      	; 0x3cc <accelWriteReg+0x6>
 3cc:	cd b7       	in	r28, 0x3d	; 61
 3ce:	de b7       	in	r29, 0x3e	; 62
 3d0:	89 83       	std	Y+1, r24	; 0x01
 3d2:	6a 83       	std	Y+2, r22	; 0x02
	address &= 0x3F;
 3d4:	89 81       	ldd	r24, Y+1	; 0x01
 3d6:	8f 73       	andi	r24, 0x3F	; 63
 3d8:	89 83       	std	Y+1, r24	; 0x01
	deviceSelect(ACCEL);
 3da:	82 e0       	ldi	r24, 0x02	; 2
 3dc:	90 e0       	ldi	r25, 0x00	; 0
 3de:	12 df       	rcall	.-476    	; 0x204 <deviceSelect>
	sPITradeByte(address);
 3e0:	89 81       	ldd	r24, Y+1	; 0x01
 3e2:	91 df       	rcall	.-222    	; 0x306 <sPITradeByte>
	sPITradeByte(data);
 3e4:	8a 81       	ldd	r24, Y+2	; 0x02
 3e6:	8f df       	rcall	.-226    	; 0x306 <sPITradeByte>
	deselect();
 3e8:	ab df       	rcall	.-170    	; 0x340 <deselect>
}
 3ea:	0f 90       	pop	r0
 3ec:	0f 90       	pop	r0
 3ee:	df 91       	pop	r29
 3f0:	cf 91       	pop	r28
 3f2:	08 95       	ret

000003f4 <accelReadReg>:
* acccleReadReg
* reads a single register
* PARAMS - address - address of register to read
* RETURNS - data read from register
*****************************************************/
char accelReadReg(char address){
 3f4:	cf 93       	push	r28
 3f6:	df 93       	push	r29
 3f8:	00 d0       	rcall	.+0      	; 0x3fa <accelReadReg+0x6>
 3fa:	cd b7       	in	r28, 0x3d	; 61
 3fc:	de b7       	in	r29, 0x3e	; 62
 3fe:	8a 83       	std	Y+2, r24	; 0x02
	address |= 0x80;
 400:	8a 81       	ldd	r24, Y+2	; 0x02
 402:	80 68       	ori	r24, 0x80	; 128
 404:	8a 83       	std	Y+2, r24	; 0x02
	deviceSelect(ACCEL);
 406:	82 e0       	ldi	r24, 0x02	; 2
 408:	90 e0       	ldi	r25, 0x00	; 0
 40a:	fc de       	rcall	.-520    	; 0x204 <deviceSelect>
	sPITradeByte(address);
 40c:	8a 81       	ldd	r24, Y+2	; 0x02
 40e:	7b df       	rcall	.-266    	; 0x306 <sPITradeByte>
	char data = sPITradeByte(0);
 410:	80 e0       	ldi	r24, 0x00	; 0
 412:	79 df       	rcall	.-270    	; 0x306 <sPITradeByte>
 414:	89 83       	std	Y+1, r24	; 0x01
	deselect();
 416:	94 df       	rcall	.-216    	; 0x340 <deselect>
	return data;
 418:	89 81       	ldd	r24, Y+1	; 0x01
}
 41a:	0f 90       	pop	r0
 41c:	0f 90       	pop	r0
 41e:	df 91       	pop	r29
 420:	cf 91       	pop	r28
 422:	08 95       	ret

00000424 <accelInitialize>:
* accelInitialize
* Initializes the accelerometer with the settings as described below
* TODO - test and calibrate offset values, threshold values
****************************************************/

void accelInitialize(void){
 424:	cf 93       	push	r28
 426:	df 93       	push	r29
 428:	cd b7       	in	r28, 0x3d	; 61
 42a:	de b7       	in	r29, 0x3e	; 62
 42c:	a6 97       	sbiw	r28, 0x26	; 38
 42e:	0f b6       	in	r0, 0x3f	; 63
 430:	f8 94       	cli
 432:	de bf       	out	0x3e, r29	; 62
 434:	0f be       	out	0x3f, r0	; 63
 436:	cd bf       	out	0x3d, r28	; 61
	DDRB &= ~(1<<PINB0);
 438:	84 e2       	ldi	r24, 0x24	; 36
 43a:	90 e0       	ldi	r25, 0x00	; 0
 43c:	24 e2       	ldi	r18, 0x24	; 36
 43e:	30 e0       	ldi	r19, 0x00	; 0
 440:	f9 01       	movw	r30, r18
 442:	20 81       	ld	r18, Z
 444:	2e 7f       	andi	r18, 0xFE	; 254
 446:	fc 01       	movw	r30, r24
 448:	20 83       	st	Z, r18
	char accelParams[][2] = {
 44a:	84 e2       	ldi	r24, 0x24	; 36
 44c:	e1 e1       	ldi	r30, 0x11	; 17
 44e:	f1 e0       	ldi	r31, 0x01	; 1
 450:	de 01       	movw	r26, r28
 452:	13 96       	adiw	r26, 0x03	; 3
 454:	01 90       	ld	r0, Z+
 456:	0d 92       	st	X+, r0
 458:	8a 95       	dec	r24
 45a:	e1 f7       	brne	.-8      	; 0x454 <accelInitialize+0x30>
		{ ACCEL_POWER_CTL_REG, 0x30 },		//Part is in standby mode, Link and autosleep functions enabled
		{ ACCEL_DATA_FORMAT_REG, 0x0B},		//Self test off, 4-wire SPI mode, interrupts acitve high, Right justified data
		{ ACCEL_FIFO_CTL, 0xBF},			//Stream mode, trigger bit meaningless, Samples bits meaningless - no watermark int.	
		{ 255,0}
	};
	for(int i=0; accelParams[i][0]!= 255; i++){
 45c:	1a 82       	std	Y+2, r1	; 0x02
 45e:	19 82       	std	Y+1, r1	; 0x01
 460:	23 c0       	rjmp	.+70     	; 0x4a8 <accelInitialize+0x84>
		accelWriteReg(accelParams[i][0], accelParams[i][1]);
 462:	89 81       	ldd	r24, Y+1	; 0x01
 464:	9a 81       	ldd	r25, Y+2	; 0x02
 466:	88 0f       	add	r24, r24
 468:	99 1f       	adc	r25, r25
 46a:	9e 01       	movw	r18, r28
 46c:	2f 5f       	subi	r18, 0xFF	; 255
 46e:	3f 4f       	sbci	r19, 0xFF	; 255
 470:	82 0f       	add	r24, r18
 472:	93 1f       	adc	r25, r19
 474:	03 96       	adiw	r24, 0x03	; 3
 476:	fc 01       	movw	r30, r24
 478:	40 81       	ld	r20, Z
 47a:	89 81       	ldd	r24, Y+1	; 0x01
 47c:	9a 81       	ldd	r25, Y+2	; 0x02
 47e:	88 0f       	add	r24, r24
 480:	99 1f       	adc	r25, r25
 482:	9e 01       	movw	r18, r28
 484:	2f 5f       	subi	r18, 0xFF	; 255
 486:	3f 4f       	sbci	r19, 0xFF	; 255
 488:	82 0f       	add	r24, r18
 48a:	93 1f       	adc	r25, r19
 48c:	02 96       	adiw	r24, 0x02	; 2
 48e:	fc 01       	movw	r30, r24
 490:	80 81       	ld	r24, Z
 492:	64 2f       	mov	r22, r20
 494:	98 df       	rcall	.-208    	; 0x3c6 <accelWriteReg>
		uartString("Accel write OK\n\r",sizeof"Accel write OK\n\r");
 496:	61 e1       	ldi	r22, 0x11	; 17
 498:	80 e0       	ldi	r24, 0x00	; 0
 49a:	91 e0       	ldi	r25, 0x01	; 1
 49c:	32 de       	rcall	.-924    	; 0x102 <uartString>
		{ ACCEL_POWER_CTL_REG, 0x30 },		//Part is in standby mode, Link and autosleep functions enabled
		{ ACCEL_DATA_FORMAT_REG, 0x0B},		//Self test off, 4-wire SPI mode, interrupts acitve high, Right justified data
		{ ACCEL_FIFO_CTL, 0xBF},			//Stream mode, trigger bit meaningless, Samples bits meaningless - no watermark int.	
		{ 255,0}
	};
	for(int i=0; accelParams[i][0]!= 255; i++){
 49e:	89 81       	ldd	r24, Y+1	; 0x01
 4a0:	9a 81       	ldd	r25, Y+2	; 0x02
 4a2:	01 96       	adiw	r24, 0x01	; 1
 4a4:	9a 83       	std	Y+2, r25	; 0x02
 4a6:	89 83       	std	Y+1, r24	; 0x01
 4a8:	89 81       	ldd	r24, Y+1	; 0x01
 4aa:	9a 81       	ldd	r25, Y+2	; 0x02
 4ac:	88 0f       	add	r24, r24
 4ae:	99 1f       	adc	r25, r25
 4b0:	9e 01       	movw	r18, r28
 4b2:	2f 5f       	subi	r18, 0xFF	; 255
 4b4:	3f 4f       	sbci	r19, 0xFF	; 255
 4b6:	82 0f       	add	r24, r18
 4b8:	93 1f       	adc	r25, r19
 4ba:	02 96       	adiw	r24, 0x02	; 2
 4bc:	fc 01       	movw	r30, r24
 4be:	80 81       	ld	r24, Z
 4c0:	8f 3f       	cpi	r24, 0xFF	; 255
 4c2:	79 f6       	brne	.-98     	; 0x462 <accelInitialize+0x3e>
		accelWriteReg(accelParams[i][0], accelParams[i][1]);
		uartString("Accel write OK\n\r",sizeof"Accel write OK\n\r");
	}
	accelWriteReg(ACCEL_INT_ENABLE_REG, (ACCEL_DATA_READY|ACCEL_SINGLE_SHOCK|ACCEL_ACTIVITY));	//Interrupts for single shock, activity, and data ready - read status register to determine which interrupt was enacted.
 4c4:	60 ed       	ldi	r22, 0xD0	; 208
 4c6:	8e e2       	ldi	r24, 0x2E	; 46
 4c8:	7e df       	rcall	.-260    	; 0x3c6 <accelWriteReg>
}
 4ca:	a6 96       	adiw	r28, 0x26	; 38
 4cc:	0f b6       	in	r0, 0x3f	; 63
 4ce:	f8 94       	cli
 4d0:	de bf       	out	0x3e, r29	; 62
 4d2:	0f be       	out	0x3f, r0	; 63
 4d4:	cd bf       	out	0x3d, r28	; 61
 4d6:	df 91       	pop	r29
 4d8:	cf 91       	pop	r28
 4da:	08 95       	ret

000004dc <main>:
long timeStamp;
char neg = 0;
int count = 0; 

int main(void)
{
 4dc:	cf 93       	push	r28
 4de:	df 93       	push	r29
 4e0:	cd b7       	in	r28, 0x3d	; 61
 4e2:	de b7       	in	r29, 0x3e	; 62
 4e4:	2c 97       	sbiw	r28, 0x0c	; 12
 4e6:	0f b6       	in	r0, 0x3f	; 63
 4e8:	f8 94       	cli
 4ea:	de bf       	out	0x3e, r29	; 62
 4ec:	0f be       	out	0x3f, r0	; 63
 4ee:	cd bf       	out	0x3d, r28	; 61
	initSysTime();
 4f0:	a2 d0       	rcall	.+324    	; 0x636 <initSysTime>
	delay(1000);
 4f2:	68 ee       	ldi	r22, 0xE8	; 232
 4f4:	73 e0       	ldi	r23, 0x03	; 3
 4f6:	80 e0       	ldi	r24, 0x00	; 0
 4f8:	90 e0       	ldi	r25, 0x00	; 0
 4fa:	5e d0       	rcall	.+188    	; 0x5b8 <delay>
	uARTStart();
 4fc:	b1 dd       	rcall	.-1182   	; 0x60 <uARTStart>
	delay(50);
 4fe:	62 e3       	ldi	r22, 0x32	; 50
 500:	70 e0       	ldi	r23, 0x00	; 0
 502:	80 e0       	ldi	r24, 0x00	; 0
 504:	90 e0       	ldi	r25, 0x00	; 0
 506:	58 d0       	rcall	.+176    	; 0x5b8 <delay>
	uartString("UART READY...\n\r",sizeof("UART READY...\n\r"));
 508:	60 e1       	ldi	r22, 0x10	; 16
 50a:	85 e3       	ldi	r24, 0x35	; 53
 50c:	91 e0       	ldi	r25, 0x01	; 1
 50e:	f9 dd       	rcall	.-1038   	; 0x102 <uartString>
	delay(50);
 510:	62 e3       	ldi	r22, 0x32	; 50
 512:	70 e0       	ldi	r23, 0x00	; 0
 514:	80 e0       	ldi	r24, 0x00	; 0
 516:	90 e0       	ldi	r25, 0x00	; 0
 518:	4f d0       	rcall	.+158    	; 0x5b8 <delay>
	startSPI();			
 51a:	49 de       	rcall	.-878    	; 0x1ae <startSPI>
	delay(50);
 51c:	62 e3       	ldi	r22, 0x32	; 50
 51e:	70 e0       	ldi	r23, 0x00	; 0
 520:	80 e0       	ldi	r24, 0x00	; 0
 522:	90 e0       	ldi	r25, 0x00	; 0
 524:	49 d0       	rcall	.+146    	; 0x5b8 <delay>
	accelInitialize();
 526:	7e df       	rcall	.-260    	; 0x424 <accelInitialize>
	delay(1000);
 528:	68 ee       	ldi	r22, 0xE8	; 232
 52a:	73 e0       	ldi	r23, 0x03	; 3
 52c:	80 e0       	ldi	r24, 0x00	; 0
 52e:	90 e0       	ldi	r25, 0x00	; 0
 530:	43 d0       	rcall	.+134    	; 0x5b8 <delay>
	char deviceTest =  accelReadReg(ACCEL_DEVID_REG);
 532:	80 e0       	ldi	r24, 0x00	; 0
 534:	5f df       	rcall	.-322    	; 0x3f4 <accelReadReg>
 536:	89 83       	std	Y+1, r24	; 0x01
	char devID[8] = "ATAD ON";
 538:	88 e0       	ldi	r24, 0x08	; 8
 53a:	e4 e6       	ldi	r30, 0x64	; 100
 53c:	f1 e0       	ldi	r31, 0x01	; 1
 53e:	de 01       	movw	r26, r28
 540:	15 96       	adiw	r26, 0x05	; 5
 542:	01 90       	ld	r0, Z+
 544:	0d 92       	st	X+, r0
 546:	8a 95       	dec	r24
 548:	e1 f7       	brne	.-8      	; 0x542 <main+0x66>
	for(int i=0; deviceTest!=0; i++){
 54a:	1b 82       	std	Y+3, r1	; 0x03
 54c:	1a 82       	std	Y+2, r1	; 0x02
 54e:	21 c0       	rjmp	.+66     	; 0x592 <main+0xb6>
		if((deviceTest%2)!=0){
 550:	89 81       	ldd	r24, Y+1	; 0x01
 552:	81 70       	andi	r24, 0x01	; 1
 554:	88 23       	and	r24, r24
 556:	59 f0       	breq	.+22     	; 0x56e <main+0x92>
			devID[i] = '1';
 558:	9e 01       	movw	r18, r28
 55a:	2b 5f       	subi	r18, 0xFB	; 251
 55c:	3f 4f       	sbci	r19, 0xFF	; 255
 55e:	8a 81       	ldd	r24, Y+2	; 0x02
 560:	9b 81       	ldd	r25, Y+3	; 0x03
 562:	82 0f       	add	r24, r18
 564:	93 1f       	adc	r25, r19
 566:	21 e3       	ldi	r18, 0x31	; 49
 568:	fc 01       	movw	r30, r24
 56a:	20 83       	st	Z, r18
 56c:	0a c0       	rjmp	.+20     	; 0x582 <main+0xa6>
		}else{devID[i] = '0';}
 56e:	9e 01       	movw	r18, r28
 570:	2b 5f       	subi	r18, 0xFB	; 251
 572:	3f 4f       	sbci	r19, 0xFF	; 255
 574:	8a 81       	ldd	r24, Y+2	; 0x02
 576:	9b 81       	ldd	r25, Y+3	; 0x03
 578:	82 0f       	add	r24, r18
 57a:	93 1f       	adc	r25, r19
 57c:	20 e3       	ldi	r18, 0x30	; 48
 57e:	fc 01       	movw	r30, r24
 580:	20 83       	st	Z, r18
		deviceTest = deviceTest/2;
 582:	89 81       	ldd	r24, Y+1	; 0x01
 584:	86 95       	lsr	r24
 586:	89 83       	std	Y+1, r24	; 0x01
	delay(50);
	accelInitialize();
	delay(1000);
	char deviceTest =  accelReadReg(ACCEL_DEVID_REG);
	char devID[8] = "ATAD ON";
	for(int i=0; deviceTest!=0; i++){
 588:	8a 81       	ldd	r24, Y+2	; 0x02
 58a:	9b 81       	ldd	r25, Y+3	; 0x03
 58c:	01 96       	adiw	r24, 0x01	; 1
 58e:	9b 83       	std	Y+3, r25	; 0x03
 590:	8a 83       	std	Y+2, r24	; 0x02
 592:	89 81       	ldd	r24, Y+1	; 0x01
 594:	88 23       	and	r24, r24
 596:	e1 f6       	brne	.-72     	; 0x550 <main+0x74>
		if((deviceTest%2)!=0){
			devID[i] = '1';
		}else{devID[i] = '0';}
		deviceTest = deviceTest/2;
	}
	uartString("ACCELEROMETER DEVICE ID:\n\r",sizeof("ACCELEROMETER DEVICE ID:\n\r"));
 598:	6b e1       	ldi	r22, 0x1B	; 27
 59a:	85 e4       	ldi	r24, 0x45	; 69
 59c:	91 e0       	ldi	r25, 0x01	; 1
 59e:	b1 dd       	rcall	.-1182   	; 0x102 <uartString>
	uartReverse(devID, sizeof(devID));
 5a0:	ce 01       	movw	r24, r28
 5a2:	05 96       	adiw	r24, 0x05	; 5
 5a4:	68 e0       	ldi	r22, 0x08	; 8
 5a6:	d8 dd       	rcall	.-1104   	; 0x158 <uartReverse>
	uartString("\n\n\r", sizeof("\n\n\r"));
 5a8:	64 e0       	ldi	r22, 0x04	; 4
 5aa:	80 e6       	ldi	r24, 0x60	; 96
 5ac:	91 e0       	ldi	r25, 0x01	; 1
 5ae:	a9 dd       	rcall	.-1198   	; 0x102 <uartString>
	
    while(1)
    {
		char testing = accelReadReg(0x2E);
 5b0:	8e e2       	ldi	r24, 0x2E	; 46
 5b2:	20 df       	rcall	.-448    	; 0x3f4 <accelReadReg>
 5b4:	8c 83       	std	Y+4, r24	; 0x04
			if(count>=32000){
				uartString("ACCEL ASLEEP - WAITING FOR ACTIVITY\n\r\n\r", sizeof("ACCEL ASLEEP - WAITING FOR ACTIVITY\n\r\n\r"));
				count = 0;
			}
		}
*/    }
 5b6:	fc cf       	rjmp	.-8      	; 0x5b0 <main+0xd4>

000005b8 <delay>:
}

void delay(unsigned long delayTime){
 5b8:	cf 93       	push	r28
 5ba:	df 93       	push	r29
 5bc:	00 d0       	rcall	.+0      	; 0x5be <delay+0x6>
 5be:	00 d0       	rcall	.+0      	; 0x5c0 <delay+0x8>
 5c0:	cd b7       	in	r28, 0x3d	; 61
 5c2:	de b7       	in	r29, 0x3e	; 62
 5c4:	69 83       	std	Y+1, r22	; 0x01
 5c6:	7a 83       	std	Y+2, r23	; 0x02
 5c8:	8b 83       	std	Y+3, r24	; 0x03
 5ca:	9c 83       	std	Y+4, r25	; 0x04
	mark = millis;
 5cc:	80 91 76 01 	lds	r24, 0x0176
 5d0:	90 91 77 01 	lds	r25, 0x0177
 5d4:	a0 91 78 01 	lds	r26, 0x0178
 5d8:	b0 91 79 01 	lds	r27, 0x0179
 5dc:	80 93 72 01 	sts	0x0172, r24
 5e0:	90 93 73 01 	sts	0x0173, r25
 5e4:	a0 93 74 01 	sts	0x0174, r26
 5e8:	b0 93 75 01 	sts	0x0175, r27
	while((millis - mark) <= delayTime){
 5ec:	00 00       	nop
 5ee:	20 91 76 01 	lds	r18, 0x0176
 5f2:	30 91 77 01 	lds	r19, 0x0177
 5f6:	40 91 78 01 	lds	r20, 0x0178
 5fa:	50 91 79 01 	lds	r21, 0x0179
 5fe:	80 91 72 01 	lds	r24, 0x0172
 602:	90 91 73 01 	lds	r25, 0x0173
 606:	a0 91 74 01 	lds	r26, 0x0174
 60a:	b0 91 75 01 	lds	r27, 0x0175
 60e:	28 1b       	sub	r18, r24
 610:	39 0b       	sbc	r19, r25
 612:	4a 0b       	sbc	r20, r26
 614:	5b 0b       	sbc	r21, r27
 616:	89 81       	ldd	r24, Y+1	; 0x01
 618:	9a 81       	ldd	r25, Y+2	; 0x02
 61a:	ab 81       	ldd	r26, Y+3	; 0x03
 61c:	bc 81       	ldd	r27, Y+4	; 0x04
 61e:	82 17       	cp	r24, r18
 620:	93 07       	cpc	r25, r19
 622:	a4 07       	cpc	r26, r20
 624:	b5 07       	cpc	r27, r21
 626:	18 f7       	brcc	.-58     	; 0x5ee <delay+0x36>
		;
	}
}
 628:	0f 90       	pop	r0
 62a:	0f 90       	pop	r0
 62c:	0f 90       	pop	r0
 62e:	0f 90       	pop	r0
 630:	df 91       	pop	r29
 632:	cf 91       	pop	r28
 634:	08 95       	ret

00000636 <initSysTime>:



void initSysTime(void){
 636:	cf 93       	push	r28
 638:	df 93       	push	r29
 63a:	cd b7       	in	r28, 0x3d	; 61
 63c:	de b7       	in	r29, 0x3e	; 62
	TCCR0A = (1<<WGM01);	//CTC mode
 63e:	85 e4       	ldi	r24, 0x45	; 69
 640:	90 e0       	ldi	r25, 0x00	; 0
 642:	22 e0       	ldi	r18, 0x02	; 2
 644:	fc 01       	movw	r30, r24
 646:	20 83       	st	Z, r18
	TCCR0B = (1<<CS02);		//Clock prescaler is 64 - 8 MHz/64 = 125 kHZ = 125 cycles/millisecond
 648:	86 e4       	ldi	r24, 0x46	; 70
 64a:	90 e0       	ldi	r25, 0x00	; 0
 64c:	24 e0       	ldi	r18, 0x04	; 4
 64e:	fc 01       	movw	r30, r24
 650:	20 83       	st	Z, r18
	TCNT0 = 0x00;			//Initialize clock counter
 652:	87 e4       	ldi	r24, 0x47	; 71
 654:	90 e0       	ldi	r25, 0x00	; 0
 656:	fc 01       	movw	r30, r24
 658:	10 82       	st	Z, r1
	OCR0A = 0x7C;			//124 steps before counter reset
 65a:	88 e4       	ldi	r24, 0x48	; 72
 65c:	90 e0       	ldi	r25, 0x00	; 0
 65e:	2c e7       	ldi	r18, 0x7C	; 124
 660:	fc 01       	movw	r30, r24
 662:	20 83       	st	Z, r18
	ASSR = 0x00;
 664:	86 eb       	ldi	r24, 0xB6	; 182
 666:	90 e0       	ldi	r25, 0x00	; 0
 668:	fc 01       	movw	r30, r24
 66a:	10 82       	st	Z, r1
	TIMSK0 = (1<<OCIE0A);	//Enable Clock Compare Interrupts
 66c:	8e e6       	ldi	r24, 0x6E	; 110
 66e:	90 e0       	ldi	r25, 0x00	; 0
 670:	22 e0       	ldi	r18, 0x02	; 2
 672:	fc 01       	movw	r30, r24
 674:	20 83       	st	Z, r18
	millis = 0;
 676:	10 92 76 01 	sts	0x0176, r1
 67a:	10 92 77 01 	sts	0x0177, r1
 67e:	10 92 78 01 	sts	0x0178, r1
 682:	10 92 79 01 	sts	0x0179, r1
	sei();
 686:	78 94       	sei
}
 688:	df 91       	pop	r29
 68a:	cf 91       	pop	r28
 68c:	08 95       	ret

0000068e <__vector_10>:

ISR(TIMER0_COMPA_vect){
 68e:	1f 92       	push	r1
 690:	0f 92       	push	r0
 692:	00 90 5f 00 	lds	r0, 0x005F
 696:	0f 92       	push	r0
 698:	11 24       	eor	r1, r1
 69a:	8f 93       	push	r24
 69c:	9f 93       	push	r25
 69e:	af 93       	push	r26
 6a0:	bf 93       	push	r27
 6a2:	cf 93       	push	r28
 6a4:	df 93       	push	r29
 6a6:	cd b7       	in	r28, 0x3d	; 61
 6a8:	de b7       	in	r29, 0x3e	; 62
	millis += 1;
 6aa:	80 91 76 01 	lds	r24, 0x0176
 6ae:	90 91 77 01 	lds	r25, 0x0177
 6b2:	a0 91 78 01 	lds	r26, 0x0178
 6b6:	b0 91 79 01 	lds	r27, 0x0179
 6ba:	01 96       	adiw	r24, 0x01	; 1
 6bc:	a1 1d       	adc	r26, r1
 6be:	b1 1d       	adc	r27, r1
 6c0:	80 93 76 01 	sts	0x0176, r24
 6c4:	90 93 77 01 	sts	0x0177, r25
 6c8:	a0 93 78 01 	sts	0x0178, r26
 6cc:	b0 93 79 01 	sts	0x0179, r27
}
 6d0:	df 91       	pop	r29
 6d2:	cf 91       	pop	r28
 6d4:	bf 91       	pop	r27
 6d6:	af 91       	pop	r26
 6d8:	9f 91       	pop	r25
 6da:	8f 91       	pop	r24
 6dc:	0f 90       	pop	r0
 6de:	00 92 5f 00 	sts	0x005F, r0
 6e2:	0f 90       	pop	r0
 6e4:	1f 90       	pop	r1
 6e6:	18 95       	reti

000006e8 <__vector_default>:

ISR(BADISR_vect){
 6e8:	1f 92       	push	r1
 6ea:	0f 92       	push	r0
 6ec:	00 90 5f 00 	lds	r0, 0x005F
 6f0:	0f 92       	push	r0
 6f2:	11 24       	eor	r1, r1
 6f4:	cf 93       	push	r28
 6f6:	df 93       	push	r29
 6f8:	cd b7       	in	r28, 0x3d	; 61
 6fa:	de b7       	in	r29, 0x3e	; 62
	
 6fc:	df 91       	pop	r29
 6fe:	cf 91       	pop	r28
 700:	0f 90       	pop	r0
 702:	00 92 5f 00 	sts	0x005F, r0
 706:	0f 90       	pop	r0
 708:	1f 90       	pop	r1
 70a:	18 95       	reti

0000070c <_exit>:
 70c:	f8 94       	cli

0000070e <__stop_program>:
 70e:	ff cf       	rjmp	.-2      	; 0x70e <__stop_program>
