S01000004779726F4D6567612E73726563F9
S11300000C9434000C9451000C9451000C94510045
S11300100C9451000C9451000C9451000C94510018
S11300200C9451000C9451000C9451000C94510008
S11300300C9451000C9451000C94E90A0C94510056
S11300400C9451000C9451000C9451000C945100E8
S11300500C9451000C9451000C9451000C945100D8
S11300600C9451000C94510011241FBECFEFD8E022
S1130070DEBFCDBF11E0A0E0B1E0EAE5F7E102C0E8
S113008005900D92AE3BB107D9F721E0AEEBB1E09C
S113009001C01D92A63CB207E1F70E94AB030C9489
S11300A0AB0B0C94160BCF93DF93CDB7DEB787E27F
S11300B090E027E230E0F90120812760FC012083F1
S11300C084E290E024E230E0F90120812C62FC011A
S11300D0208385E290E025E230E0F901208124606C
S11300E0FC01208388E290E028E230E0F9012081DD
S11300F02760FC0120838DE490E021E0FC01208353
S11301008CE490E020E5FC012083DF91CF910895F9
S1130110CF93DF9300D0CDB7DEB79A8389838981EB
S11301209A818130910501F1823091051CF4009788
S113013041F053C08230910551F183309105D1F1E2
S11301404CC08CE490E02CE430E0F9012081237F62
S1130150FC01208388E290E028E230E0F90120816C
S11301602B7FFC01208339C08CE490E02CE430E048
S1130170F90120812C60FC01208388E290E028E2D0
S113018030E0F90120812B7FFC01208326C08CE420
S113019090E02CE430E0F90120812C60FC01208304
S11301A088E290E028E230E0F90120812D7FFC0113
S11301B0208313C08CE490E02CE430E0F90120812A
S11301C02C60FC01208388E290E028E230E0F90111
S11301D020812E7FFC01208300000F900F90DF917F
S11301E0CF910895CF93DF9300D0CDB7DEB78A8344
S11301F08EE490E02A81FC01208300008DE490E0ED
S1130200FC0180818823D4F78EE490E0FC01808196
S1130210898389810F900F90DF91CF910895CF93B7
S1130220DF93CDB7DEB788E290E028E230E0F90151
S113023020812760FC012083DF91CF910895CF9323
S1130240DF9300D0CDB7DEB789836A8389818F734A
S1130250898381E090E00E94880089810E94F200F5
S11302608A810E94F2000E940F010F900F90DF918B
S1130270CF910895CF93DF93CDB7DEB72E970FB606
S1130280F894DEBF0FBECDBF8CE0E0E0F1E0DE010C
S1130290139601900D928A95E1F71A82198220C073
S11302A089819A81880F991F9E012F5F3F4F820F8A
S11302B0931F0396FC01408189819A81880F991FBD
S11302C09E012F5F3F4F820F931F0296FC01808196
S11302D0642F0E941F0189819A8101969A838983E0
S11302E089819A81880F991F9E012F5F3F4F820F4A
S11302F0931F0296FC0180818F3F91F62E960FB6D4
S1130300F894DEBF0FBECDBFDF91CF9108950F9358
S11303101F93CF93DF93CDB7DEB728970FB6F8942A
S1130320DEBF0FBECDBF9E838D8378876F8381E050
S113033090E00E948800198287EE8C838C810E9451
S1130340F20080E00E94F200882F90E088709927E4
S11303500097F9F01B821A8215C02A813B818F8194
S11303609885820F931F2D813E818901080F191FE3
S113037080E00E94F200F80180838A819B810196CB
S11303809B838A838A819B818630910534F381E043
S113039089830E940F01898128960FB6F894DEBFE5
S11303A00FBECDBFDF91CF911F910F910895CF93D1
S11303B0DF93CDB7DEB78AE290E02AE230E0F901BC
S11303C020812260FC01208384EC90E021E0FC0188
S11303D0208385EC90E0FC01108282EC90E026E022
S11303E0FC01208381EC90E028E0FC012083DF9174
S11303F0CF910895CF93DF931F92CDB7DEB7898352
S113040086EC90E02981FC012083000080EC90E0E0
S1130410FC018081882F90E0807499270097B1F3C4
S113042080EC90E020EC30E0F90120812064FC01B4
S113043020830F90DF91CF910895CF93DF9300D065
S113044000D01F92CDB7DEB79C838B836D831A8255
S113045019820FC089819A812B813C81820F931F5D
S1130460FC0180810E94FA0189819A8101969A8314
S113047089838D81282F30E089819A81821793079F
S11304804CF30F900F900F900F900F90DF91CF913E
S11304900895CF93DF9300D000D01F92CDB7DEB77D
S11304A09C838B836D838D81882F90E001979A8341
S11304B089830FC089819A812B813C81820F931F8C
S11304C0FC0180810E94FA0189819A8101979A83B3
S11304D0898389819A8199236CF70F900F900F90EB
S11304E00F900F90DF91CF910895CF93DF9300D0B9
S11304F0CDB7DEB789836A8389818F73898382E06C
S113050090E00E94880089810E94F2008A810E9402
S1130510F2000E940F010F900F90DF91CF91089588
S1130520CF93DF9300D0CDB7DEB78A838A8180680A
S11305308A8382E090E00E9488008A810E94F2000F
S113054080E00E94F20089830E940F0189810F904C
S11305500F90DF91CF9108950F931F93CF93DF9363
S1130560CDB7DEB727970FB6F894DEBF0FBECDBF69
S11305708B837D836C835F834E838B81806C8B83C1
S113058082E090E00E9488008B810E94F2001A822F
S1130590198211C089819A812E813F818901080FB6
S11305A0191F80E00E94F200F801808389819A81FA
S11305B001969A83898329813A818C819D812817A8
S11305C0390744F30E940F0127960FB6F894DEBF53
S11305D00FBECDBFDF91CF911F910F910895CF939F
S11305E0DF93CDB7DEB72C970FB6F894DEBF0FBEFE
S11305F0CDBF9A8789877C876B8726E0CE010396D7
S1130600FC01322F11923A95E9F7CE010396AC0121
S113061066E070E082E30E94AC021A8219821AC07A
S113062029813A818B859C85820F931F29853A8580
S1130630820F931FAE014D5F5F4F29813A81240FD2
S1130640351FF9012081FC01208389819A8101965B
S11306509A83898389819A81863091050CF32C963B
S11306600FB6F894DEBF0FBECDBFDF91CF910895D2
S1130670CF93DF93CDB7DEB7AC970FB6F894DEBF58
S11306800FBECDBF87E290E027E230E0F901208180
S11306902F7DFC0120838AE2ECE0F1E0DE01139679
S11306A001900D928A95E1F71A82198220C08981FE
S11306B09A81880F991F9E012F5F3F4F820F931FCE
S11306C00396FC01408189819A81880F991F9E01BC
S11306D02F5F3F4F820F931F0296FC018081642F8E
S11306E00E94750289819A8101969A8389838981FE
S11306F09A81880F991F9E012F5F3F4F820F931F8E
S11307000296FC0180818F3F91F660ED8EE20E949B
S11307107502AC960FB6F894DEBF0FBECDBFDF9165
S1130720CF910895CF93DF931F92CDB7DEB719828F
S113073086E290E0FC018081882F90E08072992706
S1130740009721F080E30E949002898389810F90B1
S1130750DF91CF910895EF92FF920F931F93CF9360
S1130760DF93CDB7DEB7C056D2400FB6F894DEBFE4
S11307700FBECDBF0E9453000E94BD0A64E670E024
S113078080E090E00E947E0A0E94D7010E94380314
S11307906AE070E080E090E00E947E0A0E943A01E4
S11307A060E186E391E00E941D026AE070E080E06F
S11307B090E00E947E0A67E186E491E00E941D02B7
S11307C080E00E949002898388E0E6EBF1E0DE019C
S11307D09E9601900D928A95E1F71B821A8221C0A0
S11307E089818170882359F09E01225D3F4F8A815F
S11307F09B81820F931F21E3FC0120830AC09E0189
S1130800225D3F4F8A819B81820F931F20E3FC016D
S113081020838981869589838A819B8101969B8324
S11308208A8389818823E1F663E18DE591E00E9462
S11308301D02CE018E9668E00E94490264E080E7C2
S113084091E00E941D026DE384E791E00E941D0285
S1130850CE0187589F4F2CE231E0FC0189011192AF
S113086001501040E1F7CE018B559E4F20E5FC016D
S1130870E22E1192EA94E9F71D821C821F821E82E5
S11308800E949203882F90E080749927009709F4BE
S113089034C68091C2019091C301A091C401B0916A
S11308A0C5018093BE019093BF01A093C001B09392
S11308B0C10120C00E94920388236CF42C813D81E5
S11308C0CE0187589F4FB9010E94EF028C819D8110
S11308D006969D838C832E813F81CE018B559E4F3E
S11308E0B9010E948701882329F08E819F81069691
S11308F09F838E832091C2013091C3014091C40132
S11309005091C5018091BE019091BF01A091C00199
S1130910B091C10179018A01E81AF90A0A0B1B0B8B
S1130920D801C70180319105A105B10518F22AE06B
S1130930CE01C696FC01E22E1192EA94E9F71986DB
S113094018863CC08091BE019091BF01A091C00166
S1130950B091C1012AE030E040E050E0BC01CD019B
S11309600E943C0BDC01CB0140E3480F9E012A5C52
S11309703F4F88859985820F931FFC0140838091A6
S1130980BE019091BF01A091C001B091C1012AE0C4
S113099030E040E050E0BC01CD010E943C0BDA01A4
S11309A0C9018093BE019093BF01A093C001B0938D
S11309B0C101888599850196998788878091BE01B0
S11309C09091BF01A091C001B091C1010097A10510
S11309D0B10509F0B7CFCE01C6966AE00E9449027C
S11309E063E081EB91E00E941D021B861A86A1C27E
S11309F029E0CE01805C9F4FFC01E22E1192EA9423
S1130A00E9F7CE01875B9F4F29E0FC01E22E1192AA
S1130A10EA94E9F7CE018E5A9F4F29E0FC01E22EB9
S1130A201192EA94E9F72A853B85C901880F991F39
S1130A30820F931F880F991F9E0127583F4F820FE3
S1130A40931FFC0140812A853B85C901880F991FAA
S1130A50820F931F880F991F01969E0127583F4FBD
S1130A60820F931FFC018081842B882F90E0A0E0EB
S1130A70B0E08C879D87AE87BF872A853B85C901F7
S1130A80880F991F820F931F880F991F02969E014A
S1130A9027583F4F820F931FFC0140812A853B85D5
S1130AA0C901880F991F820F931F880F991F0396FE
S1130AB09E0127583F4F820F931FFC018081842B96
S1130AC0882F90E0A0E0B0E0888B998BAA8BBB8B39
S1130AD02A853B85C901880F991F820F931F880FB0
S1130AE0991F04969E0127583F4F820F931FFC01C4
S1130AF040812A853B85C901880F991F820F931F66
S1130B00880F991F05969E0127583F4F820F931F08
S1130B10FC018081842B882F90E0A0E0B0E08C8BD6
S1130B209D8BAE8BBF8B8C859D85AE85BF858827BD
S1130B309078AA27BB270097A105B105C9F08C8539
S1130B409D85AE85BF85B095A095909581959F4F65
S1130B50AF4FBF4F9927AA27BB278C879D87AE87A6
S1130B60BF87CE01885B9F4F2DE2FC01208306C026
S1130B70CE01885B9F4F2BE2FC01208388899989F1
S1130B80AA89BB8988279078AA27BB270097A10543
S1130B90B105C9F088899989AA89BB89B095A095BE
S1130BA0909581959F4FAF4FBF4F9927AA27BB2799
S1130BB0888B998BAA8BBB8BCE01875B9F4F2DE2D1
S1130BC0FC01208706C0CE01875B9F4F2BE2FC010E
S1130BD020878C899D89AE89BF8988279078AA2728
S1130BE0BB270097A105B105C9F08C899D89AE8901
S1130BF0BF89B095A095909581959F4FAF4FBF4FFA
S1130C009927AA27BB278C8B9D8BAE8BBF8BCE01DC
S1130C108E5A9F4F2DE2FC01208706C0CE018E5ACA
S1130C209F4F2BE2FC0120872C853D854E855F85F7
S1130C3081ED93E0DC010E947D0BDC01CB018C870C
S1130C409D87AE87BF87288939894A895B8981ED69
S1130C5093E0DC010E947D0BDC01CB01888B998B36
S1130C60AA8BBB8B2C893D894E895F8981ED93E0EA
S1130C70DC010E947D0BDC01CB018C8B9D8BAE8B48
S1130C80BF8B198E188E86C08C859D85AE85BF85D9
S1130C902AE030E040E050E0BC01CD010E945E0B50
S1130CA0DC01CB0140E3480F9E01205C3F4F888D5F
S1130CB0998D820F931FFC01408388899989AA89A1
S1130CC0BB892AE030E040E050E0BC01CD010E9445
S1130CD05E0BDC01CB0140E3480F9E01275B3F4FD5
S1130CE0888D998D820F931FFC0140838C899D8987
S1130CF0AE89BF892AE030E040E050E0BC01CD017C
S1130D000E945E0BDC01CB0140E3480F9E012E5A8A
S1130D103F4F888D998D820F931FFC0140838C85F2
S1130D209D85AE85BF852AE030E040E050E0BC01FF
S1130D30CD010E945E0BDA01C9018C879D87AE87C5
S1130D40BF8788899989AA89BB892AE030E040E075
S1130D5050E0BC01CD010E945E0BDA01C901888B11
S1130D60998BAA8BBB8B8C899D89AE89BF892AE01C
S1130D7030E040E050E0BC01CD010E945E0BDA019E
S1130D80C9018C8B9D8BAE8BBF8B888D998D019601
S1130D90998F888F888D998D843091050CF474CF48
S1130DA0CE018C5B9F4F2EE2FC012083CE01875B3A
S1130DB09F4F2EE2FC012483CE018E5A9F4F2EE2D8
S1130DC0FC01248385E090E09B8F8A8F86C08C850C
S1130DD09D85AE85BF852AE030E040E050E0BC014F
S1130DE0CD010E945E0BDC01CB0140E3480F9E0164
S1130DF0205C3F4F8A8D9B8D820F931FFC014083A3
S1130E0088899989AA89BB892AE030E040E050E0CA
S1130E10BC01CD010E945E0BDC01CB0140E3480F15
S1130E209E01275B3F4F8A8D9B8D820F931FFC0190
S1130E3040838C899D89AE89BF892AE030E040E0F7
S1130E4050E0BC01CD010E945E0BDC01CB0140E30C
S1130E50480F9E012E5A3F4F8A8D9B8D820F931F00
S1130E60FC0140838C859D85AE85BF852AE030E0FA
S1130E7040E050E0BC01CD010E945E0BDA01C901E3
S1130E808C879D87AE87BF8788899989AA89BB8902
S1130E902AE030E040E050E0BC01CD010E945E0B4E
S1130EA0DA01C901888B998BAA8BBB8B8C899D89AC
S1130EB0AE89BF892AE030E040E050E0BC01CD01BA
S1130EC00E945E0BDA01C9018C8B9D8BAE8BBF8BAC
S1130ED08A8D9B8D01969B8F8A8F8A8D9B8D8830FE
S1130EE091050CF474CFCE01805C9F4F69E00E94A1
S1130EF0490262E084EB91E00E941D02CE01875B0F
S1130F009F4F69E00E94490262E084EB91E00E94F5
S1130F101D02CE018E5A9F4F69E00E94490263E090
S1130F2081EB91E00E941D028A859B8501969B8737
S1130F308A878C819D8126E030E0B9010E94280BCC
S1130F40CB019C018A859B85821793070CF450CDB5
S1130F501D8E1C8EC2C2CE01855A9F4F2AE0FC0111
S1130F60E22E1192EA94E9F7CE018B599F4F2AE0C1
S1130F70FC01E22E1192EA94E9F7CE0181599F4FC8
S1130F802AE0FC01E22E1192EA94E9F72C8D3D8DC2
S1130F90C901880F991F820F931F880F991F9E0103
S1130FA02B553E4F820F931FFC018081282F30E088
S1130FB040E050E06C8D7D8DCB01880F991F860F2A
S1130FC0971F880F991F0196BE016B557E4F860FA0
S1130FD0971FFC018081882F90E0A0E0B0E0BA2F39
S1130FE0A92F982F8827822B932BA42BB52B8E8F78
S1130FF09F8FA8A3B9A32C8D3D8DC901880F991F7C
S1131000820F931F880F991F02969E012B553E4F06
S1131010820F931FFC018081282F30E040E050E0D4
S11310206C8D7D8DCB01880F991F860F971F880FBC
S1131030991F0396BE016B557E4F860F971FFC01C7
S11310408081882F90E0A0E0B0E0BA2FA92F982FDC
S11310508827822B932BA42BB52B8AA39BA3ACA309
S1131060BDA32C8D3D8DC901880F991F820F931F3D
S1131070880F991F04969E012B553E4F820F931F94
S1131080FC018081282F30E040E050E06C8D7D8DA4
S1131090CB01880F991F860F971F880F991F0596FC
S11310A0BE016B557E4F860F971FFC018081882FF0
S11310B090E0A0E0B0E0BA2FA92F982F8827822BC8
S11310C0932BA42BB52B8EA39FA3A8A7B9A78E8D72
S11310D09F8DA8A1B9A188279078AA27BB2700973C
S11310E0A105B105C9F08E8D9F8DA8A1B9A1B095B8
S11310F0A095909581959F4FAF4FBF4F9927AA27F1
S1131100BB278E8F9F8FA8A3B9A3CE01855A9F4F6B
S11311102DE2FC01218706C0CE01855A9F4F2BE2A8
S1131120FC0121878AA19BA1ACA1BDA1882790784D
S1131130AA27BB270097A105B105C9F08AA19BA1E5
S1131140ACA1BDA1B095A095909581959F4FAF4F4F
S1131150BF4F9927AA27BB278AA39BA3ACA3BDA3F0
S1131160CE018B599F4F2DE2FC01218706C0CE0191
S11311708B599F4F2BE2FC0121878EA19FA1A8A52B
S1131180B9A588279078AA27BB270097A105B105A0
S1131190C9F08EA19FA1A8A5B9A5B095A0959095D9
S11311A081959F4FAF4FBF4F9927AA27BB278EA387
S11311B09FA3A8A7B9A7CE0181599F4F2DE2FC0197
S11311C0218706C0CE0181599F4F2BE2FC01218764
S11311D02E8D3F8D48A159A18BE693E0DC010E943E
S11311E07D0BDC01CB018E8F9F8FA8A3B9A32AA10D
S11311F03BA14CA15DA18BE693E0DC010E947D0B39
S1131200DC01CB018AA39BA3ACA3BDA32EA13FA168
S113121048A559A58BE693E0DC010E947D0BDC0117
S1131220CB018EA39FA3A8A7B9A71BA61AA686C005
S11312308E8D9F8DA8A1B9A12AE030E040E050E056
S1131240BC01CD010E945E0BDC01CB0140E3480FE1
S11312509E01255A3F4F8AA59BA5820F931FFC012F
S113126040838AA19BA1ACA1BDA12AE030E040E06B
S113127050E0BC01CD010E945E0BDC01CB0140E3D8
S1131280480F9E012B593F4F8AA59BA5820F931FA0
S1131290FC0140838EA19FA1A8A5B9A52AE030E056
S11312A040E050E0BC01CD010E945E0BDC01CB01AB
S11312B040E3480F9E0121593F4F8AA59BA5820F09
S11312C0931FFC0140838E8D9F8DA8A1B9A12AE0B4
S11312D030E040E050E0BC01CD010E945E0BDA0139
S11312E0C9018E8F9F8FA8A3B9A38AA19BA1ACA18A
S11312F0BDA12AE030E040E050E0BC01CD010E94F5
S11313005E0BDA01C9018AA39BA3ACA3BDA38EA182
S11313109FA1A8A5B9A52AE030E040E050E0BC01B7
S1131320CD010E945E0BDA01C9018EA39FA3A8A779
S1131330B9A78AA59BA501969BA78AA78AA59BA561
S1131340853091050CF474CFCE01855A9F4F2EE25F
S1131350FC012583CE018B599F4F2EE2FC0125838E
S1131360CE0181599F4F2EE2FC01258386E090E057
S11313709DA78CA786C08E8D9F8DA8A1B9A12AE0B8
S113138030E040E050E0BC01CD010E945E0BDC0186
S1131390CB0140E3480F9E01255A3F4F8CA59DA5E4
S11313A0820F931FFC0140838AA19BA1ACA1BDA124
S11313B02AE030E040E050E0BC01CD010E945E0B29
S11313C0DC01CB0140E3480F9E012B593F4F8CA514
S11313D09DA5820F931FFC0140838EA19FA1A8A508
S11313E0B9A52AE030E040E050E0BC01CD010E9404
S11313F05E0BDC01CB0140E3480F9E0121593F4FB6
S11314008CA59DA5820F931FFC0140838E8D9F8D1B
S1131410A8A1B9A12AE030E040E050E0BC01CD0130
S11314200E945E0BDA01C9018E8F9F8FA8A3B9A316
S11314308AA19BA1ACA1BDA12AE030E040E050E02C
S1131440BC01CD010E945E0BDA01C9018AA39BA3F2
S1131450ACA3BDA38EA19FA1A8A5B9A52AE030E0A5
S113146040E050E0BC01CD010E945E0BDA01C901ED
S11314708EA39FA3A8A7B9A78CA59DA501969DA7F8
S11314808CA78CA59DA5893091050CF474CFCE0151
S1131490855A9F4F6AE00E94490262E084EB91E022
S11314A00E941D02CE018B599F4F6AE00E9449029F
S11314B062E084EB91E00E941D02CE0181599F4FAE
S11314C06AE00E94490263E081EB91E00E941D0200
S11314D08C8D9D8D01969D8F8C8F8E819F8126E0B2
S11314E030E0B9010E94280BCB019C018C8D9D8DAD
S11314F0821793070CF42FCDABC9AAC9CF93DF93FE
S113150000D000D0CDB7DEB769837A838B839C8308
S11315108091C2019091C301A091C401B091C50111
S11315208093BE019093BF01A093C001B093C10109
S113153000002091C2013091C3014091C401509137
S1131540C5018091BE019091BF01A091C001B091ED
S1131550C101281B390B4A0B5B0B89819A81AB8132
S1131560BC8182179307A407B50718F70F900F9053
S11315700F900F90DF91CF910895CF93DF93CDB764
S1131580DEB784E490E022E0FC01208385E490E06F
S113159023E0FC01208387E490E02CE7FC01208316
S11315A086EB90E0FC01108286E490E0FC0110825E
S11315B08EE690E022E0FC0120831092C20110929A
S11315C0C3011092C4011092C5017894DF91CF91A8
S11315D008951F920F9200905F000F9211248F9331
S11315E09F93AF93BF93CF93DF93CDB7DEB7809133
S11315F0C2019091C301A091C401B091C5010196AB
S1131600A11DB11D8093C2019093C301A093C40195
S1131610B093C501DF91CF91BF91AF919F918F910D
S11316200F9000925F000F901F9018951F920F92D9
S113163000905F000F921124CF93DF93CDB7DEB7F4
S1131640DF91CF910F9000925F000F901F9018953B
S113165097FB072E16F4009407D077FD09D00E945B
S1131660880B07FC05D03EF4909581959F4F089513
S1131670709561957F4F0895A1E21A2EAA1BBB1B9A
S1131680FD010DC0AA1FBB1FEE1FFF1FA217B3074A
S1131690E407F50720F0A21BB30BE40BF50B661F60
S11316A0771F881F991F1A9469F760957095809524
S11316B090959B01AC01BD01CF010895052E97FBC8
S11316C01EF400940E94750B57FD07D00E943C0B3A
S11316D007FC03D04EF40C94750B5095409530954F
S11316E021953F4F4F4F5F4F08959095809570958A
S11316F061957F4F8F4F9F4F08950E949C0BA59F2C
S1131700900DB49F900DA49F800D911D11240895F8
S1131710AA1BBB1B51E107C0AA1FBB1FA617B70713
S113172010F0A61BB70B881F991F5A95A9F780952F
S11317309095BC01CD010895A29FB001B39FC00153
S1131740A39F700D811D1124911DB29F700D811DE9
S10D17501124911D0895F894FFCFB1
S113175A20F82100238024402E00FF002E001EFDC5
S113176A1F0120801D091E001F00200021012200E4
S113177A230024032503260A27772A0F2CFF2D0882
S113178A310B383FFF0055415254205245414459C8
S113179A2E2E2E0A0D00414343454C20494E4954EE
S11317AA49414C495A45442E2E2E0A0D00414343C1
S11317BA454C204445564943452049443A0A0D00BC
S11317CA0A0A0D002054494D45286D73292C5820C6
S11317DA444154412867292C5920444154412867DB
S11317EA292C5A20444154412867292C5847797294
S11317FA6F2C594779726F2C5A4779726F0A0A0DFE
S111180A000A0D002C0041544144204F4E00B2
S9030000FC
