S013000048656C6D65742044656D6F2E737265630D
S11300000C9434000C9451000C9451000C94510045
S11300100C9451000C9451000C9451000C94510018
S11300200C9451000C9451000C9451000C94510008
S11300300C9451000C9451000C948C000C945100BD
S11300400C9451000C9451000C9451000C945100E8
S11300500C9451000C9451000C9451000C945100D8
S11300600C9451000C94510011241FBECFEFD8E022
S1130070DEBFCDBF11E0A0E0B1E0EAE7F1E002C0ED
S113008005900D92A030B107D9F721E0A0E0B1E0CE
S113009001C01D92A830B207E1F70E9477000C94CA
S11300A0BB000C94B10087B1876087B984B18C62BE
S11300B084B92A9A88B1876088B981E08DBD80E5CA
S11300C08CBD089582E084BD93E095BD9CE797BD07
S11300D01092B60016BC80936E0010920401109228
S11300E005011092060110920701789408950E9468
S11300F053000E9462008091040190910501A09137
S11301000601B09107018093000190930101A0932F
S11301100201B0930301FFCF1F920F920FB60F920B
S113012011248F939F93AF93BF9380910401909177
S11301300501A0910601B09107010196A11DB11D11
S11301408093040190930501A0930601B0930701E5
S1130150BF91AF919F918F910F900FBE0F901F9001
S113016018951F920F920FB60F9211240F900FBE85
S10D01700F901F901895F894FFCF2C
S9030000FC
